{
  "contractName": "Ownable",
  "abi": [
    {
      "anonymous": false,
      "inputs": [
        {
          "indexed": true,
          "internalType": "address",
          "name": "previousOwner",
          "type": "address"
        },
        {
          "indexed": true,
          "internalType": "address",
          "name": "newOwner",
          "type": "address"
        }
      ],
      "name": "OwnershipTransferred",
      "type": "event"
    },
    {
      "inputs": [],
      "name": "_owner",
      "outputs": [
        {
          "internalType": "address",
          "name": "",
          "type": "address"
        }
      ],
      "stateMutability": "view",
      "type": "function"
    },
    {
      "inputs": [],
      "name": "renounceOwnership",
      "outputs": [],
      "stateMutability": "nonpayable",
      "type": "function"
    },
    {
      "inputs": [
        {
          "internalType": "address",
          "name": "newOwner",
          "type": "address"
        }
      ],
      "name": "transferOwnership",
      "outputs": [],
      "stateMutability": "nonpayable",
      "type": "function"
    }
  ],
  "bytecode": "0x608060405234801561001057600080fd5b506104cb806100206000396000f3fe608060405234801561001057600080fd5b50600436106100415760003560e01c8063715018a614610046578063b2bdfa7b14610050578063f2fde38b14610084575b600080fd5b61004e6100c8565b005b610058610247565b604051808273ffffffffffffffffffffffffffffffffffffffff16815260200191505060405180910390f35b6100c66004803603602081101561009a57600080fd5b81019080803573ffffffffffffffffffffffffffffffffffffffff16906020019092919050505061026b565b005b3373ffffffffffffffffffffffffffffffffffffffff1660008054906101000a900473ffffffffffffffffffffffffffffffffffffffff1673ffffffffffffffffffffffffffffffffffffffff1614610189576040517f08c379a00000000000000000000000000000000000000000000000000000000081526004018080602001828103825260208152602001807f4f776e61626c653a2063616c6c6572206973206e6f7420746865206f776e657281525060200191505060405180910390fd5b600073ffffffffffffffffffffffffffffffffffffffff1660008054906101000a900473ffffffffffffffffffffffffffffffffffffffff1673ffffffffffffffffffffffffffffffffffffffff167f8be0079c531659141344cd1fd0a4f28419497f9722a3daafe3b4186f6b6457e060405160405180910390a360008060006101000a81548173ffffffffffffffffffffffffffffffffffffffff021916908373ffffffffffffffffffffffffffffffffffffffff160217905550565b60008054906101000a900473ffffffffffffffffffffffffffffffffffffffff1681565b3373ffffffffffffffffffffffffffffffffffffffff1660008054906101000a900473ffffffffffffffffffffffffffffffffffffffff1673ffffffffffffffffffffffffffffffffffffffff161461032c576040517f08c379a00000000000000000000000000000000000000000000000000000000081526004018080602001828103825260208152602001807f4f776e61626c653a2063616c6c6572206973206e6f7420746865206f776e657281525060200191505060405180910390fd5b600073ffffffffffffffffffffffffffffffffffffffff168173ffffffffffffffffffffffffffffffffffffffff1614156103b2576040517f08c379a00000000000000000000000000000000000000000000000000000000081526004018080602001828103825260268152602001806104706026913960400191505060405180910390fd5b8073ffffffffffffffffffffffffffffffffffffffff1660008054906101000a900473ffffffffffffffffffffffffffffffffffffffff1673ffffffffffffffffffffffffffffffffffffffff167f8be0079c531659141344cd1fd0a4f28419497f9722a3daafe3b4186f6b6457e060405160405180910390a3806000806101000a81548173ffffffffffffffffffffffffffffffffffffffff021916908373ffffffffffffffffffffffffffffffffffffffff1602179055505056fe4f776e61626c653a206e6577206f776e657220697320746865207a65726f2061646472657373a26469706673582212206cf8c1b966e4f571d6822144ed83d5a2518e66e438eccc8f837d98defdc2717c64736f6c634300060c0033",
  "immutableReferences": {},
  "source": "// SPDX-License-Identifier: MIT\n\npragma solidity ^0.6.0;\nimport \"./interfaces/IyToken.sol\";\nimport \"./interfaces/Iy_3dToken.sol\";\nimport \"./libraries/ERC20.sol\";\n\ncontract Ownable {\n\n    address public _owner;\n    event OwnershipTransferred(address indexed previousOwner, address indexed newOwner);\n\n    modifier onlyOwner() {\n        require(_owner == msg.sender, \"Ownable: caller is not the owner\");\n        _;\n    }\n\n    /**\n     * @dev Leaves the contract without owner. It will not be possible to call\n     * `onlyOwner` functions anymore. Can only be called by the current owner.\n     *\n     * NOTE: Renouncing ownership will leave the contract without an owner,\n     * thereby removing any functionality that is only available to the owner.\n     */\n    function renounceOwnership() public virtual onlyOwner {\n        emit OwnershipTransferred(_owner, address(0));\n        _owner = address(0);\n    }\n\n    /**\n     * @dev Transfers ownership of the contract to a new account (`newOwner`).\n     * Can only be called by the current owner.\n     */\n    function transferOwnership(address newOwner) public virtual onlyOwner {\n        require(newOwner != address(0), \"Ownable: new owner is the zero address\");\n        emit OwnershipTransferred(_owner, newOwner);\n        _owner = newOwner;\n    }\n}\n\n/**\n * @dev Implementation of the {Iy_3dToken} interface.\n */\ncontract y_3dToken is ERC20, Iy_3dToken, Ownable {\n    address public _u; // underlying token address\n    address public _y; // yToken address\n    uint public pool; // How many u token in the pool\n    uint8 public _fee; // P3D exit fee\n\n    constructor (address underlying_token, address y_token, uint8 fee, string memory name, string memory symbol, uint8 decimals, address to) ERC20(name, symbol, decimals) public {\n        _u = underlying_token;\n        _y = y_token;\n        pool = 1; _mint(to, 1); // trick: avoid div by 0\n        _fee = fee;\n        _owner = to;\n    }\n\n    function stake(uint256 _amount) external {\n        require(_amount > 0, \"stake amount must be greater than 0\");\n        ERC20 u = ERC20(_u);\n        u.transferFrom(msg.sender, address(this), _amount);\n        // invariant: shares/totalSupply = amount/pool\n        uint256 shares = (_amount.mul(totalSupply())).div(pool);\n        _mint(msg.sender, shares); pool = pool.add(_amount);\n    }\n\n    function unstake(uint256 _shares) external {\n        require(_shares > 0, \"unstake shares must be greater than 0\");\n        ERC20 u = ERC20(_u);\n        // invariant: shres/totalSupply = amount/pool\n        uint256 _amount = (pool.mul(_shares)).div(totalSupply());\n        _burn(msg.sender, _shares); pool = pool.sub(_amount);\n        uint256 b = u.balanceOf(address(this));\n        if (b < _amount) _withdraw(_amount - b); //!!\n        u.transfer(msg.sender, _amount);\n    }\n\n    function setFee(uint8 fee) external onlyOwner() {\n        _fee = fee;\n    }\n\n    function _deposit(uint a) internal {\n        require(a > 0, \"deposit amount must be greater than 0\");\n        IyToken y = IyToken(_y);\n        y.deposit(a);\n    }\n    function deposit(uint a) external {\n        _deposit(a);\n    }\n    function depositAll() external {\n        ERC20 u = ERC20(_u);\n        _deposit(u.balanceOf(address(this)));\n    }\n    function _withdraw(uint s) internal {\n        require(s > 0, \"withdraw amount must be greater than 0\");\n        IyToken y = IyToken(_y);\n        y.withdraw(s);\n    }\n    function withdraw(uint s) external onlyOwner() {\n        _withdraw(s);\n    }\n    function withdrawAll() external onlyOwner() {\n        IyToken y = IyToken(_y);\n        _withdraw(y.balanceOf(address(this)));\n    }\n}",
  "sourcePath": "/Users/minakokojima/Documents/GitHub/y3d-protocol-v2/contracts/y_3dtoken.sol",
  "compiler": {
    "name": "solc",
    "version": "0.6.12+commit.27d51765.Emscripten.clang"
  },
  "schemaVersion": "3.2.0",
  "updatedAt": "2020-10-12T02:33:38.171Z",
  "devdoc": {
    "kind": "dev",
    "methods": {
      "renounceOwnership()": {
        "details": "Leaves the contract without owner. It will not be possible to call `onlyOwner` functions anymore. Can only be called by the current owner. NOTE: Renouncing ownership will leave the contract without an owner, thereby removing any functionality that is only available to the owner."
      },
      "transferOwnership(address)": {
        "details": "Transfers ownership of the contract to a new account (`newOwner`). Can only be called by the current owner."
      }
    },
    "version": 1
  },
  "userdoc": {
    "kind": "user",
    "methods": {},
    "version": 1
  }
}