{
  "contractName": "y_3dFactory",
  "abi": [
    {
      "anonymous": false,
      "inputs": [
        {
          "indexed": true,
          "internalType": "address",
          "name": "from",
          "type": "address"
        },
        {
          "indexed": true,
          "internalType": "address",
          "name": "underlying_token",
          "type": "address"
        },
        {
          "indexed": false,
          "internalType": "address",
          "name": "yToken",
          "type": "address"
        }
      ],
      "name": "y_3dTokenCreated",
      "type": "event"
    },
    {
      "inputs": [
        {
          "internalType": "address",
          "name": "u",
          "type": "address"
        },
        {
          "internalType": "address",
          "name": "yToken",
          "type": "address"
        },
        {
          "internalType": "uint8",
          "name": "fee",
          "type": "uint8"
        }
      ],
      "name": "create",
      "outputs": [],
      "stateMutability": "nonpayable",
      "type": "function"
    }
  ],
  "bytecode": "0x608060405234801561001057600080fd5b506135a3806100206000396000f3fe60806040523480156200001157600080fd5b50600436106200002e5760003560e01c80630fdf72c91462000033575b600080fd5b620000a5600480360360608110156200004b57600080fd5b81019080803573ffffffffffffffffffffffffffffffffffffffff169060200190929190803573ffffffffffffffffffffffffffffffffffffffff169060200190929190803560ff169060200190929190505050620000a7565b005b6000838383620001fe8773ffffffffffffffffffffffffffffffffffffffff166306fdde036040518163ffffffff1660e01b815260040160006040518083038186803b158015620000f757600080fd5b505afa1580156200010c573d6000803e3d6000fd5b505050506040513d6000823e3d601f19601f8201168201806040525060208110156200013757600080fd5b81019080805160405193929190846401000000008211156200015857600080fd5b838201915060208201858111156200016f57600080fd5b82518660018202830111640100000000821117156200018d57600080fd5b8083526020830192505050908051906020019080838360005b83811015620001c3578082015181840152602081019050620001a6565b50505050905090810190601f168015620001f15780820380516001836020036101000a031916815260200191505b50604052505050620005d0565b620003508873ffffffffffffffffffffffffffffffffffffffff166395d89b416040518163ffffffff1660e01b815260040160006040518083038186803b1580156200024957600080fd5b505afa1580156200025e573d6000803e3d6000fd5b505050506040513d6000823e3d601f19601f8201168201806040525060208110156200028957600080fd5b8101908080516040519392919084640100000000821115620002aa57600080fd5b83820191506020820185811115620002c157600080fd5b8251866001820283011164010000000082111715620002df57600080fd5b8083526020830192505050908051906020019080838360005b8381101562000315578082015181840152602081019050620002f8565b50505050905090810190601f168015620003435780820380516001836020036101000a031916815260200191505b50604052505050620005d0565b8873ffffffffffffffffffffffffffffffffffffffff1663313ce5676040518163ffffffff1660e01b815260040160206040518083038186803b1580156200039757600080fd5b505afa158015620003ac573d6000803e3d6000fd5b505050506040513d6020811015620003c357600080fd5b810190808051906020019092919050505033604051620003e39062000696565b808873ffffffffffffffffffffffffffffffffffffffff1681526020018773ffffffffffffffffffffffffffffffffffffffff1681526020018660ff16815260200180602001806020018560ff1681526020018473ffffffffffffffffffffffffffffffffffffffff168152602001838103835287818151815260200191508051906020019080838360005b838110156200048c5780820151818401526020810190506200046f565b50505050905090810190601f168015620004ba5780820380516001836020036101000a031916815260200191505b50838103825286818151815260200191508051906020019080838360005b83811015620004f5578082015181840152602081019050620004d8565b50505050905090810190601f168015620005235780820380516001836020036101000a031916815260200191505b509950505050505050505050604051809103906000f0801580156200054c573d6000803e3d6000fd5b5090508373ffffffffffffffffffffffffffffffffffffffff163373ffffffffffffffffffffffffffffffffffffffff167f96e1ec1b8d456259bd967ece3fe6df750da935217c2c5a0c4078a72fc75f927a83604051808273ffffffffffffffffffffffffffffffffffffffff16815260200191505060405180910390a350505050565b60608160405160200180807f790000000000000000000000000000000000000000000000000000000000000081525060010182805190602001908083835b602083106200063357805182526020820191506020810190506020830392506200060e565b6001836020036101000a038019825116818451168082178552505050505050905001807f33640000000000000000000000000000000000000000000000000000000000008152506002019150506040516020818303038152906040529050919050565b612ec980620006a58339019056fe60806040523480156200001157600080fd5b5060405162002ec938038062002ec9833981810160405260e08110156200003757600080fd5b81019080805190602001909291908051906020019092919080519060200190929190805160405193929190846401000000008211156200007657600080fd5b838201915060208201858111156200008d57600080fd5b8251866001820283011164010000000082111715620000ab57600080fd5b8083526020830192505050908051906020019080838360005b83811015620000e1578082015181840152602081019050620000c4565b50505050905090810190601f1680156200010f5780820380516001836020036101000a031916815260200191505b50604052602001805160405193929190846401000000008211156200013357600080fd5b838201915060208201858111156200014a57600080fd5b82518660018202830111640100000000821117156200016857600080fd5b8083526020830192505050908051906020019080838360005b838110156200019e57808201518184015260208101905062000181565b50505050905090810190601f168015620001cc5780820380516001836020036101000a031916815260200191505b506040526020018051906020019092919080519060200190929190505050838383826003908051906020019062000205929190620005af565b5081600490805190602001906200021e929190620005af565b5080600560006101000a81548160ff021916908360ff16021790555050505086600660006101000a81548173ffffffffffffffffffffffffffffffffffffffff021916908373ffffffffffffffffffffffffffffffffffffffff16021790555085600760006101000a81548173ffffffffffffffffffffffffffffffffffffffff021916908373ffffffffffffffffffffffffffffffffffffffff1602179055506001600881905550620002da8160016200034360201b60201c565b84600960006101000a81548160ff021916908360ff16021790555080600560016101000a81548173ffffffffffffffffffffffffffffffffffffffff021916908373ffffffffffffffffffffffffffffffffffffffff1602179055505050505050505062000655565b600073ffffffffffffffffffffffffffffffffffffffff168273ffffffffffffffffffffffffffffffffffffffff161415620003e7576040517f08c379a000000000000000000000000000000000000000000000000000000000815260040180806020018281038252601f8152602001807f45524332303a206d696e7420746f20746865207a65726f20616464726573730081525060200191505060405180910390fd5b620003fb600083836200052160201b60201c565b62000417816002546200052660201b620018ba1790919060201c565b60028190555062000475816000808573ffffffffffffffffffffffffffffffffffffffff1673ffffffffffffffffffffffffffffffffffffffff168152602001908152602001600020546200052660201b620018ba1790919060201c565b6000808473ffffffffffffffffffffffffffffffffffffffff1673ffffffffffffffffffffffffffffffffffffffff168152602001908152602001600020819055508173ffffffffffffffffffffffffffffffffffffffff16600073ffffffffffffffffffffffffffffffffffffffff167fddf252ad1be2c89b69c2b068fc378daa952ba7f163c4a11628f55a4df523b3ef836040518082815260200191505060405180910390a35050565b505050565b600080828401905083811015620005a5576040517f08c379a000000000000000000000000000000000000000000000000000000000815260040180806020018281038252601b8152602001807f536166654d6174683a206164646974696f6e206f766572666c6f77000000000081525060200191505060405180910390fd5b8091505092915050565b828054600181600116156101000203166002900490600052602060002090601f016020900481019282601f10620005f257805160ff191683800117855562000623565b8280016001018555821562000623579182015b828111156200062257825182559160200191906001019062000605565b5b50905062000632919062000636565b5090565b5b808211156200065157600081600090555060010162000637565b5090565b61286480620006656000396000f3fe608060405234801561001057600080fd5b50600436106101735760003560e01c8063715018a6116100de578063b2bdfa7b11610097578063cb122a0911610071578063cb122a09146106d0578063dd62ed3e14610701578063de5f626814610779578063f2fde38b1461078357610173565b8063b2bdfa7b1461064d578063b6b55f2514610681578063c5b37c22146106af57610173565b8063715018a6146104c0578063853828b6146104ca57806395d89b41146104d4578063a457c2d714610557578063a694fc3a146105bb578063a9059cbb146105e957610173565b806328726bda1161013057806328726bda146103535780632e17de78146103875780632e1a7d4d146103b5578063313ce567146103e3578063395093511461040457806370a082311461046857610173565b806306fdde0314610178578063095ea7b3146101fb57806316f0115b1461025f57806318160ddd1461027d5780632024cf411461029b57806323b872dd146102cf575b600080fd5b6101806107c7565b6040518080602001828103825283818151815260200191508051906020019080838360005b838110156101c05780820151818401526020810190506101a5565b50505050905090810190601f1680156101ed5780820380516001836020036101000a031916815260200191505b509250505060405180910390f35b6102476004803603604081101561021157600080fd5b81019080803573ffffffffffffffffffffffffffffffffffffffff16906020019092919080359060200190929190505050610869565b60405180821515815260200191505060405180910390f35b610267610887565b6040518082815260200191505060405180910390f35b61028561088d565b6040518082815260200191505060405180910390f35b6102a3610897565b604051808273ffffffffffffffffffffffffffffffffffffffff16815260200191505060405180910390f35b61033b600480360360608110156102e557600080fd5b81019080803573ffffffffffffffffffffffffffffffffffffffff169060200190929190803573ffffffffffffffffffffffffffffffffffffffff169060200190929190803590602001909291905050506108bd565b60405180821515815260200191505060405180910390f35b61035b610996565b604051808273ffffffffffffffffffffffffffffffffffffffff16815260200191505060405180910390f35b6103b36004803603602081101561039d57600080fd5b81019080803590602001909291905050506109bc565b005b6103e1600480360360208110156103cb57600080fd5b8101908080359060200190929190505050610c00565b005b6103eb610ccf565b604051808260ff16815260200191505060405180910390f35b6104506004803603604081101561041a57600080fd5b81019080803573ffffffffffffffffffffffffffffffffffffffff16906020019092919080359060200190929190505050610ce6565b60405180821515815260200191505060405180910390f35b6104aa6004803603602081101561047e57600080fd5b81019080803573ffffffffffffffffffffffffffffffffffffffff169060200190929190505050610d99565b6040518082815260200191505060405180910390f35b6104c8610de1565b005b6104d2610f65565b005b6104dc6110fc565b6040518080602001828103825283818151815260200191508051906020019080838360005b8381101561051c578082015181840152602081019050610501565b50505050905090810190601f1680156105495780820380516001836020036101000a031916815260200191505b509250505060405180910390f35b6105a36004803603604081101561056d57600080fd5b81019080803573ffffffffffffffffffffffffffffffffffffffff1690602001909291908035906020019092919050505061119e565b60405180821515815260200191505060405180910390f35b6105e7600480360360208110156105d157600080fd5b810190808035906020019092919050505061126b565b005b610635600480360360408110156105ff57600080fd5b81019080803573ffffffffffffffffffffffffffffffffffffffff16906020019092919080359060200190929190505050611412565b60405180821515815260200191505060405180910390f35b610655611430565b604051808273ffffffffffffffffffffffffffffffffffffffff16815260200191505060405180910390f35b6106ad6004803603602081101561069757600080fd5b8101908080359060200190929190505050611456565b005b6106b7611462565b604051808260ff16815260200191505060405180910390f35b6106ff600480360360208110156106e657600080fd5b81019080803560ff169060200190929190505050611475565b005b6107636004803603604081101561071757600080fd5b81019080803573ffffffffffffffffffffffffffffffffffffffff169060200190929190803573ffffffffffffffffffffffffffffffffffffffff169060200190929190505050611556565b6040518082815260200191505060405180910390f35b6107816115dd565b005b6107c56004803603602081101561079957600080fd5b81019080803573ffffffffffffffffffffffffffffffffffffffff1690602001909291905050506116b1565b005b606060038054600181600116156101000203166002900480601f01602080910402602001604051908101604052809291908181526020018280546001816001161561010002031660029004801561085f5780601f106108345761010080835404028352916020019161085f565b820191906000526020600020905b81548152906001019060200180831161084257829003601f168201915b5050505050905090565b600061087d610876611942565b848461194a565b6001905092915050565b60085481565b6000600254905090565b600660009054906101000a900473ffffffffffffffffffffffffffffffffffffffff1681565b60006108ca848484611b41565b61098b846108d6611942565b6109868560405180606001604052806028815260200161272d60289139600160008b73ffffffffffffffffffffffffffffffffffffffff1673ffffffffffffffffffffffffffffffffffffffff168152602001908152602001600020600061093c611942565b73ffffffffffffffffffffffffffffffffffffffff1673ffffffffffffffffffffffffffffffffffffffff16815260200190815260200160002054611e029092919063ffffffff16565b61194a565b600190509392505050565b600760009054906101000a900473ffffffffffffffffffffffffffffffffffffffff1681565b60008111610a15576040517f08c379a00000000000000000000000000000000000000000000000000000000081526004018080602001828103825260258152602001806126566025913960400191505060405180910390fd5b6000600660009054906101000a900473ffffffffffffffffffffffffffffffffffffffff1690506000610a6c610a4961088d565b610a5e85600854611ec290919063ffffffff16565b611f4890919063ffffffff16565b9050610a783384611f92565b610a8d8160085461215690919063ffffffff16565b60088190555060008273ffffffffffffffffffffffffffffffffffffffff166370a08231306040518263ffffffff1660e01b8152600401808273ffffffffffffffffffffffffffffffffffffffff16815260200191505060206040518083038186803b158015610afc57600080fd5b505afa158015610b10573d6000803e3d6000fd5b505050506040513d6020811015610b2657600080fd5b8101908080519060200190929190505050905081811015610b4d57610b4c8183036121a0565b5b8273ffffffffffffffffffffffffffffffffffffffff1663a9059cbb33846040518363ffffffff1660e01b8152600401808373ffffffffffffffffffffffffffffffffffffffff16815260200182815260200192505050602060405180830381600087803b158015610bbe57600080fd5b505af1158015610bd2573d6000803e3d6000fd5b505050506040513d6020811015610be857600080fd5b81019080805190602001909291905050505050505050565b3373ffffffffffffffffffffffffffffffffffffffff16600560019054906101000a900473ffffffffffffffffffffffffffffffffffffffff1673ffffffffffffffffffffffffffffffffffffffff1614610cc3576040517f08c379a00000000000000000000000000000000000000000000000000000000081526004018080602001828103825260208152602001807f4f776e61626c653a2063616c6c6572206973206e6f7420746865206f776e657281525060200191505060405180910390fd5b610ccc816121a0565b50565b6000600560009054906101000a900460ff16905090565b6000610d8f610cf3611942565b84610d8a8560016000610d04611942565b73ffffffffffffffffffffffffffffffffffffffff1673ffffffffffffffffffffffffffffffffffffffff16815260200190815260200160002060008973ffffffffffffffffffffffffffffffffffffffff1673ffffffffffffffffffffffffffffffffffffffff168152602001908152602001600020546118ba90919063ffffffff16565b61194a565b6001905092915050565b60008060008373ffffffffffffffffffffffffffffffffffffffff1673ffffffffffffffffffffffffffffffffffffffff168152602001908152602001600020549050919050565b3373ffffffffffffffffffffffffffffffffffffffff16600560019054906101000a900473ffffffffffffffffffffffffffffffffffffffff1673ffffffffffffffffffffffffffffffffffffffff1614610ea4576040517f08c379a00000000000000000000000000000000000000000000000000000000081526004018080602001828103825260208152602001807f4f776e61626c653a2063616c6c6572206973206e6f7420746865206f776e657281525060200191505060405180910390fd5b600073ffffffffffffffffffffffffffffffffffffffff16600560019054906101000a900473ffffffffffffffffffffffffffffffffffffffff1673ffffffffffffffffffffffffffffffffffffffff167f8be0079c531659141344cd1fd0a4f28419497f9722a3daafe3b4186f6b6457e060405160405180910390a36000600560016101000a81548173ffffffffffffffffffffffffffffffffffffffff021916908373ffffffffffffffffffffffffffffffffffffffff160217905550565b3373ffffffffffffffffffffffffffffffffffffffff16600560019054906101000a900473ffffffffffffffffffffffffffffffffffffffff1673ffffffffffffffffffffffffffffffffffffffff1614611028576040517f08c379a00000000000000000000000000000000000000000000000000000000081526004018080602001828103825260208152602001807f4f776e61626c653a2063616c6c6572206973206e6f7420746865206f776e657281525060200191505060405180910390fd5b6000600760009054906101000a900473ffffffffffffffffffffffffffffffffffffffff1690506110f98173ffffffffffffffffffffffffffffffffffffffff166370a08231306040518263ffffffff1660e01b8152600401808273ffffffffffffffffffffffffffffffffffffffff16815260200191505060206040518083038186803b1580156110b957600080fd5b505afa1580156110cd573d6000803e3d6000fd5b505050506040513d60208110156110e357600080fd5b81019080805190602001909291905050506121a0565b50565b606060048054600181600116156101000203166002900480601f0160208091040260200160405190810160405280929190818152602001828054600181600116156101000203166002900480156111945780601f1061116957610100808354040283529160200191611194565b820191906000526020600020905b81548152906001019060200180831161117757829003601f168201915b5050505050905090565b60006112616111ab611942565b8461125c8560405180606001604052806025815260200161280a60259139600160006111d5611942565b73ffffffffffffffffffffffffffffffffffffffff1673ffffffffffffffffffffffffffffffffffffffff16815260200190815260200160002060008a73ffffffffffffffffffffffffffffffffffffffff1673ffffffffffffffffffffffffffffffffffffffff16815260200190815260200160002054611e029092919063ffffffff16565b61194a565b6001905092915050565b600081116112c4576040517f08c379a00000000000000000000000000000000000000000000000000000000081526004018080602001828103825260238152602001806126e96023913960400191505060405180910390fd5b6000600660009054906101000a900473ffffffffffffffffffffffffffffffffffffffff1690508073ffffffffffffffffffffffffffffffffffffffff166323b872dd3330856040518463ffffffff1660e01b8152600401808473ffffffffffffffffffffffffffffffffffffffff1681526020018373ffffffffffffffffffffffffffffffffffffffff1681526020018281526020019350505050602060405180830381600087803b15801561137a57600080fd5b505af115801561138e573d6000803e3d6000fd5b505050506040513d60208110156113a457600080fd5b81019080805190602001909291905050505060006113e66008546113d86113c961088d565b86611ec290919063ffffffff16565b611f4890919063ffffffff16565b90506113f2338261228f565b611407836008546118ba90919063ffffffff16565b600881905550505050565b600061142661141f611942565b8484611b41565b6001905092915050565b600560019054906101000a900473ffffffffffffffffffffffffffffffffffffffff1681565b61145f81612456565b50565b600960009054906101000a900460ff1681565b3373ffffffffffffffffffffffffffffffffffffffff16600560019054906101000a900473ffffffffffffffffffffffffffffffffffffffff1673ffffffffffffffffffffffffffffffffffffffff1614611538576040517f08c379a00000000000000000000000000000000000000000000000000000000081526004018080602001828103825260208152602001807f4f776e61626c653a2063616c6c6572206973206e6f7420746865206f776e657281525060200191505060405180910390fd5b80600960006101000a81548160ff021916908360ff16021790555050565b6000600160008473ffffffffffffffffffffffffffffffffffffffff1673ffffffffffffffffffffffffffffffffffffffff16815260200190815260200160002060008373ffffffffffffffffffffffffffffffffffffffff1673ffffffffffffffffffffffffffffffffffffffff16815260200190815260200160002054905092915050565b6000600660009054906101000a900473ffffffffffffffffffffffffffffffffffffffff1690506116ae8173ffffffffffffffffffffffffffffffffffffffff166370a08231306040518263ffffffff1660e01b8152600401808273ffffffffffffffffffffffffffffffffffffffff16815260200191505060206040518083038186803b15801561166e57600080fd5b505afa158015611682573d6000803e3d6000fd5b505050506040513d602081101561169857600080fd5b8101908080519060200190929190505050612456565b50565b3373ffffffffffffffffffffffffffffffffffffffff16600560019054906101000a900473ffffffffffffffffffffffffffffffffffffffff1673ffffffffffffffffffffffffffffffffffffffff1614611774576040517f08c379a00000000000000000000000000000000000000000000000000000000081526004018080602001828103825260208152602001807f4f776e61626c653a2063616c6c6572206973206e6f7420746865206f776e657281525060200191505060405180910390fd5b600073ffffffffffffffffffffffffffffffffffffffff168173ffffffffffffffffffffffffffffffffffffffff1614156117fa576040517f08c379a000000000000000000000000000000000000000000000000000000000815260040180806020018281038252602681526020018061267b6026913960400191505060405180910390fd5b8073ffffffffffffffffffffffffffffffffffffffff16600560019054906101000a900473ffffffffffffffffffffffffffffffffffffffff1673ffffffffffffffffffffffffffffffffffffffff167f8be0079c531659141344cd1fd0a4f28419497f9722a3daafe3b4186f6b6457e060405160405180910390a380600560016101000a81548173ffffffffffffffffffffffffffffffffffffffff021916908373ffffffffffffffffffffffffffffffffffffffff16021790555050565b600080828401905083811015611938576040517f08c379a000000000000000000000000000000000000000000000000000000000815260040180806020018281038252601b8152602001807f536166654d6174683a206164646974696f6e206f766572666c6f77000000000081525060200191505060405180910390fd5b8091505092915050565b600033905090565b600073ffffffffffffffffffffffffffffffffffffffff168373ffffffffffffffffffffffffffffffffffffffff1614156119d0576040517f08c379a00000000000000000000000000000000000000000000000000000000081526004018080602001828103825260248152602001806127e66024913960400191505060405180910390fd5b600073ffffffffffffffffffffffffffffffffffffffff168273ffffffffffffffffffffffffffffffffffffffff161415611a56576040517f08c379a00000000000000000000000000000000000000000000000000000000081526004018080602001828103825260228152602001806126a16022913960400191505060405180910390fd5b80600160008573ffffffffffffffffffffffffffffffffffffffff1673ffffffffffffffffffffffffffffffffffffffff16815260200190815260200160002060008473ffffffffffffffffffffffffffffffffffffffff1673ffffffffffffffffffffffffffffffffffffffff168152602001908152602001600020819055508173ffffffffffffffffffffffffffffffffffffffff168373ffffffffffffffffffffffffffffffffffffffff167f8c5be1e5ebec7d5bd14f71427d1e84f3dd0314c0f7b2291e5b200ac8c7c3b925836040518082815260200191505060405180910390a3505050565b600073ffffffffffffffffffffffffffffffffffffffff168373ffffffffffffffffffffffffffffffffffffffff161415611bc7576040517f08c379a00000000000000000000000000000000000000000000000000000000081526004018080602001828103825260258152602001806127c16025913960400191505060405180910390fd5b600073ffffffffffffffffffffffffffffffffffffffff168273ffffffffffffffffffffffffffffffffffffffff161415611c4d576040517f08c379a00000000000000000000000000000000000000000000000000000000081526004018080602001828103825260238152602001806126116023913960400191505060405180910390fd5b611c58838383612545565b611cc3816040518060600160405280602681526020016126c3602691396000808773ffffffffffffffffffffffffffffffffffffffff1673ffffffffffffffffffffffffffffffffffffffff16815260200190815260200160002054611e029092919063ffffffff16565b6000808573ffffffffffffffffffffffffffffffffffffffff1673ffffffffffffffffffffffffffffffffffffffff16815260200190815260200160002081905550611d56816000808573ffffffffffffffffffffffffffffffffffffffff1673ffffffffffffffffffffffffffffffffffffffff168152602001908152602001600020546118ba90919063ffffffff16565b6000808473ffffffffffffffffffffffffffffffffffffffff1673ffffffffffffffffffffffffffffffffffffffff168152602001908152602001600020819055508173ffffffffffffffffffffffffffffffffffffffff168373ffffffffffffffffffffffffffffffffffffffff167fddf252ad1be2c89b69c2b068fc378daa952ba7f163c4a11628f55a4df523b3ef836040518082815260200191505060405180910390a3505050565b6000838311158290611eaf576040517f08c379a00000000000000000000000000000000000000000000000000000000081526004018080602001828103825283818151815260200191508051906020019080838360005b83811015611e74578082015181840152602081019050611e59565b50505050905090810190601f168015611ea15780820380516001836020036101000a031916815260200191505b509250505060405180910390fd5b5060008385039050809150509392505050565b600080831415611ed55760009050611f42565b6000828402905082848281611ee657fe5b0414611f3d576040517f08c379a000000000000000000000000000000000000000000000000000000000815260040180806020018281038252602181526020018061270c6021913960400191505060405180910390fd5b809150505b92915050565b6000611f8a83836040518060400160405280601a81526020017f536166654d6174683a206469766973696f6e206279207a65726f00000000000081525061254a565b905092915050565b600073ffffffffffffffffffffffffffffffffffffffff168273ffffffffffffffffffffffffffffffffffffffff161415612018576040517f08c379a00000000000000000000000000000000000000000000000000000000081526004018080602001828103825260218152602001806127a06021913960400191505060405180910390fd5b61202482600083612545565b61208f81604051806060016040528060228152602001612634602291396000808673ffffffffffffffffffffffffffffffffffffffff1673ffffffffffffffffffffffffffffffffffffffff16815260200190815260200160002054611e029092919063ffffffff16565b6000808473ffffffffffffffffffffffffffffffffffffffff1673ffffffffffffffffffffffffffffffffffffffff168152602001908152602001600020819055506120e68160025461215690919063ffffffff16565b600281905550600073ffffffffffffffffffffffffffffffffffffffff168273ffffffffffffffffffffffffffffffffffffffff167fddf252ad1be2c89b69c2b068fc378daa952ba7f163c4a11628f55a4df523b3ef836040518082815260200191505060405180910390a35050565b600061219883836040518060400160405280601e81526020017f536166654d6174683a207375627472616374696f6e206f766572666c6f770000815250611e02565b905092915050565b600081116121f9576040517f08c379a000000000000000000000000000000000000000000000000000000000815260040180806020018281038252602681526020018061277a6026913960400191505060405180910390fd5b6000600760009054906101000a900473ffffffffffffffffffffffffffffffffffffffff1690508073ffffffffffffffffffffffffffffffffffffffff16632e1a7d4d836040518263ffffffff1660e01b815260040180828152602001915050600060405180830381600087803b15801561227357600080fd5b505af1158015612287573d6000803e3d6000fd5b505050505050565b600073ffffffffffffffffffffffffffffffffffffffff168273ffffffffffffffffffffffffffffffffffffffff161415612332576040517f08c379a000000000000000000000000000000000000000000000000000000000815260040180806020018281038252601f8152602001807f45524332303a206d696e7420746f20746865207a65726f20616464726573730081525060200191505060405180910390fd5b61233e60008383612545565b612353816002546118ba90919063ffffffff16565b6002819055506123aa816000808573ffffffffffffffffffffffffffffffffffffffff1673ffffffffffffffffffffffffffffffffffffffff168152602001908152602001600020546118ba90919063ffffffff16565b6000808473ffffffffffffffffffffffffffffffffffffffff1673ffffffffffffffffffffffffffffffffffffffff168152602001908152602001600020819055508173ffffffffffffffffffffffffffffffffffffffff16600073ffffffffffffffffffffffffffffffffffffffff167fddf252ad1be2c89b69c2b068fc378daa952ba7f163c4a11628f55a4df523b3ef836040518082815260200191505060405180910390a35050565b600081116124af576040517f08c379a00000000000000000000000000000000000000000000000000000000081526004018080602001828103825260258152602001806127556025913960400191505060405180910390fd5b6000600760009054906101000a900473ffffffffffffffffffffffffffffffffffffffff1690508073ffffffffffffffffffffffffffffffffffffffff1663b6b55f25836040518263ffffffff1660e01b815260040180828152602001915050600060405180830381600087803b15801561252957600080fd5b505af115801561253d573d6000803e3d6000fd5b505050505050565b505050565b600080831182906125f6576040517f08c379a00000000000000000000000000000000000000000000000000000000081526004018080602001828103825283818151815260200191508051906020019080838360005b838110156125bb5780820151818401526020810190506125a0565b50505050905090810190601f1680156125e85780820380516001836020036101000a031916815260200191505b509250505060405180910390fd5b50600083858161260257fe5b04905080915050939250505056fe45524332303a207472616e7366657220746f20746865207a65726f206164647265737345524332303a206275726e20616d6f756e7420657863656564732062616c616e6365756e7374616b6520736861726573206d7573742062652067726561746572207468616e20304f776e61626c653a206e6577206f776e657220697320746865207a65726f206164647265737345524332303a20617070726f766520746f20746865207a65726f206164647265737345524332303a207472616e7366657220616d6f756e7420657863656564732062616c616e63657374616b6520616d6f756e74206d7573742062652067726561746572207468616e2030536166654d6174683a206d756c7469706c69636174696f6e206f766572666c6f7745524332303a207472616e7366657220616d6f756e74206578636565647320616c6c6f77616e63656465706f73697420616d6f756e74206d7573742062652067726561746572207468616e2030776974686472617720616d6f756e74206d7573742062652067726561746572207468616e203045524332303a206275726e2066726f6d20746865207a65726f206164647265737345524332303a207472616e736665722066726f6d20746865207a65726f206164647265737345524332303a20617070726f76652066726f6d20746865207a65726f206164647265737345524332303a2064656372656173656420616c6c6f77616e63652062656c6f77207a65726fa264697066735822122020b09114020f20d3db575df670ce18c2361b7010edde5d47a8784a2a7b6719a964736f6c634300060c0033a2646970667358221220b642c28bf5726d706a74566d0cf98df7900d5bfa44370142b5baf63c1cad348564736f6c634300060c0033",
  "immutableReferences": {},
  "source": "// SPDX-License-Identifier: MIT\n\npragma solidity ^0.6.0;\n\n/*\n ___    ___ ________  ________\n |\\  \\  /  /|\\_____  \\|\\   ___ \\\n \\ \\  \\/  / \\|____|\\ /\\ \\  \\_|\\ \\\n  \\ \\    / /      \\|\\  \\ \\  \\ \\\\ \\\n   \\/  /  /      __\\_\\  \\ \\  \\_\\\\ \\\n __/  / /       |\\_______\\ \\_______\\\n|\\___/ /        \\|_______|\\|_______|\n\\|___|/\n                                    */\nimport \"./y_3dtoken.sol\";\n\ncontract y_3dFactory {\n\n    event y_3dTokenCreated(address indexed from, address indexed underlying_token, address yToken);\n\n    function y_3d(string memory _) internal pure returns (string memory) {\n        return string(abi.encodePacked('y', bytes(_), '3d'));\n    }\n\n    function create(address u, address yToken, uint8 fee) external {\n        address y = address(\n            new y_3dToken(\n                u, yToken, fee,\n                y_3d(IERC20(u).name()), y_3d(IERC20(u).symbol()),\n                IERC20(u).decimals(),\n                msg.sender\n            )\n        );\n        emit y_3dTokenCreated(msg.sender, u, y);\n    }\n}",
  "sourcePath": "/Users/minakokojima/Documents/GitHub/y3d-protocol-v2/contracts/y_3dfactory.sol",
  "compiler": {
    "name": "solc",
    "version": "0.6.12+commit.27d51765.Emscripten.clang"
  },
  "schemaVersion": "3.2.0",
  "updatedAt": "2020-10-12T02:38:51.677Z",
  "networkType": "ethereum",
  "devdoc": {
    "kind": "dev",
    "methods": {},
    "version": 1
  },
  "userdoc": {
    "kind": "user",
    "methods": {},
    "version": 1
  }
}