{
  "contractName": "y_3dFactory",
  "abi": [
    {
      "anonymous": false,
      "inputs": [
        {
          "indexed": true,
          "internalType": "address",
          "name": "from",
          "type": "address"
        },
        {
          "indexed": true,
          "internalType": "address",
          "name": "underlying_token",
          "type": "address"
        },
        {
          "indexed": false,
          "internalType": "address",
          "name": "yToken",
          "type": "address"
        }
      ],
      "name": "y_3dTokenCreated",
      "type": "event"
    },
    {
      "inputs": [
        {
          "internalType": "address",
          "name": "u",
          "type": "address"
        },
        {
          "internalType": "address",
          "name": "yToken",
          "type": "address"
        },
        {
          "internalType": "uint8",
          "name": "fee",
          "type": "uint8"
        }
      ],
      "name": "create",
      "outputs": [],
      "stateMutability": "nonpayable",
      "type": "function"
    }
  ],
  "bytecode": "0x608060405234801561001057600080fd5b50612e3f806100206000396000f3fe60806040523480156200001157600080fd5b50600436106200002e5760003560e01c80630fdf72c91462000033575b600080fd5b620000a5600480360360608110156200004b57600080fd5b81019080803573ffffffffffffffffffffffffffffffffffffffff169060200190929190803573ffffffffffffffffffffffffffffffffffffffff169060200190929190803560ff169060200190929190505050620000a7565b005b6000838383620001fe8773ffffffffffffffffffffffffffffffffffffffff166306fdde036040518163ffffffff1660e01b815260040160006040518083038186803b158015620000f757600080fd5b505afa1580156200010c573d6000803e3d6000fd5b505050506040513d6000823e3d601f19601f8201168201806040525060208110156200013757600080fd5b81019080805160405193929190846401000000008211156200015857600080fd5b838201915060208201858111156200016f57600080fd5b82518660018202830111640100000000821117156200018d57600080fd5b8083526020830192505050908051906020019080838360005b83811015620001c3578082015181840152602081019050620001a6565b50505050905090810190601f168015620001f15780820380516001836020036101000a031916815260200191505b5060405250505062000542565b620003508873ffffffffffffffffffffffffffffffffffffffff166395d89b416040518163ffffffff1660e01b815260040160006040518083038186803b1580156200024957600080fd5b505afa1580156200025e573d6000803e3d6000fd5b505050506040513d6000823e3d601f19601f8201168201806040525060208110156200028957600080fd5b8101908080516040519392919084640100000000821115620002aa57600080fd5b83820191506020820185811115620002c157600080fd5b8251866001820283011164010000000082111715620002df57600080fd5b8083526020830192505050908051906020019080838360005b8381101562000315578082015181840152602081019050620002f8565b50505050905090810190601f168015620003435780820380516001836020036101000a031916815260200191505b5060405250505062000542565b336040516200035f9062000608565b808773ffffffffffffffffffffffffffffffffffffffff1681526020018673ffffffffffffffffffffffffffffffffffffffff1681526020018560ff16815260200180602001806020018473ffffffffffffffffffffffffffffffffffffffff168152602001838103835286818151815260200191508051906020019080838360005b83811015620003ff578082015181840152602081019050620003e2565b50505050905090810190601f1680156200042d5780820380516001836020036101000a031916815260200191505b50838103825285818151815260200191508051906020019080838360005b83811015620004685780820151818401526020810190506200044b565b50505050905090810190601f168015620004965780820380516001836020036101000a031916815260200191505b5098505050505050505050604051809103906000f080158015620004be573d6000803e3d6000fd5b5090508373ffffffffffffffffffffffffffffffffffffffff163373ffffffffffffffffffffffffffffffffffffffff167f96e1ec1b8d456259bd967ece3fe6df750da935217c2c5a0c4078a72fc75f927a83604051808273ffffffffffffffffffffffffffffffffffffffff16815260200191505060405180910390a350505050565b60608160405160200180807f790000000000000000000000000000000000000000000000000000000000000081525060010182805190602001908083835b60208310620005a5578051825260208201915060208101905060208303925062000580565b6001836020036101000a038019825116818451168082178552505050505050905001807f33640000000000000000000000000000000000000000000000000000000000008152506002019150506040516020818303038152906040529050919050565b6127f380620006178339019056fe60806040523480156200001157600080fd5b50604051620027f3380380620027f3833981810160405260c08110156200003757600080fd5b81019080805190602001909291908051906020019092919080519060200190929190805160405193929190846401000000008211156200007657600080fd5b838201915060208201858111156200008d57600080fd5b8251866001820283011164010000000082111715620000ab57600080fd5b8083526020830192505050908051906020019080838360005b83811015620000e1578082015181840152602081019050620000c4565b50505050905090810190601f1680156200010f5780820380516001836020036101000a031916815260200191505b50604052602001805160405193929190846401000000008211156200013357600080fd5b838201915060208201858111156200014a57600080fd5b82518660018202830111640100000000821117156200016857600080fd5b8083526020830192505050908051906020019080838360005b838110156200019e57808201518184015260208101905062000181565b50505050905090810190601f168015620001cc5780820380516001836020036101000a031916815260200191505b506040526020018051906020019092919050505082828160039080519060200190620001fa929190620005a3565b50806004908051906020019062000213929190620005a3565b506012600560006101000a81548160ff021916908360ff160217905550505085600560016101000a81548173ffffffffffffffffffffffffffffffffffffffff021916908373ffffffffffffffffffffffffffffffffffffffff16021790555084600660006101000a81548173ffffffffffffffffffffffffffffffffffffffff021916908373ffffffffffffffffffffffffffffffffffffffff1602179055506001600781905550620002cf8160016200033760201b60201c565b83600860006101000a81548160ff021916908360ff16021790555080600860016101000a81548173ffffffffffffffffffffffffffffffffffffffff021916908373ffffffffffffffffffffffffffffffffffffffff16021790555050505050505062000649565b600073ffffffffffffffffffffffffffffffffffffffff168273ffffffffffffffffffffffffffffffffffffffff161415620003db576040517f08c379a000000000000000000000000000000000000000000000000000000000815260040180806020018281038252601f8152602001807f45524332303a206d696e7420746f20746865207a65726f20616464726573730081525060200191505060405180910390fd5b620003ef600083836200051560201b60201c565b6200040b816002546200051a60201b620012161790919060201c565b60028190555062000469816000808573ffffffffffffffffffffffffffffffffffffffff1673ffffffffffffffffffffffffffffffffffffffff168152602001908152602001600020546200051a60201b620012161790919060201c565b6000808473ffffffffffffffffffffffffffffffffffffffff1673ffffffffffffffffffffffffffffffffffffffff168152602001908152602001600020819055508173ffffffffffffffffffffffffffffffffffffffff16600073ffffffffffffffffffffffffffffffffffffffff167fddf252ad1be2c89b69c2b068fc378daa952ba7f163c4a11628f55a4df523b3ef836040518082815260200191505060405180910390a35050565b505050565b60008082840190508381101562000599576040517f08c379a000000000000000000000000000000000000000000000000000000000815260040180806020018281038252601b8152602001807f536166654d6174683a206164646974696f6e206f766572666c6f77000000000081525060200191505060405180910390fd5b8091505092915050565b828054600181600116156101000203166002900490600052602060002090601f016020900481019282601f10620005e657805160ff191683800117855562000617565b8280016001018555821562000617579182015b8281111562000616578251825591602001919060010190620005f9565b5b5090506200062691906200062a565b5090565b5b80821115620006455760008160009055506001016200062b565b5090565b61219a80620006596000396000f3fe608060405234801561001057600080fd5b50600436106101425760003560e01c806370a08231116100b8578063a694fc3a1161007c578063a694fc3a146105b4578063a9059cbb146105e2578063b6b55f2514610646578063c5b37c2214610674578063dd62ed3e14610695578063de5f62681461070d57610142565b806370a0823114610437578063853828b61461048f5780638da5cb5b1461049957806395d89b41146104cd578063a457c2d71461055057610142565b806323b872dd1161010a57806323b872dd1461029e57806328726bda146103225780632e17de78146103565780632e1a7d4d14610384578063313ce567146103b257806339509351146103d357610142565b806306fdde0314610147578063095ea7b3146101ca57806316f0115b1461022e57806318160ddd1461024c5780632024cf411461026a575b600080fd5b61014f610717565b6040518080602001828103825283818151815260200191508051906020019080838360005b8381101561018f578082015181840152602081019050610174565b50505050905090810190601f1680156101bc5780820380516001836020036101000a031916815260200191505b509250505060405180910390f35b610216600480360360408110156101e057600080fd5b81019080803573ffffffffffffffffffffffffffffffffffffffff169060200190929190803590602001909291905050506107b9565b60405180821515815260200191505060405180910390f35b6102366107d7565b6040518082815260200191505060405180910390f35b6102546107dd565b6040518082815260200191505060405180910390f35b6102726107e7565b604051808273ffffffffffffffffffffffffffffffffffffffff16815260200191505060405180910390f35b61030a600480360360608110156102b457600080fd5b81019080803573ffffffffffffffffffffffffffffffffffffffff169060200190929190803573ffffffffffffffffffffffffffffffffffffffff1690602001909291908035906020019092919050505061080d565b60405180821515815260200191505060405180910390f35b61032a6108e6565b604051808273ffffffffffffffffffffffffffffffffffffffff16815260200191505060405180910390f35b6103826004803603602081101561036c57600080fd5b810190808035906020019092919050505061090c565b005b6103b06004803603602081101561039a57600080fd5b8101908080359060200190929190505050610b50565b005b6103ba610b5c565b604051808260ff16815260200191505060405180910390f35b61041f600480360360408110156103e957600080fd5b81019080803573ffffffffffffffffffffffffffffffffffffffff16906020019092919080359060200190929190505050610b73565b60405180821515815260200191505060405180910390f35b6104796004803603602081101561044d57600080fd5b81019080803573ffffffffffffffffffffffffffffffffffffffff169060200190929190505050610c26565b6040518082815260200191505060405180910390f35b610497610c6e565b005b6104a1610d42565b604051808273ffffffffffffffffffffffffffffffffffffffff16815260200191505060405180910390f35b6104d5610d68565b6040518080602001828103825283818151815260200191508051906020019080838360005b838110156105155780820151818401526020810190506104fa565b50505050905090810190601f1680156105425780820380516001836020036101000a031916815260200191505b509250505060405180910390f35b61059c6004803603604081101561056657600080fd5b81019080803573ffffffffffffffffffffffffffffffffffffffff16906020019092919080359060200190929190505050610e0a565b60405180821515815260200191505060405180910390f35b6105e0600480360360208110156105ca57600080fd5b8101908080359060200190929190505050610ed7565b005b61062e600480360360408110156105f857600080fd5b81019080803573ffffffffffffffffffffffffffffffffffffffff1690602001909291908035906020019092919050505061107e565b60405180821515815260200191505060405180910390f35b6106726004803603602081101561065c57600080fd5b810190808035906020019092919050505061109c565b005b61067c6110a8565b604051808260ff16815260200191505060405180910390f35b6106f7600480360360408110156106ab57600080fd5b81019080803573ffffffffffffffffffffffffffffffffffffffff169060200190929190803573ffffffffffffffffffffffffffffffffffffffff1690602001909291905050506110bb565b6040518082815260200191505060405180910390f35b610715611142565b005b606060038054600181600116156101000203166002900480601f0160208091040260200160405190810160405280929190818152602001828054600181600116156101000203166002900480156107af5780601f10610784576101008083540402835291602001916107af565b820191906000526020600020905b81548152906001019060200180831161079257829003601f168201915b5050505050905090565b60006107cd6107c661129e565b84846112a6565b6001905092915050565b60075481565b6000600254905090565b600560019054906101000a900473ffffffffffffffffffffffffffffffffffffffff1681565b600061081a84848461149d565b6108db8461082661129e565b6108d68560405180606001604052806028815260200161206360289139600160008b73ffffffffffffffffffffffffffffffffffffffff1673ffffffffffffffffffffffffffffffffffffffff168152602001908152602001600020600061088c61129e565b73ffffffffffffffffffffffffffffffffffffffff1673ffffffffffffffffffffffffffffffffffffffff1681526020019081526020016000205461175e9092919063ffffffff16565b6112a6565b600190509392505050565b600660009054906101000a900473ffffffffffffffffffffffffffffffffffffffff1681565b60008111610965576040517f08c379a0000000000000000000000000000000000000000000000000000000008152600401808060200182810382526025815260200180611fb26025913960400191505060405180910390fd5b6000600560019054906101000a900473ffffffffffffffffffffffffffffffffffffffff16905060006109bc6109996107dd565b6109ae8560075461181e90919063ffffffff16565b6118a490919063ffffffff16565b90506109c833846118ee565b6109dd81600754611ab290919063ffffffff16565b60078190555060008273ffffffffffffffffffffffffffffffffffffffff166370a08231306040518263ffffffff1660e01b8152600401808273ffffffffffffffffffffffffffffffffffffffff16815260200191505060206040518083038186803b158015610a4c57600080fd5b505afa158015610a60573d6000803e3d6000fd5b505050506040513d6020811015610a7657600080fd5b8101908080519060200190929190505050905081811015610a9d57610a9c818303611afc565b5b8273ffffffffffffffffffffffffffffffffffffffff1663a9059cbb33846040518363ffffffff1660e01b8152600401808373ffffffffffffffffffffffffffffffffffffffff16815260200182815260200192505050602060405180830381600087803b158015610b0e57600080fd5b505af1158015610b22573d6000803e3d6000fd5b505050506040513d6020811015610b3857600080fd5b81019080805190602001909291905050505050505050565b610b5981611afc565b50565b6000600560009054906101000a900460ff16905090565b6000610c1c610b8061129e565b84610c178560016000610b9161129e565b73ffffffffffffffffffffffffffffffffffffffff1673ffffffffffffffffffffffffffffffffffffffff16815260200190815260200160002060008973ffffffffffffffffffffffffffffffffffffffff1673ffffffffffffffffffffffffffffffffffffffff1681526020019081526020016000205461121690919063ffffffff16565b6112a6565b6001905092915050565b60008060008373ffffffffffffffffffffffffffffffffffffffff1673ffffffffffffffffffffffffffffffffffffffff168152602001908152602001600020549050919050565b6000600660009054906101000a900473ffffffffffffffffffffffffffffffffffffffff169050610d3f8173ffffffffffffffffffffffffffffffffffffffff166370a08231306040518263ffffffff1660e01b8152600401808273ffffffffffffffffffffffffffffffffffffffff16815260200191505060206040518083038186803b158015610cff57600080fd5b505afa158015610d13573d6000803e3d6000fd5b505050506040513d6020811015610d2957600080fd5b8101908080519060200190929190505050611afc565b50565b600860019054906101000a900473ffffffffffffffffffffffffffffffffffffffff1681565b606060048054600181600116156101000203166002900480601f016020809104026020016040519081016040528092919081815260200182805460018160011615610100020316600290048015610e005780601f10610dd557610100808354040283529160200191610e00565b820191906000526020600020905b815481529060010190602001808311610de357829003601f168201915b5050505050905090565b6000610ecd610e1761129e565b84610ec8856040518060600160405280602581526020016121406025913960016000610e4161129e565b73ffffffffffffffffffffffffffffffffffffffff1673ffffffffffffffffffffffffffffffffffffffff16815260200190815260200160002060008a73ffffffffffffffffffffffffffffffffffffffff1673ffffffffffffffffffffffffffffffffffffffff1681526020019081526020016000205461175e9092919063ffffffff16565b6112a6565b6001905092915050565b60008111610f30576040517f08c379a000000000000000000000000000000000000000000000000000000000815260040180806020018281038252602381526020018061201f6023913960400191505060405180910390fd5b6000600560019054906101000a900473ffffffffffffffffffffffffffffffffffffffff1690508073ffffffffffffffffffffffffffffffffffffffff166323b872dd3330856040518463ffffffff1660e01b8152600401808473ffffffffffffffffffffffffffffffffffffffff1681526020018373ffffffffffffffffffffffffffffffffffffffff1681526020018281526020019350505050602060405180830381600087803b158015610fe657600080fd5b505af1158015610ffa573d6000803e3d6000fd5b505050506040513d602081101561101057600080fd5b81019080805190602001909291905050505060006110526007546110446110356107dd565b8661181e90919063ffffffff16565b6118a490919063ffffffff16565b905061105e3382611beb565b6110738360075461121690919063ffffffff16565b600781905550505050565b600061109261108b61129e565b848461149d565b6001905092915050565b6110a581611db2565b50565b600860009054906101000a900460ff1681565b6000600160008473ffffffffffffffffffffffffffffffffffffffff1673ffffffffffffffffffffffffffffffffffffffff16815260200190815260200160002060008373ffffffffffffffffffffffffffffffffffffffff1673ffffffffffffffffffffffffffffffffffffffff16815260200190815260200160002054905092915050565b6000600560019054906101000a900473ffffffffffffffffffffffffffffffffffffffff1690506112138173ffffffffffffffffffffffffffffffffffffffff166370a08231306040518263ffffffff1660e01b8152600401808273ffffffffffffffffffffffffffffffffffffffff16815260200191505060206040518083038186803b1580156111d357600080fd5b505afa1580156111e7573d6000803e3d6000fd5b505050506040513d60208110156111fd57600080fd5b8101908080519060200190929190505050611db2565b50565b600080828401905083811015611294576040517f08c379a000000000000000000000000000000000000000000000000000000000815260040180806020018281038252601b8152602001807f536166654d6174683a206164646974696f6e206f766572666c6f77000000000081525060200191505060405180910390fd5b8091505092915050565b600033905090565b600073ffffffffffffffffffffffffffffffffffffffff168373ffffffffffffffffffffffffffffffffffffffff16141561132c576040517f08c379a000000000000000000000000000000000000000000000000000000000815260040180806020018281038252602481526020018061211c6024913960400191505060405180910390fd5b600073ffffffffffffffffffffffffffffffffffffffff168273ffffffffffffffffffffffffffffffffffffffff1614156113b2576040517f08c379a0000000000000000000000000000000000000000000000000000000008152600401808060200182810382526022815260200180611fd76022913960400191505060405180910390fd5b80600160008573ffffffffffffffffffffffffffffffffffffffff1673ffffffffffffffffffffffffffffffffffffffff16815260200190815260200160002060008473ffffffffffffffffffffffffffffffffffffffff1673ffffffffffffffffffffffffffffffffffffffff168152602001908152602001600020819055508173ffffffffffffffffffffffffffffffffffffffff168373ffffffffffffffffffffffffffffffffffffffff167f8c5be1e5ebec7d5bd14f71427d1e84f3dd0314c0f7b2291e5b200ac8c7c3b925836040518082815260200191505060405180910390a3505050565b600073ffffffffffffffffffffffffffffffffffffffff168373ffffffffffffffffffffffffffffffffffffffff161415611523576040517f08c379a00000000000000000000000000000000000000000000000000000000081526004018080602001828103825260258152602001806120f76025913960400191505060405180910390fd5b600073ffffffffffffffffffffffffffffffffffffffff168273ffffffffffffffffffffffffffffffffffffffff1614156115a9576040517f08c379a0000000000000000000000000000000000000000000000000000000008152600401808060200182810382526023815260200180611f6d6023913960400191505060405180910390fd5b6115b4838383611ea1565b61161f81604051806060016040528060268152602001611ff9602691396000808773ffffffffffffffffffffffffffffffffffffffff1673ffffffffffffffffffffffffffffffffffffffff1681526020019081526020016000205461175e9092919063ffffffff16565b6000808573ffffffffffffffffffffffffffffffffffffffff1673ffffffffffffffffffffffffffffffffffffffff168152602001908152602001600020819055506116b2816000808573ffffffffffffffffffffffffffffffffffffffff1673ffffffffffffffffffffffffffffffffffffffff1681526020019081526020016000205461121690919063ffffffff16565b6000808473ffffffffffffffffffffffffffffffffffffffff1673ffffffffffffffffffffffffffffffffffffffff168152602001908152602001600020819055508173ffffffffffffffffffffffffffffffffffffffff168373ffffffffffffffffffffffffffffffffffffffff167fddf252ad1be2c89b69c2b068fc378daa952ba7f163c4a11628f55a4df523b3ef836040518082815260200191505060405180910390a3505050565b600083831115829061180b576040517f08c379a00000000000000000000000000000000000000000000000000000000081526004018080602001828103825283818151815260200191508051906020019080838360005b838110156117d05780820151818401526020810190506117b5565b50505050905090810190601f1680156117fd5780820380516001836020036101000a031916815260200191505b509250505060405180910390fd5b5060008385039050809150509392505050565b600080831415611831576000905061189e565b600082840290508284828161184257fe5b0414611899576040517f08c379a00000000000000000000000000000000000000000000000000000000081526004018080602001828103825260218152602001806120426021913960400191505060405180910390fd5b809150505b92915050565b60006118e683836040518060400160405280601a81526020017f536166654d6174683a206469766973696f6e206279207a65726f000000000000815250611ea6565b905092915050565b600073ffffffffffffffffffffffffffffffffffffffff168273ffffffffffffffffffffffffffffffffffffffff161415611974576040517f08c379a00000000000000000000000000000000000000000000000000000000081526004018080602001828103825260218152602001806120d66021913960400191505060405180910390fd5b61198082600083611ea1565b6119eb81604051806060016040528060228152602001611f90602291396000808673ffffffffffffffffffffffffffffffffffffffff1673ffffffffffffffffffffffffffffffffffffffff1681526020019081526020016000205461175e9092919063ffffffff16565b6000808473ffffffffffffffffffffffffffffffffffffffff1673ffffffffffffffffffffffffffffffffffffffff16815260200190815260200160002081905550611a4281600254611ab290919063ffffffff16565b600281905550600073ffffffffffffffffffffffffffffffffffffffff168273ffffffffffffffffffffffffffffffffffffffff167fddf252ad1be2c89b69c2b068fc378daa952ba7f163c4a11628f55a4df523b3ef836040518082815260200191505060405180910390a35050565b6000611af483836040518060400160405280601e81526020017f536166654d6174683a207375627472616374696f6e206f766572666c6f77000081525061175e565b905092915050565b60008111611b55576040517f08c379a00000000000000000000000000000000000000000000000000000000081526004018080602001828103825260268152602001806120b06026913960400191505060405180910390fd5b6000600660009054906101000a900473ffffffffffffffffffffffffffffffffffffffff1690508073ffffffffffffffffffffffffffffffffffffffff16632e1a7d4d836040518263ffffffff1660e01b815260040180828152602001915050600060405180830381600087803b158015611bcf57600080fd5b505af1158015611be3573d6000803e3d6000fd5b505050505050565b600073ffffffffffffffffffffffffffffffffffffffff168273ffffffffffffffffffffffffffffffffffffffff161415611c8e576040517f08c379a000000000000000000000000000000000000000000000000000000000815260040180806020018281038252601f8152602001807f45524332303a206d696e7420746f20746865207a65726f20616464726573730081525060200191505060405180910390fd5b611c9a60008383611ea1565b611caf8160025461121690919063ffffffff16565b600281905550611d06816000808573ffffffffffffffffffffffffffffffffffffffff1673ffffffffffffffffffffffffffffffffffffffff1681526020019081526020016000205461121690919063ffffffff16565b6000808473ffffffffffffffffffffffffffffffffffffffff1673ffffffffffffffffffffffffffffffffffffffff168152602001908152602001600020819055508173ffffffffffffffffffffffffffffffffffffffff16600073ffffffffffffffffffffffffffffffffffffffff167fddf252ad1be2c89b69c2b068fc378daa952ba7f163c4a11628f55a4df523b3ef836040518082815260200191505060405180910390a35050565b60008111611e0b576040517f08c379a000000000000000000000000000000000000000000000000000000000815260040180806020018281038252602581526020018061208b6025913960400191505060405180910390fd5b6000600660009054906101000a900473ffffffffffffffffffffffffffffffffffffffff1690508073ffffffffffffffffffffffffffffffffffffffff1663b6b55f25836040518263ffffffff1660e01b815260040180828152602001915050600060405180830381600087803b158015611e8557600080fd5b505af1158015611e99573d6000803e3d6000fd5b505050505050565b505050565b60008083118290611f52576040517f08c379a00000000000000000000000000000000000000000000000000000000081526004018080602001828103825283818151815260200191508051906020019080838360005b83811015611f17578082015181840152602081019050611efc565b50505050905090810190601f168015611f445780820380516001836020036101000a031916815260200191505b509250505060405180910390fd5b506000838581611f5e57fe5b04905080915050939250505056fe45524332303a207472616e7366657220746f20746865207a65726f206164647265737345524332303a206275726e20616d6f756e7420657863656564732062616c616e6365756e7374616b6520736861726573206d7573742062652067726561746572207468616e203045524332303a20617070726f766520746f20746865207a65726f206164647265737345524332303a207472616e7366657220616d6f756e7420657863656564732062616c616e63657374616b6520616d6f756e74206d7573742062652067726561746572207468616e2030536166654d6174683a206d756c7469706c69636174696f6e206f766572666c6f7745524332303a207472616e7366657220616d6f756e74206578636565647320616c6c6f77616e63656465706f73697420616d6f756e74206d7573742062652067726561746572207468616e2030776974686472617720616d6f756e74206d7573742062652067726561746572207468616e203045524332303a206275726e2066726f6d20746865207a65726f206164647265737345524332303a207472616e736665722066726f6d20746865207a65726f206164647265737345524332303a20617070726f76652066726f6d20746865207a65726f206164647265737345524332303a2064656372656173656420616c6c6f77616e63652062656c6f77207a65726fa2646970667358221220604245bc5050e5579afcba9ba518eb131ea79cc7434d3fb2058ce2e32022af2a64736f6c634300060c0033a264697066735822122017aef89d98e26e0cea7cd25e9943c49b34435f8fe35cf397e94c798f89625a4e64736f6c634300060c0033",
  "immutableReferences": {},
  "source": "// SPDX-License-Identifier: MIT\n\npragma solidity ^0.6.0;\n\n/*\n ___    ___ ________  ________\n |\\  \\  /  /|\\_____  \\|\\   ___ \\\n \\ \\  \\/  / \\|____|\\ /\\ \\  \\_|\\ \\\n  \\ \\    / /      \\|\\  \\ \\  \\ \\\\ \\\n   \\/  /  /      __\\_\\  \\ \\  \\_\\\\ \\\n __/  / /       |\\_______\\ \\_______\\\n|\\___/ /        \\|_______|\\|_______|\n\\|___|/\n                                    */\nimport \"./y_3dtoken.sol\";\n\ncontract y_3dFactory {\n\n    event y_3dTokenCreated(address indexed from, address indexed underlying_token, address yToken);\n\n    function y_3d(string memory _) internal pure returns (string memory) {\n        return string(abi.encodePacked('y', bytes(_), '3d'));\n    }\n\n    function create(address u, address yToken, uint8 fee) external {\n        address y = address(\n            new y_3dToken(\n                u, yToken, fee,\n                y_3d(IERC20(u).name()), y_3d(IERC20(u).symbol()),\n                msg.sender\n            )\n        );\n        emit y_3dTokenCreated(msg.sender, u, y);\n    }\n}",
  "sourcePath": "/Users/minakokojima/Documents/GitHub/y3d-protocol-v2/contracts/y_3dfactory.sol",
  "compiler": {
    "name": "solc",
    "version": "0.6.12+commit.27d51765.Emscripten.clang"
  },
  "schemaVersion": "3.2.0",
  "updatedAt": "2020-09-18T01:37:31.536Z",
  "devdoc": {
    "kind": "dev",
    "methods": {},
    "version": 1
  },
  "userdoc": {
    "kind": "user",
    "methods": {},
    "version": 1
  }
}