{
  "contractName": "yUniswap_ETH_USDT_LP",
  "abi": [
    {
      "inputs": [],
      "stateMutability": "nonpayable",
      "type": "constructor"
    },
    {
      "anonymous": false,
      "inputs": [
        {
          "indexed": true,
          "internalType": "address",
          "name": "owner",
          "type": "address"
        },
        {
          "indexed": true,
          "internalType": "address",
          "name": "spender",
          "type": "address"
        },
        {
          "indexed": false,
          "internalType": "uint256",
          "name": "value",
          "type": "uint256"
        }
      ],
      "name": "Approval",
      "type": "event"
    },
    {
      "anonymous": false,
      "inputs": [
        {
          "indexed": true,
          "internalType": "address",
          "name": "previousOwner",
          "type": "address"
        },
        {
          "indexed": true,
          "internalType": "address",
          "name": "newOwner",
          "type": "address"
        }
      ],
      "name": "OwnershipTransferred",
      "type": "event"
    },
    {
      "anonymous": false,
      "inputs": [
        {
          "indexed": true,
          "internalType": "address",
          "name": "from",
          "type": "address"
        },
        {
          "indexed": true,
          "internalType": "address",
          "name": "to",
          "type": "address"
        },
        {
          "indexed": false,
          "internalType": "uint256",
          "name": "value",
          "type": "uint256"
        }
      ],
      "name": "Transfer",
      "type": "event"
    },
    {
      "inputs": [],
      "name": "S",
      "outputs": [
        {
          "internalType": "contract IERC20",
          "name": "",
          "type": "address"
        }
      ],
      "stateMutability": "view",
      "type": "function"
    },
    {
      "inputs": [],
      "name": "T",
      "outputs": [
        {
          "internalType": "contract IERC20",
          "name": "",
          "type": "address"
        }
      ],
      "stateMutability": "view",
      "type": "function"
    },
    {
      "inputs": [],
      "name": "UNISWAP_1",
      "outputs": [
        {
          "internalType": "address",
          "name": "",
          "type": "address"
        }
      ],
      "stateMutability": "view",
      "type": "function"
    },
    {
      "inputs": [],
      "name": "UNISWAP_2",
      "outputs": [
        {
          "internalType": "address",
          "name": "",
          "type": "address"
        }
      ],
      "stateMutability": "view",
      "type": "function"
    },
    {
      "inputs": [],
      "name": "UNISWAP_3",
      "outputs": [
        {
          "internalType": "address",
          "name": "",
          "type": "address"
        }
      ],
      "stateMutability": "view",
      "type": "function"
    },
    {
      "inputs": [],
      "name": "USDT",
      "outputs": [
        {
          "internalType": "address",
          "name": "",
          "type": "address"
        }
      ],
      "stateMutability": "view",
      "type": "function"
    },
    {
      "inputs": [],
      "name": "WETH",
      "outputs": [
        {
          "internalType": "contract IERC20",
          "name": "",
          "type": "address"
        }
      ],
      "stateMutability": "view",
      "type": "function"
    },
    {
      "inputs": [
        {
          "internalType": "address",
          "name": "owner",
          "type": "address"
        },
        {
          "internalType": "address",
          "name": "spender",
          "type": "address"
        }
      ],
      "name": "allowance",
      "outputs": [
        {
          "internalType": "uint256",
          "name": "",
          "type": "uint256"
        }
      ],
      "stateMutability": "view",
      "type": "function"
    },
    {
      "inputs": [],
      "name": "alpha",
      "outputs": [
        {
          "internalType": "bool",
          "name": "",
          "type": "bool"
        }
      ],
      "stateMutability": "view",
      "type": "function"
    },
    {
      "inputs": [
        {
          "internalType": "address",
          "name": "spender",
          "type": "address"
        },
        {
          "internalType": "uint256",
          "name": "amount",
          "type": "uint256"
        }
      ],
      "name": "approve",
      "outputs": [
        {
          "internalType": "bool",
          "name": "",
          "type": "bool"
        }
      ],
      "stateMutability": "nonpayable",
      "type": "function"
    },
    {
      "inputs": [
        {
          "internalType": "address",
          "name": "account",
          "type": "address"
        }
      ],
      "name": "balanceOf",
      "outputs": [
        {
          "internalType": "uint256",
          "name": "",
          "type": "uint256"
        }
      ],
      "stateMutability": "view",
      "type": "function"
    },
    {
      "inputs": [],
      "name": "beta",
      "outputs": [
        {
          "internalType": "bool",
          "name": "",
          "type": "bool"
        }
      ],
      "stateMutability": "view",
      "type": "function"
    },
    {
      "inputs": [],
      "name": "decimals",
      "outputs": [
        {
          "internalType": "uint8",
          "name": "",
          "type": "uint8"
        }
      ],
      "stateMutability": "view",
      "type": "function"
    },
    {
      "inputs": [
        {
          "internalType": "address",
          "name": "spender",
          "type": "address"
        },
        {
          "internalType": "uint256",
          "name": "subtractedValue",
          "type": "uint256"
        }
      ],
      "name": "decreaseAllowance",
      "outputs": [
        {
          "internalType": "bool",
          "name": "",
          "type": "bool"
        }
      ],
      "stateMutability": "nonpayable",
      "type": "function"
    },
    {
      "inputs": [
        {
          "internalType": "address",
          "name": "spender",
          "type": "address"
        },
        {
          "internalType": "uint256",
          "name": "addedValue",
          "type": "uint256"
        }
      ],
      "name": "increaseAllowance",
      "outputs": [
        {
          "internalType": "bool",
          "name": "",
          "type": "bool"
        }
      ],
      "stateMutability": "nonpayable",
      "type": "function"
    },
    {
      "inputs": [],
      "name": "isOwner",
      "outputs": [
        {
          "internalType": "bool",
          "name": "",
          "type": "bool"
        }
      ],
      "stateMutability": "view",
      "type": "function"
    },
    {
      "inputs": [],
      "name": "miner",
      "outputs": [
        {
          "internalType": "address",
          "name": "",
          "type": "address"
        }
      ],
      "stateMutability": "view",
      "type": "function"
    },
    {
      "inputs": [],
      "name": "name",
      "outputs": [
        {
          "internalType": "string",
          "name": "",
          "type": "string"
        }
      ],
      "stateMutability": "view",
      "type": "function"
    },
    {
      "inputs": [],
      "name": "owner",
      "outputs": [
        {
          "internalType": "address",
          "name": "",
          "type": "address"
        }
      ],
      "stateMutability": "view",
      "type": "function"
    },
    {
      "inputs": [],
      "name": "pool",
      "outputs": [
        {
          "internalType": "uint256",
          "name": "",
          "type": "uint256"
        }
      ],
      "stateMutability": "view",
      "type": "function"
    },
    {
      "inputs": [],
      "name": "renounceOwnership",
      "outputs": [],
      "stateMutability": "nonpayable",
      "type": "function"
    },
    {
      "inputs": [],
      "name": "symbol",
      "outputs": [
        {
          "internalType": "string",
          "name": "",
          "type": "string"
        }
      ],
      "stateMutability": "view",
      "type": "function"
    },
    {
      "inputs": [],
      "name": "totalSupply",
      "outputs": [
        {
          "internalType": "uint256",
          "name": "",
          "type": "uint256"
        }
      ],
      "stateMutability": "view",
      "type": "function"
    },
    {
      "inputs": [
        {
          "internalType": "address",
          "name": "recipient",
          "type": "address"
        },
        {
          "internalType": "uint256",
          "name": "amount",
          "type": "uint256"
        }
      ],
      "name": "transfer",
      "outputs": [
        {
          "internalType": "bool",
          "name": "",
          "type": "bool"
        }
      ],
      "stateMutability": "nonpayable",
      "type": "function"
    },
    {
      "inputs": [
        {
          "internalType": "address",
          "name": "sender",
          "type": "address"
        },
        {
          "internalType": "address",
          "name": "recipient",
          "type": "address"
        },
        {
          "internalType": "uint256",
          "name": "amount",
          "type": "uint256"
        }
      ],
      "name": "transferFrom",
      "outputs": [
        {
          "internalType": "bool",
          "name": "",
          "type": "bool"
        }
      ],
      "stateMutability": "nonpayable",
      "type": "function"
    },
    {
      "inputs": [
        {
          "internalType": "address",
          "name": "newOwner",
          "type": "address"
        }
      ],
      "name": "transferOwnership",
      "outputs": [],
      "stateMutability": "nonpayable",
      "type": "function"
    },
    {
      "inputs": [],
      "name": "unimint",
      "outputs": [
        {
          "internalType": "address",
          "name": "",
          "type": "address"
        }
      ],
      "stateMutability": "view",
      "type": "function"
    },
    {
      "inputs": [],
      "name": "uniswap",
      "outputs": [
        {
          "internalType": "address",
          "name": "",
          "type": "address"
        }
      ],
      "stateMutability": "view",
      "type": "function"
    },
    {
      "inputs": [],
      "name": "y3d",
      "outputs": [
        {
          "internalType": "contract IERC20",
          "name": "",
          "type": "address"
        }
      ],
      "stateMutability": "view",
      "type": "function"
    },
    {
      "inputs": [],
      "name": "y3d_threhold",
      "outputs": [
        {
          "internalType": "uint256",
          "name": "",
          "type": "uint256"
        }
      ],
      "stateMutability": "view",
      "type": "function"
    },
    {
      "inputs": [],
      "name": "mining",
      "outputs": [
        {
          "internalType": "uint256",
          "name": "",
          "type": "uint256"
        }
      ],
      "stateMutability": "view",
      "type": "function"
    },
    {
      "inputs": [
        {
          "internalType": "address",
          "name": "account",
          "type": "address"
        }
      ],
      "name": "fee",
      "outputs": [
        {
          "internalType": "uint8",
          "name": "",
          "type": "uint8"
        }
      ],
      "stateMutability": "view",
      "type": "function"
    },
    {
      "inputs": [
        {
          "internalType": "uint256",
          "name": "_amount",
          "type": "uint256"
        }
      ],
      "name": "stake",
      "outputs": [],
      "stateMutability": "nonpayable",
      "type": "function"
    },
    {
      "inputs": [
        {
          "internalType": "uint256",
          "name": "_shares",
          "type": "uint256"
        }
      ],
      "name": "unstake",
      "outputs": [],
      "stateMutability": "nonpayable",
      "type": "function"
    },
    {
      "inputs": [],
      "name": "recycle",
      "outputs": [],
      "stateMutability": "nonpayable",
      "type": "function"
    },
    {
      "inputs": [
        {
          "internalType": "uint256",
          "name": "_y3d_threhold",
          "type": "uint256"
        }
      ],
      "name": "change_y3d_threhold",
      "outputs": [],
      "stateMutability": "nonpayable",
      "type": "function"
    },
    {
      "inputs": [
        {
          "internalType": "address",
          "name": "account",
          "type": "address"
        },
        {
          "internalType": "uint8",
          "name": "_fee",
          "type": "uint8"
        }
      ],
      "name": "setFees",
      "outputs": [],
      "stateMutability": "nonpayable",
      "type": "function"
    },
    {
      "inputs": [
        {
          "internalType": "address",
          "name": "uni",
          "type": "address"
        }
      ],
      "name": "set_UNISWAP_1",
      "outputs": [],
      "stateMutability": "nonpayable",
      "type": "function"
    },
    {
      "inputs": [
        {
          "internalType": "address",
          "name": "uni",
          "type": "address"
        }
      ],
      "name": "set_UNISWAP_2",
      "outputs": [],
      "stateMutability": "nonpayable",
      "type": "function"
    },
    {
      "inputs": [
        {
          "internalType": "address",
          "name": "uni",
          "type": "address"
        }
      ],
      "name": "set_UNISWAP_3",
      "outputs": [],
      "stateMutability": "nonpayable",
      "type": "function"
    },
    {
      "inputs": [
        {
          "internalType": "address",
          "name": "uni",
          "type": "address"
        }
      ],
      "name": "set_UNIMINT",
      "outputs": [],
      "stateMutability": "nonpayable",
      "type": "function"
    },
    {
      "inputs": [],
      "name": "allIn",
      "outputs": [],
      "stateMutability": "nonpayable",
      "type": "function"
    },
    {
      "inputs": [
        {
          "internalType": "uint16",
          "name": "ratio",
          "type": "uint16"
        }
      ],
      "name": "rebalance",
      "outputs": [],
      "stateMutability": "nonpayable",
      "type": "function"
    },
    {
      "inputs": [],
      "name": "harvest_to_uniswap",
      "outputs": [],
      "stateMutability": "nonpayable",
      "type": "function"
    },
    {
      "inputs": [],
      "name": "harvest_and_mint",
      "outputs": [],
      "stateMutability": "nonpayable",
      "type": "function"
    },
    {
      "inputs": [],
      "name": "endAlpha",
      "outputs": [],
      "stateMutability": "nonpayable",
      "type": "function"
    },
    {
      "inputs": [],
      "name": "endBeta",
      "outputs": [],
      "stateMutability": "nonpayable",
      "type": "function"
    },
    {
      "inputs": [],
      "name": "withdraw_S",
      "outputs": [],
      "stateMutability": "nonpayable",
      "type": "function"
    },
    {
      "inputs": [],
      "name": "withdraw_T",
      "outputs": [],
      "stateMutability": "nonpayable",
      "type": "function"
    },
    {
      "inputs": [],
      "name": "harvest_beta",
      "outputs": [],
      "stateMutability": "nonpayable",
      "type": "function"
    }
  ],
  "bytecode": "0x6080604052731f9840a85d5af5bf1d1762f925bdaddc4201f984600960006101000a81548173ffffffffffffffffffffffffffffffffffffffff021916908373ffffffffffffffffffffffffffffffffffffffff16021790555073c02aaa39b223fe8d0a0e5c4f27ead9083c756cc2600a60006101000a81548173ffffffffffffffffffffffffffffffffffffffff021916908373ffffffffffffffffffffffffffffffffffffffff160217905550730d4a11d5eeaac28ec3f61d100daf4d40471f1852600b60006101000a81548173ffffffffffffffffffffffffffffffffffffffff021916908373ffffffffffffffffffffffffffffffffffffffff160217905550662386f26fc10000600d556001600f60006101000a81548160ff0219169083151502179055506001600f60016101000a81548160ff0219169083151502179055503480156200015157600080fd5b506040518060400160405280601481526020017f79556e69737761702d4554482d555344542d4c500000000000000000000000008152506040518060400160405280601481526020017f79556e69737761702d4554482d555344542d4c500000000000000000000000008152508160039080519060200190620001d6929190620005f1565b508060049080519060200190620001ef929190620005f1565b506012600560006101000a81548160ff021916908360ff16021790555050506001600681905550736465f1250c9fe162602db83791fc3fb202d70a7b600760006101000a81548173ffffffffffffffffffffffffffffffffffffffff021916908373ffffffffffffffffffffffffffffffffffffffff160217905550600760009054906101000a900473ffffffffffffffffffffffffffffffffffffffff1673ffffffffffffffffffffffffffffffffffffffff16600073ffffffffffffffffffffffffffffffffffffffff167f8be0079c531659141344cd1fd0a4f28419497f9722a3daafe3b4186f6b6457e060405160405180910390a36001600c8190555062000303336001620003e560201b60201c565b730d4a11d5eeaac28ec3f61d100daf4d40471f185273ffffffffffffffffffffffffffffffffffffffff1663095ea7b3736c3e4cb2e96b01f4b866965a91ed4437839a121a7fffffffffffffffffffffffffffffffffffffffffffffffffffffffffffffffff6040518363ffffffff1660e01b81526004016200038892919062000780565b602060405180830381600087803b158015620003a357600080fd5b505af1158015620003b8573d6000803e3d6000fd5b505050506040513d601f19601f82011682018060405250810190620003de9190620006ae565b5062000883565b600073ffffffffffffffffffffffffffffffffffffffff168273ffffffffffffffffffffffffffffffffffffffff16141562000458576040517f08c379a00000000000000000000000000000000000000000000000000000000081526004016200044f90620007cf565b60405180910390fd5b6200046c600083836200059460201b60201c565b62000488816002546200059960201b62002ffe1790919060201c565b600281905550620004e6816000808573ffffffffffffffffffffffffffffffffffffffff1673ffffffffffffffffffffffffffffffffffffffff168152602001908152602001600020546200059960201b62002ffe1790919060201c565b6000808473ffffffffffffffffffffffffffffffffffffffff1673ffffffffffffffffffffffffffffffffffffffff168152602001908152602001600020819055508173ffffffffffffffffffffffffffffffffffffffff16600073ffffffffffffffffffffffffffffffffffffffff167fddf252ad1be2c89b69c2b068fc378daa952ba7f163c4a11628f55a4df523b3ef83604051620005889190620007f1565b60405180910390a35050565b505050565b600080828401905083811015620005e7576040517f08c379a0000000000000000000000000000000000000000000000000000000008152600401620005de90620007ad565b60405180910390fd5b8091505092915050565b828054600181600116156101000203166002900490600052602060002090601f016020900481019282601f106200063457805160ff191683800117855562000665565b8280016001018555821562000665579182015b828111156200066457825182559160200191906001019062000647565b5b50905062000674919062000678565b5090565b5b808211156200069357600081600090555060010162000679565b5090565b600081519050620006a88162000869565b92915050565b600060208284031215620006c157600080fd5b6000620006d18482850162000697565b91505092915050565b620006e5816200081f565b82525050565b6000620006fa601b836200080e565b91507f536166654d6174683a206164646974696f6e206f766572666c6f7700000000006000830152602082019050919050565b60006200073c601f836200080e565b91507f45524332303a206d696e7420746f20746865207a65726f2061646472657373006000830152602082019050919050565b6200077a816200085f565b82525050565b6000604082019050620007976000830185620006da565b620007a660208301846200076f565b9392505050565b60006020820190508181036000830152620007c881620006eb565b9050919050565b60006020820190508181036000830152620007ea816200072d565b9050919050565b60006020820190506200080860008301846200076f565b92915050565b600082825260208201905092915050565b60006200082c826200083f565b9050919050565b60008115159050919050565b600073ffffffffffffffffffffffffffffffffffffffff82169050919050565b6000819050919050565b620008748162000833565b81146200088057600080fd5b50565b61522780620008936000396000f3fe608060405234801561001057600080fd5b50600436106102d65760003560e01c806381c4797b11610182578063b841749b116100e9578063dd62ed3e116100a2578063eb5023da1161007c578063eb5023da14610809578063eeaa207e14610827578063ef0f6b6214610845578063f2fde38b1461084f576102d6565b8063dd62ed3e1461079f578063de942bee146107cf578063e716cbfe146107ed576102d6565b8063b841749b14610703578063b93b592b1461071f578063c54e44eb1461073b578063da12f0e114610759578063da58181d14610763578063db1d0fd514610781576102d6565b80639faa3c911161013b5780639faa3c911461062f578063a0d1c5b11461064d578063a457c2d714610669578063a694fc3a14610699578063a9059cbb146106b5578063ad5c4648146106e5576102d6565b806381c4797b146105a55780638cf760b8146105af5780638da5cb5b146105b95780638f32d59b146105d7578063937f39e8146105f557806395d89b4114610611576102d6565b80632e17de781161024157806351de59a4116101fa5780636b201549116101d45780636b201549146105315780636fcca69b1461053b57806370a082311461056b578063715018a61461059b576102d6565b806351de59a4146104db578063662fac39146104f757806366346a5c14610515576102d6565b80632e17de7814610417578063313ce56714610433578063326b174514610451578063349dc3291461046f578063395093511461048d5780634be1c796146104bd576102d6565b806318160ddd1161029357806318160ddd1461037957806322cb8acd1461039757806323b872dd146103a15780632681f7e4146103d157806327f07daa146103ef5780632bc80f3a146103f9576102d6565b806306d4eea4146102db57806306fdde03146102e5578063095ea7b3146103035780630f23cbaa1461033357806311585c8e1461033d57806316f0115b1461035b575b600080fd5b6102e361086b565b005b6102ed610a08565b6040516102fa9190614bd9565b60405180910390f35b61031d600480360381019061031891906140a4565b610aaa565b60405161032a9190614ba3565b60405180910390f35b61033b610ac8565b005b610345610b8f565b6040516103529190614bbe565b60405180910390f35b610363610ba7565b6040516103709190614edb565b60405180910390f35b610381610bad565b60405161038e9190614edb565b60405180910390f35b61039f610bb7565b005b6103bb60048036038101906103b69190614055565b610c1b565b6040516103c89190614ba3565b60405180910390f35b6103d9610cf4565b6040516103e69190614a91565b60405180910390f35b6103f7610d0c565b005b610401610ea9565b60405161040e9190614bbe565b60405180910390f35b610431600480360381019061042c919061416e565b610ec1565b005b61043b61115a565b6040516104489190614f50565b60405180910390f35b610459611171565b6040516104669190614a91565b60405180910390f35b610477611197565b6040516104849190614a91565b60405180910390f35b6104a760048036038101906104a291906140a4565b6111af565b6040516104b49190614ba3565b60405180910390f35b6104c5611262565b6040516104d29190614bbe565b60405180910390f35b6104f560048036038101906104f09190613ff0565b61127a565b005b6104ff6113e9565b60405161050c9190614edb565b60405180910390f35b61052f600480360381019061052a9190614145565b61148d565b005b6105396116c2565b005b61055560048036038101906105509190613ff0565b611726565b6040516105629190614f50565b60405180910390f35b61058560048036038101906105809190613ff0565b611860565b6040516105929190614edb565b60405180910390f35b6105a36118a8565b005b6105ad6119b0565b005b6105b7611bc1565b005b6105c1611d49565b6040516105ce9190614a91565b60405180910390f35b6105df611d73565b6040516105ec9190614ba3565b60405180910390f35b61060f600480360381019061060a91906140e0565b611dd2565b005b610619611e75565b6040516106269190614bd9565b60405180910390f35b610637611f17565b6040516106449190614ba3565b60405180910390f35b61066760048036038101906106629190613ff0565b611f2a565b005b610683600480360381019061067e91906140a4565b611fb5565b6040516106909190614ba3565b60405180910390f35b6106b360048036038101906106ae919061416e565b612082565b005b6106cf60048036038101906106ca91906140a4565b6121c4565b6040516106dc9190614ba3565b60405180910390f35b6106ed6121e2565b6040516106fa9190614bbe565b60405180910390f35b61071d60048036038101906107189190613ff0565b6121fa565b005b6107396004803603810190610734919061416e565b612285565b005b6107436122d6565b6040516107509190614a91565b60405180910390f35b6107616122ee565b005b61076b612800565b6040516107789190614a91565b60405180910390f35b610789612826565b6040516107969190614ba3565b60405180910390f35b6107b960048036038101906107b49190614019565b612839565b6040516107c69190614edb565b60405180910390f35b6107d76128c0565b6040516107e49190614a91565b60405180910390f35b61080760048036038101906108029190613ff0565b6128e6565b005b610811612971565b60405161081e9190614a91565b60405180910390f35b61082f612997565b60405161083c9190614edb565b60405180910390f35b61084d61299d565b005b61086960048036038101906108649190613ff0565b612fab565b005b60011515600f60009054906101000a900460ff161515146108c1576040517f08c379a00000000000000000000000000000000000000000000000000000000081526004016108b890614e1b565b60405180910390fd5b731f9840a85d5af5bf1d1762f925bdaddc4201f98473ffffffffffffffffffffffffffffffffffffffff1663a9059cbb6108f9611d49565b731f9840a85d5af5bf1d1762f925bdaddc4201f98473ffffffffffffffffffffffffffffffffffffffff166370a08231306040518263ffffffff1660e01b81526004016109469190614a91565b60206040518083038186803b15801561095e57600080fd5b505afa158015610972573d6000803e3d6000fd5b505050506040513d601f19601f820116820180604052508101906109969190614197565b6040518363ffffffff1660e01b81526004016109b3929190614b7a565b602060405180830381600087803b1580156109cd57600080fd5b505af11580156109e1573d6000803e3d6000fd5b505050506040513d601f19601f82011682018060405250810190610a05919061411c565b50565b606060038054600181600116156101000203166002900480601f016020809104026020016040519081016040528092919081815260200182805460018160011615610100020316600290048015610aa05780601f10610a7557610100808354040283529160200191610aa0565b820191906000526020600020905b815481529060010190602001808311610a8357829003601f168201915b5050505050905090565b6000610abe610ab7613053565b848461305b565b6001905092915050565b610b8d610b88600c546001610adb6113e9565b730d4a11d5eeaac28ec3f61d100daf4d40471f185273ffffffffffffffffffffffffffffffffffffffff166370a08231306040518263ffffffff1660e01b8152600401610b289190614a91565b60206040518083038186803b158015610b4057600080fd5b505afa158015610b54573d6000803e3d6000fd5b505050506040513d601f19601f82011682018060405250810190610b789190614197565b010161322690919063ffffffff16565b613270565b565b73c7fd9ae2cf8542d71186877e21107e1f3a0b55ef81565b600c5481565b6000600254905090565b610bbf611d73565b610bfe576040517f08c379a0000000000000000000000000000000000000000000000000000000008152600401610bf590614d7b565b60405180910390fd5b6000600f60006101000a81548160ff021916908315150217905550565b6000610c288484846132d1565b610ce984610c34613053565b610ce4856040518060600160405280602881526020016151a560289139600160008b73ffffffffffffffffffffffffffffffffffffffff1673ffffffffffffffffffffffffffffffffffffffff1681526020019081526020016000206000610c9a613053565b73ffffffffffffffffffffffffffffffffffffffff1673ffffffffffffffffffffffffffffffffffffffff168152602001908152602001600020546135669092919063ffffffff16565b61305b565b600190509392505050565b737a250d5630b4cf539739df2c5dacb4c659f2488d81565b60011515600f60009054906101000a900460ff16151514610d62576040517f08c379a0000000000000000000000000000000000000000000000000000000008152600401610d5990614e1b565b60405180910390fd5b730d4a11d5eeaac28ec3f61d100daf4d40471f185273ffffffffffffffffffffffffffffffffffffffff1663a9059cbb610d9a611d49565b730d4a11d5eeaac28ec3f61d100daf4d40471f185273ffffffffffffffffffffffffffffffffffffffff166370a08231306040518263ffffffff1660e01b8152600401610de79190614a91565b60206040518083038186803b158015610dff57600080fd5b505afa158015610e13573d6000803e3d6000fd5b505050506040513d601f19601f82011682018060405250810190610e379190614197565b6040518363ffffffff1660e01b8152600401610e54929190614b7a565b602060405180830381600087803b158015610e6e57600080fd5b505af1158015610e82573d6000803e3d6000fd5b505050506040513d601f19601f82011682018060405250810190610ea6919061411c565b50565b731f9840a85d5af5bf1d1762f925bdaddc4201f98481565b60016006600082825401925050819055506000600654905060008211610f1c576040517f08c379a0000000000000000000000000000000000000000000000000000000008152600401610f1390614c1b565b60405180910390fd5b6000610f4c610f29610bad565b610f3e85600c546135c190919063ffffffff16565b61363190919063ffffffff16565b9050610f58338461367b565b610f6d81600c5461322690919063ffffffff16565b600c81905550610fb7610fa86103e8610f9a610f8833611726565b60ff16856135c190919063ffffffff16565b61363190919063ffffffff16565b8261322690919063ffffffff16565b90506000730d4a11d5eeaac28ec3f61d100daf4d40471f185273ffffffffffffffffffffffffffffffffffffffff166370a08231306040518263ffffffff1660e01b81526004016110089190614a91565b60206040518083038186803b15801561102057600080fd5b505afa158015611034573d6000803e3d6000fd5b505050506040513d601f19601f820116820180604052508101906110589190614197565b90508181101561106e5761106d818303613829565b5b730d4a11d5eeaac28ec3f61d100daf4d40471f185273ffffffffffffffffffffffffffffffffffffffff1663a9059cbb33846040518363ffffffff1660e01b81526004016110bd929190614ae3565b602060405180830381600087803b1580156110d757600080fd5b505af11580156110eb573d6000803e3d6000fd5b505050506040513d601f19601f8201168201806040525081019061110f919061411c565b5050506006548114611156576040517f08c379a000000000000000000000000000000000000000000000000000000000815260040161114d90614e5b565b60405180910390fd5b5050565b6000600560009054906101000a900460ff16905090565b600860009054906101000a900473ffffffffffffffffffffffffffffffffffffffff1681565b736c3e4cb2e96b01f4b866965a91ed4437839a121a81565b60006112586111bc613053565b8461125385600160006111cd613053565b73ffffffffffffffffffffffffffffffffffffffff1673ffffffffffffffffffffffffffffffffffffffff16815260200190815260200160002060008973ffffffffffffffffffffffffffffffffffffffff1673ffffffffffffffffffffffffffffffffffffffff16815260200190815260200160002054612ffe90919063ffffffff16565b61305b565b6001905092915050565b730d4a11d5eeaac28ec3f61d100daf4d40471f185281565b611282611d73565b6112c1576040517f08c379a00000000000000000000000000000000000000000000000000000000081526004016112b890614d7b565b60405180910390fd5b80600860006101000a81548173ffffffffffffffffffffffffffffffffffffffff021916908373ffffffffffffffffffffffffffffffffffffffff16021790555073c02aaa39b223fe8d0a0e5c4f27ead9083c756cc273ffffffffffffffffffffffffffffffffffffffff1663095ea7b3600860009054906101000a900473ffffffffffffffffffffffffffffffffffffffff167fffffffffffffffffffffffffffffffffffffffffffffffffffffffffffffffff6040518363ffffffff1660e01b8152600401611393929190614b7a565b602060405180830381600087803b1580156113ad57600080fd5b505af11580156113c1573d6000803e3d6000fd5b505050506040513d601f19601f820116820180604052508101906113e5919061411c565b5050565b6000736c3e4cb2e96b01f4b866965a91ed4437839a121a73ffffffffffffffffffffffffffffffffffffffff166370a08231306040518263ffffffff1660e01b81526004016114389190614a91565b60206040518083038186803b15801561145057600080fd5b505afa158015611464573d6000803e3d6000fd5b505050506040513d601f19601f820116820180604052508101906114889190614197565b905090565b600d5473c7fd9ae2cf8542d71186877e21107e1f3a0b55ef73ffffffffffffffffffffffffffffffffffffffff166370a08231336040518263ffffffff1660e01b81526004016114dd9190614a91565b60206040518083038186803b1580156114f557600080fd5b505afa158015611509573d6000803e3d6000fd5b505050506040513d601f19601f8201168201806040525081019061152d9190614197565b101561156e576040517f08c379a000000000000000000000000000000000000000000000000000000000815260040161156590614d1b565b60405180910390fd5b6103e88161ffff1611156115b7576040517f08c379a00000000000000000000000000000000000000000000000000000000081526004016115ae90614cfb565b60405180910390fd5b6000730d4a11d5eeaac28ec3f61d100daf4d40471f185273ffffffffffffffffffffffffffffffffffffffff166370a08231306040518263ffffffff1660e01b81526004016116069190614a91565b60206040518083038186803b15801561161e57600080fd5b505afa158015611632573d6000803e3d6000fd5b505050506040513d601f19601f820116820180604052508101906116569190614197565b905060006116626113e9565b9050600081830190506116966103e86116888661ffff16846135c190919063ffffffff16565b61363190919063ffffffff16565b9050818111156116b0576116ab8282036138ab565b6116bc565b6116bb818303613829565b5b50505050565b6116ca611d73565b611709576040517f08c379a000000000000000000000000000000000000000000000000000000000815260040161170090614d7b565b60405180910390fd5b6000600f60016101000a81548160ff021916908315150217905550565b600080600e60008473ffffffffffffffffffffffffffffffffffffffff1673ffffffffffffffffffffffffffffffffffffffff16815260200190815260200160002060009054906101000a900460ff1660ff161415611788576032905061185b565b7fffffffffffffffffffffffffffffffffffffffffffffffffffffffffffffffff60ff16600e60008473ffffffffffffffffffffffffffffffffffffffff1673ffffffffffffffffffffffffffffffffffffffff16815260200190815260200160002060009054906101000a900460ff1660ff16141561180b576000905061185b565b600e60008373ffffffffffffffffffffffffffffffffffffffff1673ffffffffffffffffffffffffffffffffffffffff16815260200190815260200160002060009054906101000a900460ff1690505b919050565b60008060008373ffffffffffffffffffffffffffffffffffffffff1673ffffffffffffffffffffffffffffffffffffffff168152602001908152602001600020549050919050565b6118b0611d73565b6118ef576040517f08c379a00000000000000000000000000000000000000000000000000000000081526004016118e690614d7b565b60405180910390fd5b600073ffffffffffffffffffffffffffffffffffffffff16600760009054906101000a900473ffffffffffffffffffffffffffffffffffffffff1673ffffffffffffffffffffffffffffffffffffffff167f8be0079c531659141344cd1fd0a4f28419497f9722a3daafe3b4186f6b6457e060405160405180910390a36000600760006101000a81548173ffffffffffffffffffffffffffffffffffffffff021916908373ffffffffffffffffffffffffffffffffffffffff160217905550565b60011515600f60019054906101000a900460ff16151514611a06576040517f08c379a00000000000000000000000000000000000000000000000000000000081526004016119fd90614cdb565b60405180910390fd5b736c3e4cb2e96b01f4b866965a91ed4437839a121a73ffffffffffffffffffffffffffffffffffffffff16633d18b9126040518163ffffffff1660e01b8152600401600060405180830381600087803b158015611a6257600080fd5b505af1158015611a76573d6000803e3d6000fd5b50505050731f9840a85d5af5bf1d1762f925bdaddc4201f98473ffffffffffffffffffffffffffffffffffffffff1663a9059cbb611ab2611d49565b731f9840a85d5af5bf1d1762f925bdaddc4201f98473ffffffffffffffffffffffffffffffffffffffff166370a08231306040518263ffffffff1660e01b8152600401611aff9190614a91565b60206040518083038186803b158015611b1757600080fd5b505afa158015611b2b573d6000803e3d6000fd5b505050506040513d601f19601f82011682018060405250810190611b4f9190614197565b6040518363ffffffff1660e01b8152600401611b6c929190614b7a565b602060405180830381600087803b158015611b8657600080fd5b505af1158015611b9a573d6000803e3d6000fd5b505050506040513d601f19601f82011682018060405250810190611bbe919061411c565b50565b600d5473c7fd9ae2cf8542d71186877e21107e1f3a0b55ef73ffffffffffffffffffffffffffffffffffffffff166370a08231336040518263ffffffff1660e01b8152600401611c119190614a91565b60206040518083038186803b158015611c2957600080fd5b505afa158015611c3d573d6000803e3d6000fd5b505050506040513d601f19601f82011682018060405250810190611c619190614197565b1015611ca2576040517f08c379a0000000000000000000000000000000000000000000000000000000008152600401611c9990614d1b565b60405180910390fd5b611d47730d4a11d5eeaac28ec3f61d100daf4d40471f185273ffffffffffffffffffffffffffffffffffffffff166370a08231306040518263ffffffff1660e01b8152600401611cf29190614a91565b60206040518083038186803b158015611d0a57600080fd5b505afa158015611d1e573d6000803e3d6000fd5b505050506040513d601f19601f82011682018060405250810190611d429190614197565b6138ab565b565b6000600760009054906101000a900473ffffffffffffffffffffffffffffffffffffffff16905090565b6000600760009054906101000a900473ffffffffffffffffffffffffffffffffffffffff1673ffffffffffffffffffffffffffffffffffffffff16611db6613053565b73ffffffffffffffffffffffffffffffffffffffff1614905090565b611dda611d73565b611e19576040517f08c379a0000000000000000000000000000000000000000000000000000000008152600401611e1090614d7b565b60405180910390fd5b80600e60008473ffffffffffffffffffffffffffffffffffffffff1673ffffffffffffffffffffffffffffffffffffffff16815260200190815260200160002060006101000a81548160ff021916908360ff1602179055505050565b606060048054600181600116156101000203166002900480601f016020809104026020016040519081016040528092919081815260200182805460018160011615610100020316600290048015611f0d5780601f10611ee257610100808354040283529160200191611f0d565b820191906000526020600020905b815481529060010190602001808311611ef057829003601f168201915b5050505050905090565b600f60019054906101000a900460ff1681565b611f32611d73565b611f71576040517f08c379a0000000000000000000000000000000000000000000000000000000008152600401611f6890614d7b565b60405180910390fd5b80600960006101000a81548173ffffffffffffffffffffffffffffffffffffffff021916908373ffffffffffffffffffffffffffffffffffffffff16021790555050565b6000612078611fc2613053565b84612073856040518060600160405280602581526020016151cd6025913960016000611fec613053565b73ffffffffffffffffffffffffffffffffffffffff1673ffffffffffffffffffffffffffffffffffffffff16815260200190815260200160002060008a73ffffffffffffffffffffffffffffffffffffffff1673ffffffffffffffffffffffffffffffffffffffff168152602001908152602001600020546135669092919063ffffffff16565b61305b565b6001905092915050565b600081116120c5576040517f08c379a00000000000000000000000000000000000000000000000000000000081526004016120bc90614cbb565b60405180910390fd5b730d4a11d5eeaac28ec3f61d100daf4d40471f185273ffffffffffffffffffffffffffffffffffffffff166323b872dd3330846040518463ffffffff1660e01b815260040161211693929190614aac565b602060405180830381600087803b15801561213057600080fd5b505af1158015612144573d6000803e3d6000fd5b505050506040513d601f19601f82011682018060405250810190612168919061411c565b506000612199600c5461218b61217c610bad565b856135c190919063ffffffff16565b61363190919063ffffffff16565b90506121a5338261392d565b6121ba82600c54612ffe90919063ffffffff16565b600c819055505050565b60006121d86121d1613053565b84846132d1565b6001905092915050565b73c02aaa39b223fe8d0a0e5c4f27ead9083c756cc281565b612202611d73565b612241576040517f08c379a000000000000000000000000000000000000000000000000000000000815260040161223890614d7b565b60405180910390fd5b80600a60006101000a81548173ffffffffffffffffffffffffffffffffffffffff021916908373ffffffffffffffffffffffffffffffffffffffff16021790555050565b61228d611d73565b6122cc576040517f08c379a00000000000000000000000000000000000000000000000000000000081526004016122c390614d7b565b60405180910390fd5b80600d8190555050565b73dac17f958d2ee523a2206206994597c13d831ec781565b600d5473c7fd9ae2cf8542d71186877e21107e1f3a0b55ef73ffffffffffffffffffffffffffffffffffffffff166370a08231336040518263ffffffff1660e01b815260040161233e9190614a91565b60206040518083038186803b15801561235657600080fd5b505afa15801561236a573d6000803e3d6000fd5b505050506040513d601f19601f8201168201806040525081019061238e9190614197565b10156123cf576040517f08c379a00000000000000000000000000000000000000000000000000000000081526004016123c690614d1b565b60405180910390fd5b736c3e4cb2e96b01f4b866965a91ed4437839a121a73ffffffffffffffffffffffffffffffffffffffff16633d18b9126040518163ffffffff1660e01b8152600401600060405180830381600087803b15801561242b57600080fd5b505af115801561243f573d6000803e3d6000fd5b505050506000731f9840a85d5af5bf1d1762f925bdaddc4201f98473ffffffffffffffffffffffffffffffffffffffff166370a08231306040518263ffffffff1660e01b81526004016124929190614a91565b60206040518083038186803b1580156124aa57600080fd5b505afa1580156124be573d6000803e3d6000fd5b505050506040513d601f19601f820116820180604052508101906124e29190614197565b905060008111612527576040517f08c379a000000000000000000000000000000000000000000000000000000000815260040161251e90614d5b565b60405180910390fd5b61257b737a250d5630b4cf539739df2c5dacb4c659f2488d6000731f9840a85d5af5bf1d1762f925bdaddc4201f98473ffffffffffffffffffffffffffffffffffffffff16613ac19092919063ffffffff16565b6125ce737a250d5630b4cf539739df2c5dacb4c659f2488d82731f9840a85d5af5bf1d1762f925bdaddc4201f98473ffffffffffffffffffffffffffffffffffffffff16613ac19092919063ffffffff16565b6060600367ffffffffffffffff811180156125e857600080fd5b506040519080825280602002602001820160405280156126175781602001602082028036833780820191505090505b509050600960009054906101000a900473ffffffffffffffffffffffffffffffffffffffff168160008151811061264a57fe5b602002602001019073ffffffffffffffffffffffffffffffffffffffff16908173ffffffffffffffffffffffffffffffffffffffff1681525050600a60009054906101000a900473ffffffffffffffffffffffffffffffffffffffff16816001815181106126b457fe5b602002602001019073ffffffffffffffffffffffffffffffffffffffff16908173ffffffffffffffffffffffffffffffffffffffff1681525050600b60009054906101000a900473ffffffffffffffffffffffffffffffffffffffff168160028151811061271e57fe5b602002602001019073ffffffffffffffffffffffffffffffffffffffff16908173ffffffffffffffffffffffffffffffffffffffff1681525050737a250d5630b4cf539739df2c5dacb4c659f2488d73ffffffffffffffffffffffffffffffffffffffff166338ed173983600084306127a261070842612ffe90919063ffffffff16565b6040518663ffffffff1660e01b81526004016127c2959493929190614ef6565b600060405180830381600087803b1580156127dc57600080fd5b505af11580156127f0573d6000803e3d6000fd5b505050506127fc610ac8565b5050565b600a60009054906101000a900473ffffffffffffffffffffffffffffffffffffffff1681565b600f60009054906101000a900460ff1681565b6000600160008473ffffffffffffffffffffffffffffffffffffffff1673ffffffffffffffffffffffffffffffffffffffff16815260200190815260200160002060008373ffffffffffffffffffffffffffffffffffffffff1673ffffffffffffffffffffffffffffffffffffffff16815260200190815260200160002054905092915050565b600960009054906101000a900473ffffffffffffffffffffffffffffffffffffffff1681565b6128ee611d73565b61292d576040517f08c379a000000000000000000000000000000000000000000000000000000000815260040161292490614d7b565b60405180910390fd5b80600b60006101000a81548173ffffffffffffffffffffffffffffffffffffffff021916908373ffffffffffffffffffffffffffffffffffffffff16021790555050565b600b60009054906101000a900473ffffffffffffffffffffffffffffffffffffffff1681565b600d5481565b600d5473c7fd9ae2cf8542d71186877e21107e1f3a0b55ef73ffffffffffffffffffffffffffffffffffffffff166370a08231336040518263ffffffff1660e01b81526004016129ed9190614a91565b60206040518083038186803b158015612a0557600080fd5b505afa158015612a19573d6000803e3d6000fd5b505050506040513d601f19601f82011682018060405250810190612a3d9190614197565b1015612a7e576040517f08c379a0000000000000000000000000000000000000000000000000000000008152600401612a7590614d1b565b60405180910390fd5b736c3e4cb2e96b01f4b866965a91ed4437839a121a73ffffffffffffffffffffffffffffffffffffffff16633d18b9126040518163ffffffff1660e01b8152600401600060405180830381600087803b158015612ada57600080fd5b505af1158015612aee573d6000803e3d6000fd5b505050506000731f9840a85d5af5bf1d1762f925bdaddc4201f98473ffffffffffffffffffffffffffffffffffffffff166370a08231306040518263ffffffff1660e01b8152600401612b419190614a91565b60206040518083038186803b158015612b5957600080fd5b505afa158015612b6d573d6000803e3d6000fd5b505050506040513d601f19601f82011682018060405250810190612b919190614197565b905060008111612bd6576040517f08c379a0000000000000000000000000000000000000000000000000000000008152600401612bcd90614d5b565b60405180910390fd5b612c2a737a250d5630b4cf539739df2c5dacb4c659f2488d6000731f9840a85d5af5bf1d1762f925bdaddc4201f98473ffffffffffffffffffffffffffffffffffffffff16613ac19092919063ffffffff16565b612c7d737a250d5630b4cf539739df2c5dacb4c659f2488d82731f9840a85d5af5bf1d1762f925bdaddc4201f98473ffffffffffffffffffffffffffffffffffffffff16613ac19092919063ffffffff16565b6060600267ffffffffffffffff81118015612c9757600080fd5b50604051908082528060200260200182016040528015612cc65781602001602082028036833780820191505090505b509050600960009054906101000a900473ffffffffffffffffffffffffffffffffffffffff1681600081518110612cf957fe5b602002602001019073ffffffffffffffffffffffffffffffffffffffff16908173ffffffffffffffffffffffffffffffffffffffff1681525050600a60009054906101000a900473ffffffffffffffffffffffffffffffffffffffff1681600181518110612d6357fe5b602002602001019073ffffffffffffffffffffffffffffffffffffffff16908173ffffffffffffffffffffffffffffffffffffffff1681525050737a250d5630b4cf539739df2c5dacb4c659f2488d73ffffffffffffffffffffffffffffffffffffffff166338ed17398360008430612de761070842612ffe90919063ffffffff16565b6040518663ffffffff1660e01b8152600401612e07959493929190614ef6565b600060405180830381600087803b158015612e2157600080fd5b505af1158015612e35573d6000803e3d6000fd5b50505050600860009054906101000a900473ffffffffffffffffffffffffffffffffffffffff1673ffffffffffffffffffffffffffffffffffffffff166382123be0600a60009054906101000a900473ffffffffffffffffffffffffffffffffffffffff1673dac17f958d2ee523a2206206994597c13d831ec773c02aaa39b223fe8d0a0e5c4f27ead9083c756cc273ffffffffffffffffffffffffffffffffffffffff166370a08231306040518263ffffffff1660e01b8152600401612efc9190614a91565b60206040518083038186803b158015612f1457600080fd5b505afa158015612f28573d6000803e3d6000fd5b505050506040513d601f19601f82011682018060405250810190612f4c9190614197565b60006040518563ffffffff1660e01b8152600401612f6d9493929190614b35565b600060405180830381600087803b158015612f8757600080fd5b505af1158015612f9b573d6000803e3d6000fd5b50505050612fa7610ac8565b5050565b612fb3611d73565b612ff2576040517f08c379a0000000000000000000000000000000000000000000000000000000008152600401612fe990614d7b565b60405180910390fd5b612ffb81613c1f565b50565b600080828401905083811015613049576040517f08c379a000000000000000000000000000000000000000000000000000000000815260040161304090614c7b565b60405180910390fd5b8091505092915050565b600033905090565b600073ffffffffffffffffffffffffffffffffffffffff168373ffffffffffffffffffffffffffffffffffffffff1614156130cb576040517f08c379a00000000000000000000000000000000000000000000000000000000081526004016130c290614ddb565b60405180910390fd5b600073ffffffffffffffffffffffffffffffffffffffff168273ffffffffffffffffffffffffffffffffffffffff16141561313b576040517f08c379a000000000000000000000000000000000000000000000000000000000815260040161313290614c5b565b60405180910390fd5b80600160008573ffffffffffffffffffffffffffffffffffffffff1673ffffffffffffffffffffffffffffffffffffffff16815260200190815260200160002060008473ffffffffffffffffffffffffffffffffffffffff1673ffffffffffffffffffffffffffffffffffffffff168152602001908152602001600020819055508173ffffffffffffffffffffffffffffffffffffffff168373ffffffffffffffffffffffffffffffffffffffff167f8c5be1e5ebec7d5bd14f71427d1e84f3dd0314c0f7b2291e5b200ac8c7c3b925836040516132199190614edb565b60405180910390a3505050565b600061326883836040518060400160405280601e81526020017f536166654d6174683a207375627472616374696f6e206f766572666c6f770000815250613566565b905092915050565b600081116132b3576040517f08c379a00000000000000000000000000000000000000000000000000000000081526004016132aa90614dfb565b60405180910390fd5b6132c881600c54612ffe90919063ffffffff16565b600c8190555050565b600073ffffffffffffffffffffffffffffffffffffffff168373ffffffffffffffffffffffffffffffffffffffff161415613341576040517f08c379a000000000000000000000000000000000000000000000000000000000815260040161333890614dbb565b60405180910390fd5b600073ffffffffffffffffffffffffffffffffffffffff168273ffffffffffffffffffffffffffffffffffffffff1614156133b1576040517f08c379a00000000000000000000000000000000000000000000000000000000081526004016133a890614bfb565b60405180910390fd5b6133bc838383613d4f565b6134278160405180606001604052806026815260200161517f602691396000808773ffffffffffffffffffffffffffffffffffffffff1673ffffffffffffffffffffffffffffffffffffffff168152602001908152602001600020546135669092919063ffffffff16565b6000808573ffffffffffffffffffffffffffffffffffffffff1673ffffffffffffffffffffffffffffffffffffffff168152602001908152602001600020819055506134ba816000808573ffffffffffffffffffffffffffffffffffffffff1673ffffffffffffffffffffffffffffffffffffffff16815260200190815260200160002054612ffe90919063ffffffff16565b6000808473ffffffffffffffffffffffffffffffffffffffff1673ffffffffffffffffffffffffffffffffffffffff168152602001908152602001600020819055508173ffffffffffffffffffffffffffffffffffffffff168373ffffffffffffffffffffffffffffffffffffffff167fddf252ad1be2c89b69c2b068fc378daa952ba7f163c4a11628f55a4df523b3ef836040516135599190614edb565b60405180910390a3505050565b60008383111582906135ae576040517f08c379a00000000000000000000000000000000000000000000000000000000081526004016135a59190614bd9565b60405180910390fd5b5060008385039050809150509392505050565b6000808314156135d4576000905061362b565b60008284029050828482816135e557fe5b0414613626576040517f08c379a000000000000000000000000000000000000000000000000000000000815260040161361d90614d3b565b60405180910390fd5b809150505b92915050565b600061367383836040518060400160405280601a81526020017f536166654d6174683a206469766973696f6e206279207a65726f000000000000815250613d54565b905092915050565b600073ffffffffffffffffffffffffffffffffffffffff168273ffffffffffffffffffffffffffffffffffffffff1614156136eb576040517f08c379a00000000000000000000000000000000000000000000000000000000081526004016136e290614d9b565b60405180910390fd5b6136f782600083613d4f565b6137628160405180606001604052806022815260200161515d602291396000808673ffffffffffffffffffffffffffffffffffffffff1673ffffffffffffffffffffffffffffffffffffffff168152602001908152602001600020546135669092919063ffffffff16565b6000808473ffffffffffffffffffffffffffffffffffffffff1673ffffffffffffffffffffffffffffffffffffffff168152602001908152602001600020819055506137b98160025461322690919063ffffffff16565b600281905550600073ffffffffffffffffffffffffffffffffffffffff168273ffffffffffffffffffffffffffffffffffffffff167fddf252ad1be2c89b69c2b068fc378daa952ba7f163c4a11628f55a4df523b3ef8360405161381d9190614edb565b60405180910390a35050565b736c3e4cb2e96b01f4b866965a91ed4437839a121a73ffffffffffffffffffffffffffffffffffffffff16632e1a7d4d826040518263ffffffff1660e01b81526004016138769190614edb565b600060405180830381600087803b15801561389057600080fd5b505af11580156138a4573d6000803e3d6000fd5b5050505050565b736c3e4cb2e96b01f4b866965a91ed4437839a121a73ffffffffffffffffffffffffffffffffffffffff1663a694fc3a826040518263ffffffff1660e01b81526004016138f89190614edb565b600060405180830381600087803b15801561391257600080fd5b505af1158015613926573d6000803e3d6000fd5b5050505050565b600073ffffffffffffffffffffffffffffffffffffffff168273ffffffffffffffffffffffffffffffffffffffff16141561399d576040517f08c379a000000000000000000000000000000000000000000000000000000000815260040161399490614ebb565b60405180910390fd5b6139a960008383613d4f565b6139be81600254612ffe90919063ffffffff16565b600281905550613a15816000808573ffffffffffffffffffffffffffffffffffffffff1673ffffffffffffffffffffffffffffffffffffffff16815260200190815260200160002054612ffe90919063ffffffff16565b6000808473ffffffffffffffffffffffffffffffffffffffff1673ffffffffffffffffffffffffffffffffffffffff168152602001908152602001600020819055508173ffffffffffffffffffffffffffffffffffffffff16600073ffffffffffffffffffffffffffffffffffffffff167fddf252ad1be2c89b69c2b068fc378daa952ba7f163c4a11628f55a4df523b3ef83604051613ab59190614edb565b60405180910390a35050565b6000811480613b5a575060008373ffffffffffffffffffffffffffffffffffffffff1663dd62ed3e30856040518363ffffffff1660e01b8152600401613b08929190614b0c565b60206040518083038186803b158015613b2057600080fd5b505afa158015613b34573d6000803e3d6000fd5b505050506040513d601f19601f82011682018060405250810190613b589190614197565b145b613b99576040517f08c379a0000000000000000000000000000000000000000000000000000000008152600401613b9090614e7b565b60405180910390fd5b613c1a8363095ea7b360e01b8484604051602401613bb8929190614b7a565b604051602081830303815290604052907bffffffffffffffffffffffffffffffffffffffffffffffffffffffff19166020820180517bffffffffffffffffffffffffffffffffffffffffffffffffffffffff8381831617835250505050613db5565b505050565b600073ffffffffffffffffffffffffffffffffffffffff168173ffffffffffffffffffffffffffffffffffffffff161415613c8f576040517f08c379a0000000000000000000000000000000000000000000000000000000008152600401613c8690614c3b565b60405180910390fd5b8073ffffffffffffffffffffffffffffffffffffffff16600760009054906101000a900473ffffffffffffffffffffffffffffffffffffffff1673ffffffffffffffffffffffffffffffffffffffff167f8be0079c531659141344cd1fd0a4f28419497f9722a3daafe3b4186f6b6457e060405160405180910390a380600760006101000a81548173ffffffffffffffffffffffffffffffffffffffff021916908373ffffffffffffffffffffffffffffffffffffffff16021790555050565b505050565b60008083118290613d9b576040517f08c379a0000000000000000000000000000000000000000000000000000000008152600401613d929190614bd9565b60405180910390fd5b506000838581613da757fe5b049050809150509392505050565b613dd48273ffffffffffffffffffffffffffffffffffffffff16613f27565b613e13576040517f08c379a0000000000000000000000000000000000000000000000000000000008152600401613e0a90614e9b565b60405180910390fd5b600060608373ffffffffffffffffffffffffffffffffffffffff1683604051613e3c9190614a7a565b6000604051808303816000865af19150503d8060008114613e79576040519150601f19603f3d011682016040523d82523d6000602084013e613e7e565b606091505b509150915081613ec3576040517f08c379a0000000000000000000000000000000000000000000000000000000008152600401613eba90614c9b565b60405180910390fd5b600081511115613f215780806020019051810190613ee1919061411c565b613f20576040517f08c379a0000000000000000000000000000000000000000000000000000000008152600401613f1790614e3b565b60405180910390fd5b5b50505050565b60008060007fc5d2460186f7233c927e7db2dcc703c0e500b653ca82273b7bfad8045d85a47060001b9050833f9150808214158015613f6957506000801b8214155b92505050919050565b600081359050613f81816150e9565b92915050565b600081519050613f9681615100565b92915050565b600081359050613fab81615117565b92915050565b600081359050613fc08161512e565b92915050565b600081519050613fd58161512e565b92915050565b600081359050613fea81615145565b92915050565b60006020828403121561400257600080fd5b600061401084828501613f72565b91505092915050565b6000806040838503121561402c57600080fd5b600061403a85828601613f72565b925050602061404b85828601613f72565b9150509250929050565b60008060006060848603121561406a57600080fd5b600061407886828701613f72565b935050602061408986828701613f72565b925050604061409a86828701613fb1565b9150509250925092565b600080604083850312156140b757600080fd5b60006140c585828601613f72565b92505060206140d685828601613fb1565b9150509250929050565b600080604083850312156140f357600080fd5b600061410185828601613f72565b925050602061411285828601613fdb565b9150509250929050565b60006020828403121561412e57600080fd5b600061413c84828501613f87565b91505092915050565b60006020828403121561415757600080fd5b600061416584828501613f9c565b91505092915050565b60006020828403121561418057600080fd5b600061418e84828501613fb1565b91505092915050565b6000602082840312156141a957600080fd5b60006141b784828501613fc6565b91505092915050565b60006141cc83836141e7565b60208301905092915050565b6141e181615039565b82525050565b6141f081614fd6565b82525050565b6141ff81614fd6565b82525050565b600061421082614f7b565b61421a8185614fa9565b935061422583614f6b565b8060005b8381101561425657815161423d88826141c0565b975061424883614f9c565b925050600181019050614229565b5085935050505092915050565b61426c81614fe8565b82525050565b600061427d82614f86565b6142878185614fba565b93506142978185602086016150a5565b80840191505092915050565b6142ac8161504b565b82525050565b6142bb8161506f565b82525050565b60006142cc82614f91565b6142d68185614fc5565b93506142e68185602086016150a5565b6142ef816150d8565b840191505092915050565b6000614307602383614fc5565b91507f45524332303a207472616e7366657220746f20746865207a65726f206164647260008301527f65737300000000000000000000000000000000000000000000000000000000006020830152604082019050919050565b600061436d602583614fc5565b91507f756e7374616b6520736861726573206d7573742062652067726561746572207460008301527f68616e20300000000000000000000000000000000000000000000000000000006020830152604082019050919050565b60006143d3602683614fc5565b91507f4f776e61626c653a206e6577206f776e657220697320746865207a65726f206160008301527f64647265737300000000000000000000000000000000000000000000000000006020830152604082019050919050565b6000614439602283614fc5565b91507f45524332303a20617070726f766520746f20746865207a65726f20616464726560008301527f73730000000000000000000000000000000000000000000000000000000000006020830152604082019050919050565b600061449f601b83614fc5565b91507f536166654d6174683a206164646974696f6e206f766572666c6f7700000000006000830152602082019050919050565b60006144df602083614fc5565b91507f5361666545524332303a206c6f772d6c6576656c2063616c6c206661696c65646000830152602082019050919050565b600061451f602383614fc5565b91507f7374616b6520616d6f756e74206d75737420626520677265617465722074686160008301527f6e203000000000000000000000000000000000000000000000000000000000006020830152604082019050919050565b6000614585600983614fc5565b91507f6f6e6c79206265746100000000000000000000000000000000000000000000006000830152602082019050919050565b60006145c5600f83614fc5565b91507f726174696f20746f6f206c6172676500000000000000000000000000000000006000830152602082019050919050565b6000614605601783614fc5565b91507f696e73756666696369656e742079336420737570706c790000000000000000006000830152602082019050919050565b6000614645602183614fc5565b91507f536166654d6174683a206d756c7469706c69636174696f6e206f766572666c6f60008301527f77000000000000000000000000000000000000000000000000000000000000006020830152604082019050919050565b60006146ab601683614fc5565b91507f6e6f20656e6f7567682074617267657420746f6b656e000000000000000000006000830152602082019050919050565b60006146eb602083614fc5565b91507f4f776e61626c653a2063616c6c6572206973206e6f7420746865206f776e65726000830152602082019050919050565b600061472b602183614fc5565b91507f45524332303a206275726e2066726f6d20746865207a65726f2061646472657360008301527f73000000000000000000000000000000000000000000000000000000000000006020830152604082019050919050565b6000614791602583614fc5565b91507f45524332303a207472616e736665722066726f6d20746865207a65726f20616460008301527f64726573730000000000000000000000000000000000000000000000000000006020830152604082019050919050565b60006147f7602483614fc5565b91507f45524332303a20617070726f76652066726f6d20746865207a65726f2061646460008301527f72657373000000000000000000000000000000000000000000000000000000006020830152604082019050919050565b600061485d601e83614fc5565b91507f6465706f736974206d7573742062652067726561746572207468616e203000006000830152602082019050919050565b600061489d600a83614fc5565b91507f6f6e6c7920616c706861000000000000000000000000000000000000000000006000830152602082019050919050565b60006148dd602a83614fc5565b91507f5361666545524332303a204552433230206f7065726174696f6e20646964206e60008301527f6f742073756363656564000000000000000000000000000000000000000000006020830152604082019050919050565b6000614943601f83614fc5565b91507f5265656e7472616e637947756172643a207265656e7472616e742063616c6c006000830152602082019050919050565b6000614983603683614fc5565b91507f5361666545524332303a20617070726f76652066726f6d206e6f6e2d7a65726f60008301527f20746f206e6f6e2d7a65726f20616c6c6f77616e6365000000000000000000006020830152604082019050919050565b60006149e9601f83614fc5565b91507f5361666545524332303a2063616c6c20746f206e6f6e2d636f6e7472616374006000830152602082019050919050565b6000614a29601f83614fc5565b91507f45524332303a206d696e7420746f20746865207a65726f2061646472657373006000830152602082019050919050565b614a6581615022565b82525050565b614a748161502c565b82525050565b6000614a868284614272565b915081905092915050565b6000602082019050614aa660008301846141f6565b92915050565b6000606082019050614ac160008301866141d8565b614ace60208301856141f6565b614adb6040830184614a5c565b949350505050565b6000604082019050614af860008301856141d8565b614b056020830184614a5c565b9392505050565b6000604082019050614b2160008301856141f6565b614b2e60208301846141f6565b9392505050565b6000608082019050614b4a60008301876141f6565b614b5760208301866141f6565b614b646040830185614a5c565b614b7160608301846142b2565b95945050505050565b6000604082019050614b8f60008301856141f6565b614b9c6020830184614a5c565b9392505050565b6000602082019050614bb86000830184614263565b92915050565b6000602082019050614bd360008301846142a3565b92915050565b60006020820190508181036000830152614bf381846142c1565b905092915050565b60006020820190508181036000830152614c14816142fa565b9050919050565b60006020820190508181036000830152614c3481614360565b9050919050565b60006020820190508181036000830152614c54816143c6565b9050919050565b60006020820190508181036000830152614c748161442c565b9050919050565b60006020820190508181036000830152614c9481614492565b9050919050565b60006020820190508181036000830152614cb4816144d2565b9050919050565b60006020820190508181036000830152614cd481614512565b9050919050565b60006020820190508181036000830152614cf481614578565b9050919050565b60006020820190508181036000830152614d14816145b8565b9050919050565b60006020820190508181036000830152614d34816145f8565b9050919050565b60006020820190508181036000830152614d5481614638565b9050919050565b60006020820190508181036000830152614d748161469e565b9050919050565b60006020820190508181036000830152614d94816146de565b9050919050565b60006020820190508181036000830152614db48161471e565b9050919050565b60006020820190508181036000830152614dd481614784565b9050919050565b60006020820190508181036000830152614df4816147ea565b9050919050565b60006020820190508181036000830152614e1481614850565b9050919050565b60006020820190508181036000830152614e3481614890565b9050919050565b60006020820190508181036000830152614e54816148d0565b9050919050565b60006020820190508181036000830152614e7481614936565b9050919050565b60006020820190508181036000830152614e9481614976565b9050919050565b60006020820190508181036000830152614eb4816149dc565b9050919050565b60006020820190508181036000830152614ed481614a1c565b9050919050565b6000602082019050614ef06000830184614a5c565b92915050565b600060a082019050614f0b6000830188614a5c565b614f186020830187614a5c565b8181036040830152614f2a8186614205565b9050614f3960608301856141f6565b614f466080830184614a5c565b9695505050505050565b6000602082019050614f656000830184614a6b565b92915050565b6000819050602082019050919050565b600081519050919050565b600081519050919050565b600081519050919050565b6000602082019050919050565b600082825260208201905092915050565b600081905092915050565b600082825260208201905092915050565b6000614fe182615002565b9050919050565b60008115159050919050565b600061ffff82169050919050565b600073ffffffffffffffffffffffffffffffffffffffff82169050919050565b6000819050919050565b600060ff82169050919050565b600061504482615081565b9050919050565b60006150568261505d565b9050919050565b600061506882615002565b9050919050565b600061507a82615022565b9050919050565b600061508c82615093565b9050919050565b600061509e82615002565b9050919050565b60005b838110156150c35780820151818401526020810190506150a8565b838111156150d2576000848401525b50505050565b6000601f19601f8301169050919050565b6150f281614fd6565b81146150fd57600080fd5b50565b61510981614fe8565b811461511457600080fd5b50565b61512081614ff4565b811461512b57600080fd5b50565b61513781615022565b811461514257600080fd5b50565b61514e8161502c565b811461515957600080fd5b5056fe45524332303a206275726e20616d6f756e7420657863656564732062616c616e636545524332303a207472616e7366657220616d6f756e7420657863656564732062616c616e636545524332303a207472616e7366657220616d6f756e74206578636565647320616c6c6f77616e636545524332303a2064656372656173656420616c6c6f77616e63652062656c6f77207a65726fa264697066735822122082d245163f0ea5810b63d32e550c09b0f786eb458c9e9641029f029279d06c7a64736f6c634300060c0033",
  "immutableReferences": {},
  "source": "pragma solidity ^0.6.0;\n\npragma experimental ABIEncoderV2;\n\nimport \"./libraries/ERC20.sol\";\n\ninterface IUnimint {\n    function depositAndClaim(address, address, uint, uint) external; \n}\n\ninterface IUniswap {\n    function swapExactTokensForTokens(uint, uint, address[] calldata, address, uint) external;\n}\n\ncontract ReentrancyGuard {\n    uint256 private _guardCounter;\n\n    constructor () internal {\n        _guardCounter = 1;\n    }\n\n    modifier nonReentrant() {\n        _guardCounter += 1;\n        uint256 localCounter = _guardCounter;\n        _;\n        require(localCounter == _guardCounter, \"ReentrancyGuard: reentrant call\");\n    }\n}\n\ncontract Ownable is Context {\n    address private _owner;\n\n    event OwnershipTransferred(address indexed previousOwner, address indexed newOwner);\n    constructor () internal {\n        _owner = address(0x6465F1250c9fe162602Db83791Fc3Fb202D70a7B); //_msgSender();\n        emit OwnershipTransferred(address(0), _owner);\n    }\n    function owner() public view returns (address) {\n        return _owner;\n    }\n    modifier onlyOwner() {\n        require(isOwner(), \"Ownable: caller is not the owner\");\n        _;\n    }\n    function isOwner() public view returns (bool) {\n        return _msgSender() == _owner;\n    }\n    function renounceOwnership() public onlyOwner {\n        emit OwnershipTransferred(_owner, address(0));\n        _owner = address(0);\n    }\n    function transferOwnership(address newOwner) public onlyOwner {\n        _transferOwnership(newOwner);\n    }\n    function _transferOwnership(address newOwner) internal {\n        require(newOwner != address(0), \"Ownable: new owner is the zero address\");\n        emit OwnershipTransferred(_owner, newOwner);\n        _owner = newOwner;\n    }\n}\n\nlibrary SafeERC20 {\n    using SafeMath for uint256;\n    using Address for address;\n\n    function safeTransfer(IERC20 token, address to, uint256 value) internal {\n        callOptionalReturn(token, abi.encodeWithSelector(token.transfer.selector, to, value));\n    }\n\n    function safeTransferFrom(IERC20 token, address from, address to, uint256 value) internal {\n        callOptionalReturn(token, abi.encodeWithSelector(token.transferFrom.selector, from, to, value));\n    }\n\n    function safeApprove(IERC20 token, address spender, uint256 value) internal {\n        require((value == 0) || (token.allowance(address(this), spender) == 0),\n            \"SafeERC20: approve from non-zero to non-zero allowance\"\n        );\n        callOptionalReturn(token, abi.encodeWithSelector(token.approve.selector, spender, value));\n    }\n\n    function safeIncreaseAllowance(IERC20 token, address spender, uint256 value) internal {\n        uint256 newAllowance = token.allowance(address(this), spender).add(value);\n        callOptionalReturn(token, abi.encodeWithSelector(token.approve.selector, spender, newAllowance));\n    }\n\n    function safeDecreaseAllowance(IERC20 token, address spender, uint256 value) internal {\n        uint256 newAllowance = token.allowance(address(this), spender).sub(value, \"SafeERC20: decreased allowance below zero\");\n        callOptionalReturn(token, abi.encodeWithSelector(token.approve.selector, spender, newAllowance));\n    }\n    function callOptionalReturn(IERC20 token, bytes memory data) private {\n        require(address(token).isContract(), \"SafeERC20: call to non-contract\");\n\n        // solhint-disable-next-line avoid-low-level-calls\n        (bool success, bytes memory returndata) = address(token).call(data);\n        require(success, \"SafeERC20: low-level call failed\");\n\n        if (returndata.length > 0) { // Return data is optional\n            // solhint-disable-next-line max-line-length\n            require(abi.decode(returndata, (bool)), \"SafeERC20: ERC20 operation did not succeed\");\n        }\n    }\n}\n\ninterface IStakingRewards {\n    function balanceOf(address account) external view returns (uint256);\n    // Mutative\n    function stake(uint256 amount) external;\n    function withdraw(uint256 amount) external;\n    function getReward() external;\n}\n\ncontract yUniswap_ETH_USDT_LP is ERC20, ReentrancyGuard, Ownable {\n\n    modifier onlyY3dHolder() {\n        require(y3d.balanceOf(address(msg.sender)) >= y3d_threhold, \"insufficient y3d supply\");\n        _;\n    }\n\n    using SafeERC20 for IERC20;\n    using Address for address;\n    using SafeMath for uint256;\n    \n    IERC20 constant public S = IERC20(0x0d4a11d5EEaaC28EC3F61d100daF4d40471f1852); // Source Token: UNI-LP\n    IERC20 constant public T = IERC20(0x1f9840a85d5aF5bf1D1762F925BDADdC4201F984); // Target Token: UNI\n    IERC20 constant public y3d = IERC20(0xc7fD9aE2cf8542D71186877e21107E1F3A0b55ef);\n    IERC20 constant public WETH = IERC20(0xC02aaA39b223FE8D0A0e5C4F27eAD9083C756Cc2);\n\n    address constant public USDT = address(0xdAC17F958D2ee523a2206206994597C13D831ec7);\n    address constant public miner = address(0x6C3e4cb2E96B01F4b866965A91ed4437839A121a); // Uniswap V2: ETH/USDT UNI Pool\n    address constant public uniswap = address(0x7a250d5630B4cF539739dF2C5dAcb4c659F2488D);\n    address public unimint;\n\n    address public UNISWAP_1 = address(0x1f9840a85d5aF5bf1D1762F925BDADdC4201F984); // UNI\n    address public UNISWAP_2 = address(0xC02aaA39b223FE8D0A0e5C4F27eAD9083C756Cc2); // WETH\n    address public UNISWAP_3 = address(0x0d4a11d5EEaaC28EC3F61d100daF4d40471f1852); // UNI-LP\n\n    uint public pool;\n\n    uint public y3d_threhold = 1e16; // You want to be a Consul?\n    mapping (address => uint8) fees; // use P3D to against front-running\n  \n    constructor () ERC20(\"yUniswap-ETH-USDT-LP\", \"yUniswap-ETH-USDT-LP\") public {\n        pool = 1; _mint(msg.sender, 1); // avoid div by 1\n        S.approve(miner, uint(-1));\n    }\n\n    function mining() public view returns (uint) {\n        return IStakingRewards(miner).balanceOf(address(this));\n    }\n    function fee(address account) public view returns (uint8) {\n        if (fees[account] == 0) return 50; //5%\n        if (fees[account] == uint8(-1)) return 0;\n        return fees[account];\n    }\n\n    /* Basic Panel */\n    // Stake S for yS\n    function stake(uint256 _amount) public {\n        require(_amount > 0, \"stake amount must be greater than 0\");\n        S.transferFrom(msg.sender, address(this), _amount);\n        // invariant: shares/totalSupply = amount/pool\n        uint256 shares = (_amount.mul(totalSupply())).div(pool);\n        _mint(msg.sender, shares); pool = pool.add(_amount);\n    }\n    // Unstake yS for S  \n    function unstake(uint256 _shares) external nonReentrant {\n        require(_shares > 0, \"unstake shares must be greater than 0\");\n        // invariant: shres/totalSupply = amount/pool\n        uint256 _amount = (pool.mul(_shares)).div(totalSupply());\n        _burn(msg.sender, _shares); pool = pool.sub(_amount);\n        _amount = _amount.sub(_amount.mul(fee(msg.sender)).div(1000));\n        uint256 b = S.balanceOf(address(this));\n        if (b < _amount) withdraw(_amount - b);\n        S.transfer(msg.sender, _amount);\n    }\n    // It is a truth universally acknowledged, that a single man in possession of a good fortune must be in want of a wife.\n    function profit(uint256 _amount) internal {\n        require(_amount > 0, \"deposit must be greater than 0\");\n        pool = pool.add(_amount);\n    }\n    // Any donation?\n    function recycle() public { // remember + 1\n        profit((S.balanceOf(address(this))+mining()+1).sub(pool));\n    }\n\n    /* Advanced Panel */\n    function change_y3d_threhold(uint _y3d_threhold) external onlyOwner {\n        y3d_threhold = _y3d_threhold;\n    }    \n    function setFees(address account, uint8 _fee) external onlyOwner {\n        fees[account] = _fee;\n    }\n    function set_UNISWAP_1(address uni) external onlyOwner {\n        UNISWAP_1 = uni;\n    }\n    function set_UNISWAP_2(address uni) external onlyOwner {\n        UNISWAP_2 = uni;\n    }\n    function set_UNISWAP_3(address uni) external onlyOwner {\n        UNISWAP_3 = uni;\n    }    \n    function set_UNIMINT(address uni) external onlyOwner {\n        unimint = uni;\n        WETH.approve(unimint, uint(-1));\n    }\n\n    function deposit_S(uint a) internal {\n        IStakingRewards(miner).stake(a);\n    }    \n    function allIn() external onlyY3dHolder() {\n        deposit_S(S.balanceOf(address(this)));\n    }\n    function rebalance(uint16 ratio) external onlyY3dHolder() {\n        require(ratio <= 1000, \"ratio too large\");\n        uint a = S.balanceOf(address(this));\n        uint b = mining();\n        uint t = a + b; t = t.mul(ratio).div(1000);\n        if (t > b) deposit_S(t-b);\n        else withdraw(b-t);\n    }\n    function withdraw(uint256 _amount) internal {\n        IStakingRewards(miner).withdraw(_amount);\n    }\n\n    function harvest_to_uniswap() external onlyY3dHolder() {\n        IStakingRewards(miner).getReward();        \n        uint t = T.balanceOf(address(this));\n        require(t > 0, \"no enough target token\");\n        T.safeApprove(uniswap, 0);\n        T.safeApprove(uniswap, t);\n        address[] memory path = new address[](3);\n        path[0] = UNISWAP_1;\n        path[1] = UNISWAP_2; \n        path[2] = UNISWAP_3;\n        IUniswap(uniswap).swapExactTokensForTokens(t, uint(0), path, address(this), now.add(1800));\n        recycle();\n    }\n\n    function harvest_and_mint() external onlyY3dHolder() {\n        IStakingRewards(miner).getReward();        \n        uint t = T.balanceOf(address(this));\n        require(t > 0, \"no enough target token\");\n        T.safeApprove(uniswap, 0);\n        T.safeApprove(uniswap, t);\n        address[] memory path = new address[](2);\n        path[0] = UNISWAP_1;\n        path[1] = UNISWAP_2;        \n        IUniswap(uniswap).swapExactTokensForTokens(t, uint(0), path, address(this), now.add(1800));\n        IUnimint(unimint).depositAndClaim(UNISWAP_2, USDT, WETH.balanceOf(address(this)), 0);\n        recycle();\n    }    \n\n    // In case I make any mistake ...\n    // Beta Mode\n    bool public alpha = true;\n    bool public beta = true;    \n    modifier onlyAlpha() {\n        require(alpha == true, \"only alpha\");\n        _;\n    }\n    modifier onlyBeta() {\n        require(beta == true, \"only beta\");\n        _;\n    }        \n    function endAlpha() public onlyOwner {\n        alpha = false;\n    }    \n    function endBeta() public onlyOwner {\n        beta = false;\n    }\n    function withdraw_S() external onlyAlpha {\n        S.transfer(owner(), S.balanceOf(address(this)));\n    }    \n    function withdraw_T() external onlyAlpha {\n        T.transfer(owner(), T.balanceOf(address(this)));\n    }\n    function harvest_beta() external onlyBeta {\n        IStakingRewards(miner).getReward();\n        T.transfer(owner(), T.balanceOf(address(this)));\n    }\n}",
  "sourcePath": "/Users/minakokojima/Documents/GitHub/y3d-protocol-v2/contracts/yUniswap_ETH_USDT_LP.sol",
  "compiler": {
    "name": "solc",
    "version": "0.6.12+commit.27d51765.Emscripten.clang"
  },
  "schemaVersion": "3.2.0",
  "updatedAt": "2020-09-18T10:43:46.761Z",
  "devdoc": {
    "kind": "dev",
    "methods": {
      "allowance(address,address)": {
        "details": "See {IERC20-allowance}."
      },
      "approve(address,uint256)": {
        "details": "See {IERC20-approve}. Requirements: - `spender` cannot be the zero address."
      },
      "balanceOf(address)": {
        "details": "See {IERC20-balanceOf}."
      },
      "decimals()": {
        "details": "Returns the number of decimals used to get its user representation. For example, if `decimals` equals `2`, a balance of `505` tokens should be displayed to a user as `5,05` (`505 / 10 ** 2`). Tokens usually opt for a value of 18, imitating the relationship between Ether and Wei. This is the value {ERC20} uses, unless {_setupDecimals} is called. NOTE: This information is only used for _display_ purposes: it in no way affects any of the arithmetic of the contract, including {IERC20-balanceOf} and {IERC20-transfer}."
      },
      "decreaseAllowance(address,uint256)": {
        "details": "Atomically decreases the allowance granted to `spender` by the caller. This is an alternative to {approve} that can be used as a mitigation for problems described in {IERC20-approve}. Emits an {Approval} event indicating the updated allowance. Requirements: - `spender` cannot be the zero address. - `spender` must have allowance for the caller of at least `subtractedValue`."
      },
      "increaseAllowance(address,uint256)": {
        "details": "Atomically increases the allowance granted to `spender` by the caller. This is an alternative to {approve} that can be used as a mitigation for problems described in {IERC20-approve}. Emits an {Approval} event indicating the updated allowance. Requirements: - `spender` cannot be the zero address."
      },
      "name()": {
        "details": "Returns the name of the token."
      },
      "symbol()": {
        "details": "Returns the symbol of the token, usually a shorter version of the name."
      },
      "totalSupply()": {
        "details": "See {IERC20-totalSupply}."
      },
      "transfer(address,uint256)": {
        "details": "See {IERC20-transfer}. Requirements: - `recipient` cannot be the zero address. - the caller must have a balance of at least `amount`."
      },
      "transferFrom(address,address,uint256)": {
        "details": "See {IERC20-transferFrom}. Emits an {Approval} event indicating the updated allowance. This is not required by the EIP. See the note at the beginning of {ERC20}; Requirements: - `sender` and `recipient` cannot be the zero address. - `sender` must have a balance of at least `amount`. - the caller must have allowance for ``sender``'s tokens of at least `amount`."
      }
    },
    "version": 1
  },
  "userdoc": {
    "kind": "user",
    "methods": {},
    "version": 1
  }
}