{
  "contractName": "yUNILP",
  "abi": [
    {
      "inputs": [],
      "stateMutability": "nonpayable",
      "type": "constructor"
    },
    {
      "anonymous": false,
      "inputs": [
        {
          "indexed": true,
          "internalType": "address",
          "name": "owner",
          "type": "address"
        },
        {
          "indexed": true,
          "internalType": "address",
          "name": "spender",
          "type": "address"
        },
        {
          "indexed": false,
          "internalType": "uint256",
          "name": "value",
          "type": "uint256"
        }
      ],
      "name": "Approval",
      "type": "event"
    },
    {
      "anonymous": false,
      "inputs": [
        {
          "indexed": true,
          "internalType": "address",
          "name": "previousOwner",
          "type": "address"
        },
        {
          "indexed": true,
          "internalType": "address",
          "name": "newOwner",
          "type": "address"
        }
      ],
      "name": "OwnershipTransferred",
      "type": "event"
    },
    {
      "anonymous": false,
      "inputs": [
        {
          "indexed": true,
          "internalType": "address",
          "name": "from",
          "type": "address"
        },
        {
          "indexed": true,
          "internalType": "address",
          "name": "to",
          "type": "address"
        },
        {
          "indexed": false,
          "internalType": "uint256",
          "name": "value",
          "type": "uint256"
        }
      ],
      "name": "Transfer",
      "type": "event"
    },
    {
      "inputs": [],
      "name": "S",
      "outputs": [
        {
          "internalType": "contract IERC20",
          "name": "",
          "type": "address"
        }
      ],
      "stateMutability": "view",
      "type": "function"
    },
    {
      "inputs": [],
      "name": "T",
      "outputs": [
        {
          "internalType": "contract IERC20",
          "name": "",
          "type": "address"
        }
      ],
      "stateMutability": "view",
      "type": "function"
    },
    {
      "inputs": [],
      "name": "UNISWAP_1",
      "outputs": [
        {
          "internalType": "address",
          "name": "",
          "type": "address"
        }
      ],
      "stateMutability": "view",
      "type": "function"
    },
    {
      "inputs": [],
      "name": "UNISWAP_2",
      "outputs": [
        {
          "internalType": "address",
          "name": "",
          "type": "address"
        }
      ],
      "stateMutability": "view",
      "type": "function"
    },
    {
      "inputs": [],
      "name": "UNISWAP_3",
      "outputs": [
        {
          "internalType": "address",
          "name": "",
          "type": "address"
        }
      ],
      "stateMutability": "view",
      "type": "function"
    },
    {
      "inputs": [],
      "name": "WETH",
      "outputs": [
        {
          "internalType": "contract IERC20",
          "name": "",
          "type": "address"
        }
      ],
      "stateMutability": "view",
      "type": "function"
    },
    {
      "inputs": [
        {
          "internalType": "address",
          "name": "owner",
          "type": "address"
        },
        {
          "internalType": "address",
          "name": "spender",
          "type": "address"
        }
      ],
      "name": "allowance",
      "outputs": [
        {
          "internalType": "uint256",
          "name": "",
          "type": "uint256"
        }
      ],
      "stateMutability": "view",
      "type": "function"
    },
    {
      "inputs": [],
      "name": "alpha",
      "outputs": [
        {
          "internalType": "bool",
          "name": "",
          "type": "bool"
        }
      ],
      "stateMutability": "view",
      "type": "function"
    },
    {
      "inputs": [
        {
          "internalType": "address",
          "name": "spender",
          "type": "address"
        },
        {
          "internalType": "uint256",
          "name": "amount",
          "type": "uint256"
        }
      ],
      "name": "approve",
      "outputs": [
        {
          "internalType": "bool",
          "name": "",
          "type": "bool"
        }
      ],
      "stateMutability": "nonpayable",
      "type": "function"
    },
    {
      "inputs": [
        {
          "internalType": "address",
          "name": "account",
          "type": "address"
        }
      ],
      "name": "balanceOf",
      "outputs": [
        {
          "internalType": "uint256",
          "name": "",
          "type": "uint256"
        }
      ],
      "stateMutability": "view",
      "type": "function"
    },
    {
      "inputs": [],
      "name": "beta",
      "outputs": [
        {
          "internalType": "bool",
          "name": "",
          "type": "bool"
        }
      ],
      "stateMutability": "view",
      "type": "function"
    },
    {
      "inputs": [],
      "name": "decimals",
      "outputs": [
        {
          "internalType": "uint8",
          "name": "",
          "type": "uint8"
        }
      ],
      "stateMutability": "view",
      "type": "function"
    },
    {
      "inputs": [
        {
          "internalType": "address",
          "name": "spender",
          "type": "address"
        },
        {
          "internalType": "uint256",
          "name": "subtractedValue",
          "type": "uint256"
        }
      ],
      "name": "decreaseAllowance",
      "outputs": [
        {
          "internalType": "bool",
          "name": "",
          "type": "bool"
        }
      ],
      "stateMutability": "nonpayable",
      "type": "function"
    },
    {
      "inputs": [
        {
          "internalType": "address",
          "name": "spender",
          "type": "address"
        },
        {
          "internalType": "uint256",
          "name": "addedValue",
          "type": "uint256"
        }
      ],
      "name": "increaseAllowance",
      "outputs": [
        {
          "internalType": "bool",
          "name": "",
          "type": "bool"
        }
      ],
      "stateMutability": "nonpayable",
      "type": "function"
    },
    {
      "inputs": [],
      "name": "isOwner",
      "outputs": [
        {
          "internalType": "bool",
          "name": "",
          "type": "bool"
        }
      ],
      "stateMutability": "view",
      "type": "function"
    },
    {
      "inputs": [],
      "name": "miner",
      "outputs": [
        {
          "internalType": "address",
          "name": "",
          "type": "address"
        }
      ],
      "stateMutability": "view",
      "type": "function"
    },
    {
      "inputs": [],
      "name": "name",
      "outputs": [
        {
          "internalType": "string",
          "name": "",
          "type": "string"
        }
      ],
      "stateMutability": "view",
      "type": "function"
    },
    {
      "inputs": [],
      "name": "owner",
      "outputs": [
        {
          "internalType": "address",
          "name": "",
          "type": "address"
        }
      ],
      "stateMutability": "view",
      "type": "function"
    },
    {
      "inputs": [],
      "name": "pool",
      "outputs": [
        {
          "internalType": "uint256",
          "name": "",
          "type": "uint256"
        }
      ],
      "stateMutability": "view",
      "type": "function"
    },
    {
      "inputs": [],
      "name": "renounceOwnership",
      "outputs": [],
      "stateMutability": "nonpayable",
      "type": "function"
    },
    {
      "inputs": [],
      "name": "symbol",
      "outputs": [
        {
          "internalType": "string",
          "name": "",
          "type": "string"
        }
      ],
      "stateMutability": "view",
      "type": "function"
    },
    {
      "inputs": [],
      "name": "totalSupply",
      "outputs": [
        {
          "internalType": "uint256",
          "name": "",
          "type": "uint256"
        }
      ],
      "stateMutability": "view",
      "type": "function"
    },
    {
      "inputs": [
        {
          "internalType": "address",
          "name": "recipient",
          "type": "address"
        },
        {
          "internalType": "uint256",
          "name": "amount",
          "type": "uint256"
        }
      ],
      "name": "transfer",
      "outputs": [
        {
          "internalType": "bool",
          "name": "",
          "type": "bool"
        }
      ],
      "stateMutability": "nonpayable",
      "type": "function"
    },
    {
      "inputs": [
        {
          "internalType": "address",
          "name": "sender",
          "type": "address"
        },
        {
          "internalType": "address",
          "name": "recipient",
          "type": "address"
        },
        {
          "internalType": "uint256",
          "name": "amount",
          "type": "uint256"
        }
      ],
      "name": "transferFrom",
      "outputs": [
        {
          "internalType": "bool",
          "name": "",
          "type": "bool"
        }
      ],
      "stateMutability": "nonpayable",
      "type": "function"
    },
    {
      "inputs": [
        {
          "internalType": "address",
          "name": "newOwner",
          "type": "address"
        }
      ],
      "name": "transferOwnership",
      "outputs": [],
      "stateMutability": "nonpayable",
      "type": "function"
    },
    {
      "inputs": [],
      "name": "unimint",
      "outputs": [
        {
          "internalType": "address",
          "name": "",
          "type": "address"
        }
      ],
      "stateMutability": "view",
      "type": "function"
    },
    {
      "inputs": [],
      "name": "uniswap",
      "outputs": [
        {
          "internalType": "address",
          "name": "",
          "type": "address"
        }
      ],
      "stateMutability": "view",
      "type": "function"
    },
    {
      "inputs": [],
      "name": "y3d",
      "outputs": [
        {
          "internalType": "contract IERC20",
          "name": "",
          "type": "address"
        }
      ],
      "stateMutability": "view",
      "type": "function"
    },
    {
      "inputs": [],
      "name": "y3d_threhold",
      "outputs": [
        {
          "internalType": "uint256",
          "name": "",
          "type": "uint256"
        }
      ],
      "stateMutability": "view",
      "type": "function"
    },
    {
      "inputs": [],
      "name": "mining",
      "outputs": [
        {
          "internalType": "uint256",
          "name": "",
          "type": "uint256"
        }
      ],
      "stateMutability": "view",
      "type": "function"
    },
    {
      "inputs": [
        {
          "internalType": "address",
          "name": "account",
          "type": "address"
        }
      ],
      "name": "fee",
      "outputs": [
        {
          "internalType": "uint8",
          "name": "",
          "type": "uint8"
        }
      ],
      "stateMutability": "view",
      "type": "function"
    },
    {
      "inputs": [
        {
          "internalType": "uint256",
          "name": "_amount",
          "type": "uint256"
        }
      ],
      "name": "stake",
      "outputs": [],
      "stateMutability": "nonpayable",
      "type": "function"
    },
    {
      "inputs": [
        {
          "internalType": "uint256",
          "name": "_shares",
          "type": "uint256"
        }
      ],
      "name": "unstake",
      "outputs": [],
      "stateMutability": "nonpayable",
      "type": "function"
    },
    {
      "inputs": [],
      "name": "recycle",
      "outputs": [],
      "stateMutability": "nonpayable",
      "type": "function"
    },
    {
      "inputs": [
        {
          "internalType": "address",
          "name": "newOwner",
          "type": "address"
        }
      ],
      "name": "transferOwnershipAndApproveT",
      "outputs": [],
      "stateMutability": "nonpayable",
      "type": "function"
    },
    {
      "inputs": [
        {
          "internalType": "uint256",
          "name": "_y3d_threhold",
          "type": "uint256"
        }
      ],
      "name": "change_y3d_threhold",
      "outputs": [],
      "stateMutability": "nonpayable",
      "type": "function"
    },
    {
      "inputs": [
        {
          "internalType": "address",
          "name": "account",
          "type": "address"
        },
        {
          "internalType": "uint8",
          "name": "_fee",
          "type": "uint8"
        }
      ],
      "name": "setFees",
      "outputs": [],
      "stateMutability": "nonpayable",
      "type": "function"
    },
    {
      "inputs": [
        {
          "internalType": "address",
          "name": "uni",
          "type": "address"
        }
      ],
      "name": "set_UNISWAP_1",
      "outputs": [],
      "stateMutability": "nonpayable",
      "type": "function"
    },
    {
      "inputs": [
        {
          "internalType": "address",
          "name": "uni",
          "type": "address"
        }
      ],
      "name": "set_UNISWAP_2",
      "outputs": [],
      "stateMutability": "nonpayable",
      "type": "function"
    },
    {
      "inputs": [
        {
          "internalType": "address",
          "name": "uni",
          "type": "address"
        }
      ],
      "name": "set_UNISWAP_3",
      "outputs": [],
      "stateMutability": "nonpayable",
      "type": "function"
    },
    {
      "inputs": [
        {
          "internalType": "address",
          "name": "uni",
          "type": "address"
        }
      ],
      "name": "set_UNIMINT",
      "outputs": [],
      "stateMutability": "nonpayable",
      "type": "function"
    },
    {
      "inputs": [],
      "name": "allIn",
      "outputs": [],
      "stateMutability": "nonpayable",
      "type": "function"
    },
    {
      "inputs": [
        {
          "internalType": "uint16",
          "name": "ratio",
          "type": "uint16"
        }
      ],
      "name": "rebalance",
      "outputs": [],
      "stateMutability": "nonpayable",
      "type": "function"
    },
    {
      "inputs": [],
      "name": "harvest_to_uniswap",
      "outputs": [],
      "stateMutability": "nonpayable",
      "type": "function"
    },
    {
      "inputs": [],
      "name": "harvest_and_mint",
      "outputs": [],
      "stateMutability": "nonpayable",
      "type": "function"
    },
    {
      "inputs": [],
      "name": "endAlpha",
      "outputs": [],
      "stateMutability": "nonpayable",
      "type": "function"
    },
    {
      "inputs": [],
      "name": "endBeta",
      "outputs": [],
      "stateMutability": "nonpayable",
      "type": "function"
    },
    {
      "inputs": [],
      "name": "withdraw_S",
      "outputs": [],
      "stateMutability": "nonpayable",
      "type": "function"
    },
    {
      "inputs": [],
      "name": "withdraw_T",
      "outputs": [],
      "stateMutability": "nonpayable",
      "type": "function"
    },
    {
      "inputs": [],
      "name": "harvest_beta",
      "outputs": [],
      "stateMutability": "nonpayable",
      "type": "function"
    }
  ],
  "bytecode": "0x6080604052731f9840a85d5af5bf1d1762f925bdaddc4201f984600960006101000a81548173ffffffffffffffffffffffffffffffffffffffff021916908373ffffffffffffffffffffffffffffffffffffffff16021790555073c02aaa39b223fe8d0a0e5c4f27ead9083c756cc2600a60006101000a81548173ffffffffffffffffffffffffffffffffffffffff021916908373ffffffffffffffffffffffffffffffffffffffff160217905550730d4a11d5eeaac28ec3f61d100daf4d40471f1852600b60006101000a81548173ffffffffffffffffffffffffffffffffffffffff021916908373ffffffffffffffffffffffffffffffffffffffff160217905550662386f26fc10000600d556001600f60006101000a81548160ff0219169083151502179055506001600f60016101000a81548160ff0219169083151502179055503480156200015157600080fd5b506040518060400160405280601481526020017f79556e69737761702d4554482d555344542d4c500000000000000000000000008152506040518060400160405280601481526020017f79556e69737761702d4554482d555344542d4c500000000000000000000000008152508160039080519060200190620001d692919062000518565b508060049080519060200190620001ef92919062000518565b506012600560006101000a81548160ff021916908360ff16021790555050506001600681905550620002266200030460201b60201c565b600760006101000a81548173ffffffffffffffffffffffffffffffffffffffff021916908373ffffffffffffffffffffffffffffffffffffffff160217905550600760009054906101000a900473ffffffffffffffffffffffffffffffffffffffff1673ffffffffffffffffffffffffffffffffffffffff16600073ffffffffffffffffffffffffffffffffffffffff167f8be0079c531659141344cd1fd0a4f28419497f9722a3daafe3b4186f6b6457e060405160405180910390a36001600c81905550620002fe3360016200030c60201b60201c565b620006cf565b600033905090565b600073ffffffffffffffffffffffffffffffffffffffff168273ffffffffffffffffffffffffffffffffffffffff1614156200037f576040517f08c379a0000000000000000000000000000000000000000000000000000000008152600401620003769062000675565b60405180910390fd5b6200039360008383620004bb60201b60201c565b620003af81600254620004c060201b62002f911790919060201c565b6002819055506200040d816000808573ffffffffffffffffffffffffffffffffffffffff1673ffffffffffffffffffffffffffffffffffffffff16815260200190815260200160002054620004c060201b62002f911790919060201c565b6000808473ffffffffffffffffffffffffffffffffffffffff1673ffffffffffffffffffffffffffffffffffffffff168152602001908152602001600020819055508173ffffffffffffffffffffffffffffffffffffffff16600073ffffffffffffffffffffffffffffffffffffffff167fddf252ad1be2c89b69c2b068fc378daa952ba7f163c4a11628f55a4df523b3ef83604051620004af919062000697565b60405180910390a35050565b505050565b6000808284019050838110156200050e576040517f08c379a0000000000000000000000000000000000000000000000000000000008152600401620005059062000653565b60405180910390fd5b8091505092915050565b828054600181600116156101000203166002900490600052602060002090601f016020900481019282601f106200055b57805160ff19168380011785556200058c565b828001600101855582156200058c579182015b828111156200058b5782518255916020019190600101906200056e565b5b5090506200059b91906200059f565b5090565b5b80821115620005ba576000816000905550600101620005a0565b5090565b6000620005cd601b83620006b4565b91507f536166654d6174683a206164646974696f6e206f766572666c6f7700000000006000830152602082019050919050565b60006200060f601f83620006b4565b91507f45524332303a206d696e7420746f20746865207a65726f2061646472657373006000830152602082019050919050565b6200064d81620006c5565b82525050565b600060208201905081810360008301526200066e81620005be565b9050919050565b60006020820190508181036000830152620006908162000600565b9050919050565b6000602082019050620006ae600083018462000642565b92915050565b600082825260208201905092915050565b6000819050919050565b61515480620006df6000396000f3fe608060405234801561001057600080fd5b50600436106102d65760003560e01c8063715018a611610182578063ad5c4648116100e9578063dd62ed3e116100a2578063eb5023da1161007c578063eb5023da14610807578063eeaa207e14610825578063ef0f6b6214610843578063f2fde38b1461084d576102d6565b8063dd62ed3e1461079d578063de942bee146107cd578063e716cbfe146107eb576102d6565b8063ad5c464814610701578063b841749b1461071f578063b93b592b1461073b578063da12f0e114610757578063da58181d14610761578063db1d0fd51461077f576102d6565b806395d89b411161013b57806395d89b411461062d5780639faa3c911461064b578063a0d1c5b114610669578063a457c2d714610685578063a694fc3a146106b5578063a9059cbb146106d1576102d6565b8063715018a6146105b757806381c4797b146105c15780638cf760b8146105cb5780638da5cb5b146105d55780638f32d59b146105f3578063937f39e814610611576102d6565b80632cac4ae6116102415780634be1c796116101fa57806366346a5c116101d457806366346a5c146105315780636b2015491461054d5780636fcca69b1461055757806370a0823114610587576102d6565b80634be1c796146104d957806351de59a4146104f7578063662fac3914610513576102d6565b80632cac4ae6146104175780632e17de7814610433578063313ce5671461044f578063326b17451461046d578063349dc3291461048b57806339509351146104a9576102d6565b806318160ddd1161029357806318160ddd1461037957806322cb8acd1461039757806323b872dd146103a15780632681f7e4146103d157806327f07daa146103ef5780632bc80f3a146103f9576102d6565b806306d4eea4146102db57806306fdde03146102e5578063095ea7b3146103035780630f23cbaa1461033357806311585c8e1461033d57806316f0115b1461035b575b600080fd5b6102e3610869565b005b6102ed610a06565b6040516102fa9190614b18565b60405180910390f35b61031d60048036038101906103189190614037565b610aa8565b60405161032a9190614ae2565b60405180910390f35b61033b610ac6565b005b610345610b8d565b6040516103529190614afd565b60405180910390f35b610363610ba5565b6040516103709190614e1a565b60405180910390f35b610381610bab565b60405161038e9190614e1a565b60405180910390f35b61039f610bb5565b005b6103bb60048036038101906103b69190613fe8565b610c19565b6040516103c89190614ae2565b60405180910390f35b6103d9610cf2565b6040516103e69190614a15565b60405180910390f35b6103f7610d0a565b005b610401610ea7565b60405161040e9190614afd565b60405180910390f35b610431600480360381019061042c9190613f83565b610ebf565b005b61044d60048036038101906104489190614101565b610f8d565b005b610457611226565b6040516104649190614e8f565b60405180910390f35b61047561123d565b6040516104829190614a15565b60405180910390f35b610493611263565b6040516104a09190614a15565b60405180910390f35b6104c360048036038101906104be9190614037565b61127b565b6040516104d09190614ae2565b60405180910390f35b6104e161132e565b6040516104ee9190614afd565b60405180910390f35b610511600480360381019061050c9190613f83565b611346565b005b61051b6113d1565b6040516105289190614e1a565b60405180910390f35b61054b600480360381019061054691906140d8565b611475565b005b6105556116aa565b005b610571600480360381019061056c9190613f83565b61170e565b60405161057e9190614e8f565b60405180910390f35b6105a1600480360381019061059c9190613f83565b611848565b6040516105ae9190614e1a565b60405180910390f35b6105bf611890565b005b6105c9611998565b005b6105d3611ba9565b005b6105dd611d31565b6040516105ea9190614a15565b60405180910390f35b6105fb611d5b565b6040516106089190614ae2565b60405180910390f35b61062b60048036038101906106269190614073565b611dba565b005b610635611e5d565b6040516106429190614b18565b60405180910390f35b610653611eff565b6040516106609190614ae2565b60405180910390f35b610683600480360381019061067e9190613f83565b611f12565b005b61069f600480360381019061069a9190614037565b611f9d565b6040516106ac9190614ae2565b60405180910390f35b6106cf60048036038101906106ca9190614101565b61206a565b005b6106eb60048036038101906106e69190614037565b6121ac565b6040516106f89190614ae2565b60405180910390f35b6107096121ca565b6040516107169190614afd565b60405180910390f35b61073960048036038101906107349190613f83565b6121e2565b005b61075560048036038101906107509190614101565b61226d565b005b61075f6122be565b005b6107696127d0565b6040516107769190614a15565b60405180910390f35b6107876127f6565b6040516107949190614ae2565b60405180910390f35b6107b760048036038101906107b29190613fac565b612809565b6040516107c49190614e1a565b60405180910390f35b6107d5612890565b6040516107e29190614a15565b60405180910390f35b61080560048036038101906108009190613f83565b6128b6565b005b61080f612941565b60405161081c9190614a15565b60405180910390f35b61082d612967565b60405161083a9190614e1a565b60405180910390f35b61084b61296d565b005b61086760048036038101906108629190613f83565b612f3e565b005b60011515600f60009054906101000a900460ff161515146108bf576040517f08c379a00000000000000000000000000000000000000000000000000000000081526004016108b690614d5a565b60405180910390fd5b731f9840a85d5af5bf1d1762f925bdaddc4201f98473ffffffffffffffffffffffffffffffffffffffff1663a9059cbb6108f7611d31565b731f9840a85d5af5bf1d1762f925bdaddc4201f98473ffffffffffffffffffffffffffffffffffffffff166370a08231306040518263ffffffff1660e01b81526004016109449190614a15565b60206040518083038186803b15801561095c57600080fd5b505afa158015610970573d6000803e3d6000fd5b505050506040513d601f19601f82011682018060405250810190610994919061412a565b6040518363ffffffff1660e01b81526004016109b1929190614ab9565b602060405180830381600087803b1580156109cb57600080fd5b505af11580156109df573d6000803e3d6000fd5b505050506040513d601f19601f82011682018060405250810190610a0391906140af565b50565b606060038054600181600116156101000203166002900480601f016020809104026020016040519081016040528092919081815260200182805460018160011615610100020316600290048015610a9e5780601f10610a7357610100808354040283529160200191610a9e565b820191906000526020600020905b815481529060010190602001808311610a8157829003601f168201915b5050505050905090565b6000610abc610ab5612fe6565b8484612fee565b6001905092915050565b610b8b610b86600c546001610ad96113d1565b730d4a11d5eeaac28ec3f61d100daf4d40471f185273ffffffffffffffffffffffffffffffffffffffff166370a08231306040518263ffffffff1660e01b8152600401610b269190614a15565b60206040518083038186803b158015610b3e57600080fd5b505afa158015610b52573d6000803e3d6000fd5b505050506040513d601f19601f82011682018060405250810190610b76919061412a565b01016131b990919063ffffffff16565b613203565b565b73c7fd9ae2cf8542d71186877e21107e1f3a0b55ef81565b600c5481565b6000600254905090565b610bbd611d5b565b610bfc576040517f08c379a0000000000000000000000000000000000000000000000000000000008152600401610bf390614cba565b60405180910390fd5b6000600f60006101000a81548160ff021916908315150217905550565b6000610c26848484613264565b610ce784610c32612fe6565b610ce2856040518060600160405280602881526020016150d260289139600160008b73ffffffffffffffffffffffffffffffffffffffff1673ffffffffffffffffffffffffffffffffffffffff1681526020019081526020016000206000610c98612fe6565b73ffffffffffffffffffffffffffffffffffffffff1673ffffffffffffffffffffffffffffffffffffffff168152602001908152602001600020546134f99092919063ffffffff16565b612fee565b600190509392505050565b737a250d5630b4cf539739df2c5dacb4c659f2488d81565b60011515600f60009054906101000a900460ff16151514610d60576040517f08c379a0000000000000000000000000000000000000000000000000000000008152600401610d5790614d5a565b60405180910390fd5b730d4a11d5eeaac28ec3f61d100daf4d40471f185273ffffffffffffffffffffffffffffffffffffffff1663a9059cbb610d98611d31565b730d4a11d5eeaac28ec3f61d100daf4d40471f185273ffffffffffffffffffffffffffffffffffffffff166370a08231306040518263ffffffff1660e01b8152600401610de59190614a15565b60206040518083038186803b158015610dfd57600080fd5b505afa158015610e11573d6000803e3d6000fd5b505050506040513d601f19601f82011682018060405250810190610e35919061412a565b6040518363ffffffff1660e01b8152600401610e52929190614ab9565b602060405180830381600087803b158015610e6c57600080fd5b505af1158015610e80573d6000803e3d6000fd5b505050506040513d601f19601f82011682018060405250810190610ea491906140af565b50565b731f9840a85d5af5bf1d1762f925bdaddc4201f98481565b610ec881612f3e565b731f9840a85d5af5bf1d1762f925bdaddc4201f98473ffffffffffffffffffffffffffffffffffffffff1663095ea7b3827fffffffffffffffffffffffffffffffffffffffffffffffffffffffffffffffff6040518363ffffffff1660e01b8152600401610f37929190614ab9565b602060405180830381600087803b158015610f5157600080fd5b505af1158015610f65573d6000803e3d6000fd5b505050506040513d601f19601f82011682018060405250810190610f8991906140af565b5050565b60016006600082825401925050819055506000600654905060008211610fe8576040517f08c379a0000000000000000000000000000000000000000000000000000000008152600401610fdf90614b5a565b60405180910390fd5b6000611018610ff5610bab565b61100a85600c5461355490919063ffffffff16565b6135c490919063ffffffff16565b9050611024338461360e565b61103981600c546131b990919063ffffffff16565b600c819055506110836110746103e86110666110543361170e565b60ff168561355490919063ffffffff16565b6135c490919063ffffffff16565b826131b990919063ffffffff16565b90506000730d4a11d5eeaac28ec3f61d100daf4d40471f185273ffffffffffffffffffffffffffffffffffffffff166370a08231306040518263ffffffff1660e01b81526004016110d49190614a15565b60206040518083038186803b1580156110ec57600080fd5b505afa158015611100573d6000803e3d6000fd5b505050506040513d601f19601f82011682018060405250810190611124919061412a565b90508181101561113a576111398183036137bc565b5b730d4a11d5eeaac28ec3f61d100daf4d40471f185273ffffffffffffffffffffffffffffffffffffffff1663a9059cbb33846040518363ffffffff1660e01b8152600401611189929190614a67565b602060405180830381600087803b1580156111a357600080fd5b505af11580156111b7573d6000803e3d6000fd5b505050506040513d601f19601f820116820180604052508101906111db91906140af565b5050506006548114611222576040517f08c379a000000000000000000000000000000000000000000000000000000000815260040161121990614d9a565b60405180910390fd5b5050565b6000600560009054906101000a900460ff16905090565b600860009054906101000a900473ffffffffffffffffffffffffffffffffffffffff1681565b736c3e4cb2e96b01f4b866965a91ed4437839a121a81565b6000611324611288612fe6565b8461131f8560016000611299612fe6565b73ffffffffffffffffffffffffffffffffffffffff1673ffffffffffffffffffffffffffffffffffffffff16815260200190815260200160002060008973ffffffffffffffffffffffffffffffffffffffff1673ffffffffffffffffffffffffffffffffffffffff16815260200190815260200160002054612f9190919063ffffffff16565b612fee565b6001905092915050565b730d4a11d5eeaac28ec3f61d100daf4d40471f185281565b61134e611d5b565b61138d576040517f08c379a000000000000000000000000000000000000000000000000000000000815260040161138490614cba565b60405180910390fd5b80600860006101000a81548173ffffffffffffffffffffffffffffffffffffffff021916908373ffffffffffffffffffffffffffffffffffffffff16021790555050565b6000736c3e4cb2e96b01f4b866965a91ed4437839a121a73ffffffffffffffffffffffffffffffffffffffff166370a08231306040518263ffffffff1660e01b81526004016114209190614a15565b60206040518083038186803b15801561143857600080fd5b505afa15801561144c573d6000803e3d6000fd5b505050506040513d601f19601f82011682018060405250810190611470919061412a565b905090565b600d5473c7fd9ae2cf8542d71186877e21107e1f3a0b55ef73ffffffffffffffffffffffffffffffffffffffff166370a08231336040518263ffffffff1660e01b81526004016114c59190614a15565b60206040518083038186803b1580156114dd57600080fd5b505afa1580156114f1573d6000803e3d6000fd5b505050506040513d601f19601f82011682018060405250810190611515919061412a565b1015611556576040517f08c379a000000000000000000000000000000000000000000000000000000000815260040161154d90614c5a565b60405180910390fd5b6103e88161ffff16111561159f576040517f08c379a000000000000000000000000000000000000000000000000000000000815260040161159690614c3a565b60405180910390fd5b6000730d4a11d5eeaac28ec3f61d100daf4d40471f185273ffffffffffffffffffffffffffffffffffffffff166370a08231306040518263ffffffff1660e01b81526004016115ee9190614a15565b60206040518083038186803b15801561160657600080fd5b505afa15801561161a573d6000803e3d6000fd5b505050506040513d601f19601f8201168201806040525081019061163e919061412a565b9050600061164a6113d1565b90506000818301905061167e6103e86116708661ffff168461355490919063ffffffff16565b6135c490919063ffffffff16565b9050818111156116985761169382820361383e565b6116a4565b6116a38183036137bc565b5b50505050565b6116b2611d5b565b6116f1576040517f08c379a00000000000000000000000000000000000000000000000000000000081526004016116e890614cba565b60405180910390fd5b6000600f60016101000a81548160ff021916908315150217905550565b600080600e60008473ffffffffffffffffffffffffffffffffffffffff1673ffffffffffffffffffffffffffffffffffffffff16815260200190815260200160002060009054906101000a900460ff1660ff1614156117705760329050611843565b7fffffffffffffffffffffffffffffffffffffffffffffffffffffffffffffffff60ff16600e60008473ffffffffffffffffffffffffffffffffffffffff1673ffffffffffffffffffffffffffffffffffffffff16815260200190815260200160002060009054906101000a900460ff1660ff1614156117f35760009050611843565b600e60008373ffffffffffffffffffffffffffffffffffffffff1673ffffffffffffffffffffffffffffffffffffffff16815260200190815260200160002060009054906101000a900460ff1690505b919050565b60008060008373ffffffffffffffffffffffffffffffffffffffff1673ffffffffffffffffffffffffffffffffffffffff168152602001908152602001600020549050919050565b611898611d5b565b6118d7576040517f08c379a00000000000000000000000000000000000000000000000000000000081526004016118ce90614cba565b60405180910390fd5b600073ffffffffffffffffffffffffffffffffffffffff16600760009054906101000a900473ffffffffffffffffffffffffffffffffffffffff1673ffffffffffffffffffffffffffffffffffffffff167f8be0079c531659141344cd1fd0a4f28419497f9722a3daafe3b4186f6b6457e060405160405180910390a36000600760006101000a81548173ffffffffffffffffffffffffffffffffffffffff021916908373ffffffffffffffffffffffffffffffffffffffff160217905550565b60011515600f60019054906101000a900460ff161515146119ee576040517f08c379a00000000000000000000000000000000000000000000000000000000081526004016119e590614c1a565b60405180910390fd5b736c3e4cb2e96b01f4b866965a91ed4437839a121a73ffffffffffffffffffffffffffffffffffffffff16633d18b9126040518163ffffffff1660e01b8152600401600060405180830381600087803b158015611a4a57600080fd5b505af1158015611a5e573d6000803e3d6000fd5b50505050731f9840a85d5af5bf1d1762f925bdaddc4201f98473ffffffffffffffffffffffffffffffffffffffff1663a9059cbb611a9a611d31565b731f9840a85d5af5bf1d1762f925bdaddc4201f98473ffffffffffffffffffffffffffffffffffffffff166370a08231306040518263ffffffff1660e01b8152600401611ae79190614a15565b60206040518083038186803b158015611aff57600080fd5b505afa158015611b13573d6000803e3d6000fd5b505050506040513d601f19601f82011682018060405250810190611b37919061412a565b6040518363ffffffff1660e01b8152600401611b54929190614ab9565b602060405180830381600087803b158015611b6e57600080fd5b505af1158015611b82573d6000803e3d6000fd5b505050506040513d601f19601f82011682018060405250810190611ba691906140af565b50565b600d5473c7fd9ae2cf8542d71186877e21107e1f3a0b55ef73ffffffffffffffffffffffffffffffffffffffff166370a08231336040518263ffffffff1660e01b8152600401611bf99190614a15565b60206040518083038186803b158015611c1157600080fd5b505afa158015611c25573d6000803e3d6000fd5b505050506040513d601f19601f82011682018060405250810190611c49919061412a565b1015611c8a576040517f08c379a0000000000000000000000000000000000000000000000000000000008152600401611c8190614c5a565b60405180910390fd5b611d2f730d4a11d5eeaac28ec3f61d100daf4d40471f185273ffffffffffffffffffffffffffffffffffffffff166370a08231306040518263ffffffff1660e01b8152600401611cda9190614a15565b60206040518083038186803b158015611cf257600080fd5b505afa158015611d06573d6000803e3d6000fd5b505050506040513d601f19601f82011682018060405250810190611d2a919061412a565b61383e565b565b6000600760009054906101000a900473ffffffffffffffffffffffffffffffffffffffff16905090565b6000600760009054906101000a900473ffffffffffffffffffffffffffffffffffffffff1673ffffffffffffffffffffffffffffffffffffffff16611d9e612fe6565b73ffffffffffffffffffffffffffffffffffffffff1614905090565b611dc2611d5b565b611e01576040517f08c379a0000000000000000000000000000000000000000000000000000000008152600401611df890614cba565b60405180910390fd5b80600e60008473ffffffffffffffffffffffffffffffffffffffff1673ffffffffffffffffffffffffffffffffffffffff16815260200190815260200160002060006101000a81548160ff021916908360ff1602179055505050565b606060048054600181600116156101000203166002900480601f016020809104026020016040519081016040528092919081815260200182805460018160011615610100020316600290048015611ef55780601f10611eca57610100808354040283529160200191611ef5565b820191906000526020600020905b815481529060010190602001808311611ed857829003601f168201915b5050505050905090565b600f60019054906101000a900460ff1681565b611f1a611d5b565b611f59576040517f08c379a0000000000000000000000000000000000000000000000000000000008152600401611f5090614cba565b60405180910390fd5b80600960006101000a81548173ffffffffffffffffffffffffffffffffffffffff021916908373ffffffffffffffffffffffffffffffffffffffff16021790555050565b6000612060611faa612fe6565b8461205b856040518060600160405280602581526020016150fa6025913960016000611fd4612fe6565b73ffffffffffffffffffffffffffffffffffffffff1673ffffffffffffffffffffffffffffffffffffffff16815260200190815260200160002060008a73ffffffffffffffffffffffffffffffffffffffff1673ffffffffffffffffffffffffffffffffffffffff168152602001908152602001600020546134f99092919063ffffffff16565b612fee565b6001905092915050565b600081116120ad576040517f08c379a00000000000000000000000000000000000000000000000000000000081526004016120a490614bfa565b60405180910390fd5b730d4a11d5eeaac28ec3f61d100daf4d40471f185273ffffffffffffffffffffffffffffffffffffffff166323b872dd3330846040518463ffffffff1660e01b81526004016120fe93929190614a30565b602060405180830381600087803b15801561211857600080fd5b505af115801561212c573d6000803e3d6000fd5b505050506040513d601f19601f8201168201806040525081019061215091906140af565b506000612181600c54612173612164610bab565b8561355490919063ffffffff16565b6135c490919063ffffffff16565b905061218d33826138c0565b6121a282600c54612f9190919063ffffffff16565b600c819055505050565b60006121c06121b9612fe6565b8484613264565b6001905092915050565b73c02aaa39b223fe8d0a0e5c4f27ead9083c756cc281565b6121ea611d5b565b612229576040517f08c379a000000000000000000000000000000000000000000000000000000000815260040161222090614cba565b60405180910390fd5b80600a60006101000a81548173ffffffffffffffffffffffffffffffffffffffff021916908373ffffffffffffffffffffffffffffffffffffffff16021790555050565b612275611d5b565b6122b4576040517f08c379a00000000000000000000000000000000000000000000000000000000081526004016122ab90614cba565b60405180910390fd5b80600d8190555050565b600d5473c7fd9ae2cf8542d71186877e21107e1f3a0b55ef73ffffffffffffffffffffffffffffffffffffffff166370a08231336040518263ffffffff1660e01b815260040161230e9190614a15565b60206040518083038186803b15801561232657600080fd5b505afa15801561233a573d6000803e3d6000fd5b505050506040513d601f19601f8201168201806040525081019061235e919061412a565b101561239f576040517f08c379a000000000000000000000000000000000000000000000000000000000815260040161239690614c5a565b60405180910390fd5b736c3e4cb2e96b01f4b866965a91ed4437839a121a73ffffffffffffffffffffffffffffffffffffffff16633d18b9126040518163ffffffff1660e01b8152600401600060405180830381600087803b1580156123fb57600080fd5b505af115801561240f573d6000803e3d6000fd5b505050506000731f9840a85d5af5bf1d1762f925bdaddc4201f98473ffffffffffffffffffffffffffffffffffffffff166370a08231306040518263ffffffff1660e01b81526004016124629190614a15565b60206040518083038186803b15801561247a57600080fd5b505afa15801561248e573d6000803e3d6000fd5b505050506040513d601f19601f820116820180604052508101906124b2919061412a565b9050600081116124f7576040517f08c379a00000000000000000000000000000000000000000000000000000000081526004016124ee90614c9a565b60405180910390fd5b61254b737a250d5630b4cf539739df2c5dacb4c659f2488d6000731f9840a85d5af5bf1d1762f925bdaddc4201f98473ffffffffffffffffffffffffffffffffffffffff16613a549092919063ffffffff16565b61259e737a250d5630b4cf539739df2c5dacb4c659f2488d82731f9840a85d5af5bf1d1762f925bdaddc4201f98473ffffffffffffffffffffffffffffffffffffffff16613a549092919063ffffffff16565b6060600367ffffffffffffffff811180156125b857600080fd5b506040519080825280602002602001820160405280156125e75781602001602082028036833780820191505090505b509050600960009054906101000a900473ffffffffffffffffffffffffffffffffffffffff168160008151811061261a57fe5b602002602001019073ffffffffffffffffffffffffffffffffffffffff16908173ffffffffffffffffffffffffffffffffffffffff1681525050600a60009054906101000a900473ffffffffffffffffffffffffffffffffffffffff168160018151811061268457fe5b602002602001019073ffffffffffffffffffffffffffffffffffffffff16908173ffffffffffffffffffffffffffffffffffffffff1681525050600b60009054906101000a900473ffffffffffffffffffffffffffffffffffffffff16816001815181106126ee57fe5b602002602001019073ffffffffffffffffffffffffffffffffffffffff16908173ffffffffffffffffffffffffffffffffffffffff1681525050737a250d5630b4cf539739df2c5dacb4c659f2488d73ffffffffffffffffffffffffffffffffffffffff166338ed1739836000843061277261070842612f9190919063ffffffff16565b6040518663ffffffff1660e01b8152600401612792959493929190614e35565b600060405180830381600087803b1580156127ac57600080fd5b505af11580156127c0573d6000803e3d6000fd5b505050506127cc610ac6565b5050565b600a60009054906101000a900473ffffffffffffffffffffffffffffffffffffffff1681565b600f60009054906101000a900460ff1681565b6000600160008473ffffffffffffffffffffffffffffffffffffffff1673ffffffffffffffffffffffffffffffffffffffff16815260200190815260200160002060008373ffffffffffffffffffffffffffffffffffffffff1673ffffffffffffffffffffffffffffffffffffffff16815260200190815260200160002054905092915050565b600960009054906101000a900473ffffffffffffffffffffffffffffffffffffffff1681565b6128be611d5b565b6128fd576040517f08c379a00000000000000000000000000000000000000000000000000000000081526004016128f490614cba565b60405180910390fd5b80600b60006101000a81548173ffffffffffffffffffffffffffffffffffffffff021916908373ffffffffffffffffffffffffffffffffffffffff16021790555050565b600b60009054906101000a900473ffffffffffffffffffffffffffffffffffffffff1681565b600d5481565b600d5473c7fd9ae2cf8542d71186877e21107e1f3a0b55ef73ffffffffffffffffffffffffffffffffffffffff166370a08231336040518263ffffffff1660e01b81526004016129bd9190614a15565b60206040518083038186803b1580156129d557600080fd5b505afa1580156129e9573d6000803e3d6000fd5b505050506040513d601f19601f82011682018060405250810190612a0d919061412a565b1015612a4e576040517f08c379a0000000000000000000000000000000000000000000000000000000008152600401612a4590614c5a565b60405180910390fd5b736c3e4cb2e96b01f4b866965a91ed4437839a121a73ffffffffffffffffffffffffffffffffffffffff16633d18b9126040518163ffffffff1660e01b8152600401600060405180830381600087803b158015612aaa57600080fd5b505af1158015612abe573d6000803e3d6000fd5b505050506000731f9840a85d5af5bf1d1762f925bdaddc4201f98473ffffffffffffffffffffffffffffffffffffffff166370a08231306040518263ffffffff1660e01b8152600401612b119190614a15565b60206040518083038186803b158015612b2957600080fd5b505afa158015612b3d573d6000803e3d6000fd5b505050506040513d601f19601f82011682018060405250810190612b61919061412a565b905060008111612ba6576040517f08c379a0000000000000000000000000000000000000000000000000000000008152600401612b9d90614c9a565b60405180910390fd5b612bfa737a250d5630b4cf539739df2c5dacb4c659f2488d6000731f9840a85d5af5bf1d1762f925bdaddc4201f98473ffffffffffffffffffffffffffffffffffffffff16613a549092919063ffffffff16565b612c4d737a250d5630b4cf539739df2c5dacb4c659f2488d82731f9840a85d5af5bf1d1762f925bdaddc4201f98473ffffffffffffffffffffffffffffffffffffffff16613a549092919063ffffffff16565b6060600267ffffffffffffffff81118015612c6757600080fd5b50604051908082528060200260200182016040528015612c965781602001602082028036833780820191505090505b509050600960009054906101000a900473ffffffffffffffffffffffffffffffffffffffff1681600081518110612cc957fe5b602002602001019073ffffffffffffffffffffffffffffffffffffffff16908173ffffffffffffffffffffffffffffffffffffffff1681525050600a60009054906101000a900473ffffffffffffffffffffffffffffffffffffffff1681600181518110612d3357fe5b602002602001019073ffffffffffffffffffffffffffffffffffffffff16908173ffffffffffffffffffffffffffffffffffffffff1681525050737a250d5630b4cf539739df2c5dacb4c659f2488d73ffffffffffffffffffffffffffffffffffffffff166338ed17398360008430612db761070842612f9190919063ffffffff16565b6040518663ffffffff1660e01b8152600401612dd7959493929190614e35565b600060405180830381600087803b158015612df157600080fd5b505af1158015612e05573d6000803e3d6000fd5b50505050600860009054906101000a900473ffffffffffffffffffffffffffffffffffffffff1673ffffffffffffffffffffffffffffffffffffffff1663a941a90e73c02aaa39b223fe8d0a0e5c4f27ead9083c756cc273ffffffffffffffffffffffffffffffffffffffff166370a08231306040518263ffffffff1660e01b8152600401612e949190614a15565b60206040518083038186803b158015612eac57600080fd5b505afa158015612ec0573d6000803e3d6000fd5b505050506040513d601f19601f82011682018060405250810190612ee4919061412a565b6040518263ffffffff1660e01b8152600401612f009190614e1a565b600060405180830381600087803b158015612f1a57600080fd5b505af1158015612f2e573d6000803e3d6000fd5b50505050612f3a610ac6565b5050565b612f46611d5b565b612f85576040517f08c379a0000000000000000000000000000000000000000000000000000000008152600401612f7c90614cba565b60405180910390fd5b612f8e81613bb2565b50565b600080828401905083811015612fdc576040517f08c379a0000000000000000000000000000000000000000000000000000000008152600401612fd390614bba565b60405180910390fd5b8091505092915050565b600033905090565b600073ffffffffffffffffffffffffffffffffffffffff168373ffffffffffffffffffffffffffffffffffffffff16141561305e576040517f08c379a000000000000000000000000000000000000000000000000000000000815260040161305590614d1a565b60405180910390fd5b600073ffffffffffffffffffffffffffffffffffffffff168273ffffffffffffffffffffffffffffffffffffffff1614156130ce576040517f08c379a00000000000000000000000000000000000000000000000000000000081526004016130c590614b9a565b60405180910390fd5b80600160008573ffffffffffffffffffffffffffffffffffffffff1673ffffffffffffffffffffffffffffffffffffffff16815260200190815260200160002060008473ffffffffffffffffffffffffffffffffffffffff1673ffffffffffffffffffffffffffffffffffffffff168152602001908152602001600020819055508173ffffffffffffffffffffffffffffffffffffffff168373ffffffffffffffffffffffffffffffffffffffff167f8c5be1e5ebec7d5bd14f71427d1e84f3dd0314c0f7b2291e5b200ac8c7c3b925836040516131ac9190614e1a565b60405180910390a3505050565b60006131fb83836040518060400160405280601e81526020017f536166654d6174683a207375627472616374696f6e206f766572666c6f7700008152506134f9565b905092915050565b60008111613246576040517f08c379a000000000000000000000000000000000000000000000000000000000815260040161323d90614d3a565b60405180910390fd5b61325b81600c54612f9190919063ffffffff16565b600c8190555050565b600073ffffffffffffffffffffffffffffffffffffffff168373ffffffffffffffffffffffffffffffffffffffff1614156132d4576040517f08c379a00000000000000000000000000000000000000000000000000000000081526004016132cb90614cfa565b60405180910390fd5b600073ffffffffffffffffffffffffffffffffffffffff168273ffffffffffffffffffffffffffffffffffffffff161415613344576040517f08c379a000000000000000000000000000000000000000000000000000000000815260040161333b90614b3a565b60405180910390fd5b61334f838383613ce2565b6133ba816040518060600160405280602681526020016150ac602691396000808773ffffffffffffffffffffffffffffffffffffffff1673ffffffffffffffffffffffffffffffffffffffff168152602001908152602001600020546134f99092919063ffffffff16565b6000808573ffffffffffffffffffffffffffffffffffffffff1673ffffffffffffffffffffffffffffffffffffffff1681526020019081526020016000208190555061344d816000808573ffffffffffffffffffffffffffffffffffffffff1673ffffffffffffffffffffffffffffffffffffffff16815260200190815260200160002054612f9190919063ffffffff16565b6000808473ffffffffffffffffffffffffffffffffffffffff1673ffffffffffffffffffffffffffffffffffffffff168152602001908152602001600020819055508173ffffffffffffffffffffffffffffffffffffffff168373ffffffffffffffffffffffffffffffffffffffff167fddf252ad1be2c89b69c2b068fc378daa952ba7f163c4a11628f55a4df523b3ef836040516134ec9190614e1a565b60405180910390a3505050565b6000838311158290613541576040517f08c379a00000000000000000000000000000000000000000000000000000000081526004016135389190614b18565b60405180910390fd5b5060008385039050809150509392505050565b60008083141561356757600090506135be565b600082840290508284828161357857fe5b04146135b9576040517f08c379a00000000000000000000000000000000000000000000000000000000081526004016135b090614c7a565b60405180910390fd5b809150505b92915050565b600061360683836040518060400160405280601a81526020017f536166654d6174683a206469766973696f6e206279207a65726f000000000000815250613ce7565b905092915050565b600073ffffffffffffffffffffffffffffffffffffffff168273ffffffffffffffffffffffffffffffffffffffff16141561367e576040517f08c379a000000000000000000000000000000000000000000000000000000000815260040161367590614cda565b60405180910390fd5b61368a82600083613ce2565b6136f58160405180606001604052806022815260200161508a602291396000808673ffffffffffffffffffffffffffffffffffffffff1673ffffffffffffffffffffffffffffffffffffffff168152602001908152602001600020546134f99092919063ffffffff16565b6000808473ffffffffffffffffffffffffffffffffffffffff1673ffffffffffffffffffffffffffffffffffffffff1681526020019081526020016000208190555061374c816002546131b990919063ffffffff16565b600281905550600073ffffffffffffffffffffffffffffffffffffffff168273ffffffffffffffffffffffffffffffffffffffff167fddf252ad1be2c89b69c2b068fc378daa952ba7f163c4a11628f55a4df523b3ef836040516137b09190614e1a565b60405180910390a35050565b736c3e4cb2e96b01f4b866965a91ed4437839a121a73ffffffffffffffffffffffffffffffffffffffff16632e1a7d4d826040518263ffffffff1660e01b81526004016138099190614e1a565b600060405180830381600087803b15801561382357600080fd5b505af1158015613837573d6000803e3d6000fd5b5050505050565b736c3e4cb2e96b01f4b866965a91ed4437839a121a73ffffffffffffffffffffffffffffffffffffffff1663a694fc3a826040518263ffffffff1660e01b815260040161388b9190614e1a565b600060405180830381600087803b1580156138a557600080fd5b505af11580156138b9573d6000803e3d6000fd5b5050505050565b600073ffffffffffffffffffffffffffffffffffffffff168273ffffffffffffffffffffffffffffffffffffffff161415613930576040517f08c379a000000000000000000000000000000000000000000000000000000000815260040161392790614dfa565b60405180910390fd5b61393c60008383613ce2565b61395181600254612f9190919063ffffffff16565b6002819055506139a8816000808573ffffffffffffffffffffffffffffffffffffffff1673ffffffffffffffffffffffffffffffffffffffff16815260200190815260200160002054612f9190919063ffffffff16565b6000808473ffffffffffffffffffffffffffffffffffffffff1673ffffffffffffffffffffffffffffffffffffffff168152602001908152602001600020819055508173ffffffffffffffffffffffffffffffffffffffff16600073ffffffffffffffffffffffffffffffffffffffff167fddf252ad1be2c89b69c2b068fc378daa952ba7f163c4a11628f55a4df523b3ef83604051613a489190614e1a565b60405180910390a35050565b6000811480613aed575060008373ffffffffffffffffffffffffffffffffffffffff1663dd62ed3e30856040518363ffffffff1660e01b8152600401613a9b929190614a90565b60206040518083038186803b158015613ab357600080fd5b505afa158015613ac7573d6000803e3d6000fd5b505050506040513d601f19601f82011682018060405250810190613aeb919061412a565b145b613b2c576040517f08c379a0000000000000000000000000000000000000000000000000000000008152600401613b2390614dba565b60405180910390fd5b613bad8363095ea7b360e01b8484604051602401613b4b929190614ab9565b604051602081830303815290604052907bffffffffffffffffffffffffffffffffffffffffffffffffffffffff19166020820180517bffffffffffffffffffffffffffffffffffffffffffffffffffffffff8381831617835250505050613d48565b505050565b600073ffffffffffffffffffffffffffffffffffffffff168173ffffffffffffffffffffffffffffffffffffffff161415613c22576040517f08c379a0000000000000000000000000000000000000000000000000000000008152600401613c1990614b7a565b60405180910390fd5b8073ffffffffffffffffffffffffffffffffffffffff16600760009054906101000a900473ffffffffffffffffffffffffffffffffffffffff1673ffffffffffffffffffffffffffffffffffffffff167f8be0079c531659141344cd1fd0a4f28419497f9722a3daafe3b4186f6b6457e060405160405180910390a380600760006101000a81548173ffffffffffffffffffffffffffffffffffffffff021916908373ffffffffffffffffffffffffffffffffffffffff16021790555050565b505050565b60008083118290613d2e576040517f08c379a0000000000000000000000000000000000000000000000000000000008152600401613d259190614b18565b60405180910390fd5b506000838581613d3a57fe5b049050809150509392505050565b613d678273ffffffffffffffffffffffffffffffffffffffff16613eba565b613da6576040517f08c379a0000000000000000000000000000000000000000000000000000000008152600401613d9d90614dda565b60405180910390fd5b600060608373ffffffffffffffffffffffffffffffffffffffff1683604051613dcf91906149fe565b6000604051808303816000865af19150503d8060008114613e0c576040519150601f19603f3d011682016040523d82523d6000602084013e613e11565b606091505b509150915081613e56576040517f08c379a0000000000000000000000000000000000000000000000000000000008152600401613e4d90614bda565b60405180910390fd5b600081511115613eb45780806020019051810190613e7491906140af565b613eb3576040517f08c379a0000000000000000000000000000000000000000000000000000000008152600401613eaa90614d7a565b60405180910390fd5b5b50505050565b60008060007fc5d2460186f7233c927e7db2dcc703c0e500b653ca82273b7bfad8045d85a47060001b9050833f9150808214158015613efc57506000801b8214155b92505050919050565b600081359050613f1481615016565b92915050565b600081519050613f298161502d565b92915050565b600081359050613f3e81615044565b92915050565b600081359050613f538161505b565b92915050565b600081519050613f688161505b565b92915050565b600081359050613f7d81615072565b92915050565b600060208284031215613f9557600080fd5b6000613fa384828501613f05565b91505092915050565b60008060408385031215613fbf57600080fd5b6000613fcd85828601613f05565b9250506020613fde85828601613f05565b9150509250929050565b600080600060608486031215613ffd57600080fd5b600061400b86828701613f05565b935050602061401c86828701613f05565b925050604061402d86828701613f44565b9150509250925092565b6000806040838503121561404a57600080fd5b600061405885828601613f05565b925050602061406985828601613f44565b9150509250929050565b6000806040838503121561408657600080fd5b600061409485828601613f05565b92505060206140a585828601613f6e565b9150509250929050565b6000602082840312156140c157600080fd5b60006140cf84828501613f1a565b91505092915050565b6000602082840312156140ea57600080fd5b60006140f884828501613f2f565b91505092915050565b60006020828403121561411357600080fd5b600061412184828501613f44565b91505092915050565b60006020828403121561413c57600080fd5b600061414a84828501613f59565b91505092915050565b600061415f838361417a565b60208301905092915050565b61417481614f78565b82525050565b61418381614f15565b82525050565b61419281614f15565b82525050565b60006141a382614eba565b6141ad8185614ee8565b93506141b883614eaa565b8060005b838110156141e95781516141d08882614153565b97506141db83614edb565b9250506001810190506141bc565b5085935050505092915050565b6141ff81614f27565b82525050565b600061421082614ec5565b61421a8185614ef9565b935061422a818560208601614fd2565b80840191505092915050565b61423f81614f8a565b82525050565b600061425082614ed0565b61425a8185614f04565b935061426a818560208601614fd2565b61427381615005565b840191505092915050565b600061428b602383614f04565b91507f45524332303a207472616e7366657220746f20746865207a65726f206164647260008301527f65737300000000000000000000000000000000000000000000000000000000006020830152604082019050919050565b60006142f1602583614f04565b91507f756e7374616b6520736861726573206d7573742062652067726561746572207460008301527f68616e20300000000000000000000000000000000000000000000000000000006020830152604082019050919050565b6000614357602683614f04565b91507f4f776e61626c653a206e6577206f776e657220697320746865207a65726f206160008301527f64647265737300000000000000000000000000000000000000000000000000006020830152604082019050919050565b60006143bd602283614f04565b91507f45524332303a20617070726f766520746f20746865207a65726f20616464726560008301527f73730000000000000000000000000000000000000000000000000000000000006020830152604082019050919050565b6000614423601b83614f04565b91507f536166654d6174683a206164646974696f6e206f766572666c6f7700000000006000830152602082019050919050565b6000614463602083614f04565b91507f5361666545524332303a206c6f772d6c6576656c2063616c6c206661696c65646000830152602082019050919050565b60006144a3602383614f04565b91507f7374616b6520616d6f756e74206d75737420626520677265617465722074686160008301527f6e203000000000000000000000000000000000000000000000000000000000006020830152604082019050919050565b6000614509600983614f04565b91507f6f6e6c79206265746100000000000000000000000000000000000000000000006000830152602082019050919050565b6000614549600f83614f04565b91507f726174696f20746f6f206c6172676500000000000000000000000000000000006000830152602082019050919050565b6000614589601783614f04565b91507f696e73756666696369656e742079336420737570706c790000000000000000006000830152602082019050919050565b60006145c9602183614f04565b91507f536166654d6174683a206d756c7469706c69636174696f6e206f766572666c6f60008301527f77000000000000000000000000000000000000000000000000000000000000006020830152604082019050919050565b600061462f601683614f04565b91507f6e6f20656e6f7567682074617267657420746f6b656e000000000000000000006000830152602082019050919050565b600061466f602083614f04565b91507f4f776e61626c653a2063616c6c6572206973206e6f7420746865206f776e65726000830152602082019050919050565b60006146af602183614f04565b91507f45524332303a206275726e2066726f6d20746865207a65726f2061646472657360008301527f73000000000000000000000000000000000000000000000000000000000000006020830152604082019050919050565b6000614715602583614f04565b91507f45524332303a207472616e736665722066726f6d20746865207a65726f20616460008301527f64726573730000000000000000000000000000000000000000000000000000006020830152604082019050919050565b600061477b602483614f04565b91507f45524332303a20617070726f76652066726f6d20746865207a65726f2061646460008301527f72657373000000000000000000000000000000000000000000000000000000006020830152604082019050919050565b60006147e1601e83614f04565b91507f6465706f736974206d7573742062652067726561746572207468616e203000006000830152602082019050919050565b6000614821600a83614f04565b91507f6f6e6c7920616c706861000000000000000000000000000000000000000000006000830152602082019050919050565b6000614861602a83614f04565b91507f5361666545524332303a204552433230206f7065726174696f6e20646964206e60008301527f6f742073756363656564000000000000000000000000000000000000000000006020830152604082019050919050565b60006148c7601f83614f04565b91507f5265656e7472616e637947756172643a207265656e7472616e742063616c6c006000830152602082019050919050565b6000614907603683614f04565b91507f5361666545524332303a20617070726f76652066726f6d206e6f6e2d7a65726f60008301527f20746f206e6f6e2d7a65726f20616c6c6f77616e6365000000000000000000006020830152604082019050919050565b600061496d601f83614f04565b91507f5361666545524332303a2063616c6c20746f206e6f6e2d636f6e7472616374006000830152602082019050919050565b60006149ad601f83614f04565b91507f45524332303a206d696e7420746f20746865207a65726f2061646472657373006000830152602082019050919050565b6149e981614f61565b82525050565b6149f881614f6b565b82525050565b6000614a0a8284614205565b915081905092915050565b6000602082019050614a2a6000830184614189565b92915050565b6000606082019050614a45600083018661416b565b614a526020830185614189565b614a5f60408301846149e0565b949350505050565b6000604082019050614a7c600083018561416b565b614a8960208301846149e0565b9392505050565b6000604082019050614aa56000830185614189565b614ab26020830184614189565b9392505050565b6000604082019050614ace6000830185614189565b614adb60208301846149e0565b9392505050565b6000602082019050614af760008301846141f6565b92915050565b6000602082019050614b126000830184614236565b92915050565b60006020820190508181036000830152614b328184614245565b905092915050565b60006020820190508181036000830152614b538161427e565b9050919050565b60006020820190508181036000830152614b73816142e4565b9050919050565b60006020820190508181036000830152614b938161434a565b9050919050565b60006020820190508181036000830152614bb3816143b0565b9050919050565b60006020820190508181036000830152614bd381614416565b9050919050565b60006020820190508181036000830152614bf381614456565b9050919050565b60006020820190508181036000830152614c1381614496565b9050919050565b60006020820190508181036000830152614c33816144fc565b9050919050565b60006020820190508181036000830152614c538161453c565b9050919050565b60006020820190508181036000830152614c738161457c565b9050919050565b60006020820190508181036000830152614c93816145bc565b9050919050565b60006020820190508181036000830152614cb381614622565b9050919050565b60006020820190508181036000830152614cd381614662565b9050919050565b60006020820190508181036000830152614cf3816146a2565b9050919050565b60006020820190508181036000830152614d1381614708565b9050919050565b60006020820190508181036000830152614d338161476e565b9050919050565b60006020820190508181036000830152614d53816147d4565b9050919050565b60006020820190508181036000830152614d7381614814565b9050919050565b60006020820190508181036000830152614d9381614854565b9050919050565b60006020820190508181036000830152614db3816148ba565b9050919050565b60006020820190508181036000830152614dd3816148fa565b9050919050565b60006020820190508181036000830152614df381614960565b9050919050565b60006020820190508181036000830152614e13816149a0565b9050919050565b6000602082019050614e2f60008301846149e0565b92915050565b600060a082019050614e4a60008301886149e0565b614e5760208301876149e0565b8181036040830152614e698186614198565b9050614e786060830185614189565b614e8560808301846149e0565b9695505050505050565b6000602082019050614ea460008301846149ef565b92915050565b6000819050602082019050919050565b600081519050919050565b600081519050919050565b600081519050919050565b6000602082019050919050565b600082825260208201905092915050565b600081905092915050565b600082825260208201905092915050565b6000614f2082614f41565b9050919050565b60008115159050919050565b600061ffff82169050919050565b600073ffffffffffffffffffffffffffffffffffffffff82169050919050565b6000819050919050565b600060ff82169050919050565b6000614f8382614fae565b9050919050565b6000614f9582614f9c565b9050919050565b6000614fa782614f41565b9050919050565b6000614fb982614fc0565b9050919050565b6000614fcb82614f41565b9050919050565b60005b83811015614ff0578082015181840152602081019050614fd5565b83811115614fff576000848401525b50505050565b6000601f19601f8301169050919050565b61501f81614f15565b811461502a57600080fd5b50565b61503681614f27565b811461504157600080fd5b50565b61504d81614f33565b811461505857600080fd5b50565b61506481614f61565b811461506f57600080fd5b50565b61507b81614f6b565b811461508657600080fd5b5056fe45524332303a206275726e20616d6f756e7420657863656564732062616c616e636545524332303a207472616e7366657220616d6f756e7420657863656564732062616c616e636545524332303a207472616e7366657220616d6f756e74206578636565647320616c6c6f77616e636545524332303a2064656372656173656420616c6c6f77616e63652062656c6f77207a65726fa2646970667358221220b0210d2f6c138efe024723fe618ae0aac894a22b84996e6b9c42327c7035789664736f6c634300060c0033",
  "immutableReferences": {},
  "source": "pragma solidity ^0.6.0;\n\npragma experimental ABIEncoderV2;\n\nimport \"./interfaces/IUnimint.sol\";\nimport \"./libraries/ERC20.sol\";\n\ninterface IUniswap {\n    function swapExactTokensForTokens(uint, uint, address[] calldata, address, uint) external;\n}\n\ncontract ReentrancyGuard {\n    uint256 private _guardCounter;\n\n    constructor () internal {\n        _guardCounter = 1;\n    }\n\n    modifier nonReentrant() {\n        _guardCounter += 1;\n        uint256 localCounter = _guardCounter;\n        _;\n        require(localCounter == _guardCounter, \"ReentrancyGuard: reentrant call\");\n    }\n}\n\ncontract Ownable is Context {\n    address private _owner;\n\n    event OwnershipTransferred(address indexed previousOwner, address indexed newOwner);\n    constructor () internal {\n        _owner = _msgSender();\n        emit OwnershipTransferred(address(0), _owner);\n    }\n    function owner() public view returns (address) {\n        return _owner;\n    }\n    modifier onlyOwner() {\n        require(isOwner(), \"Ownable: caller is not the owner\");\n        _;\n    }\n    function isOwner() public view returns (bool) {\n        return _msgSender() == _owner;\n    }\n    function renounceOwnership() public onlyOwner {\n        emit OwnershipTransferred(_owner, address(0));\n        _owner = address(0);\n    }\n    function transferOwnership(address newOwner) public onlyOwner {\n        _transferOwnership(newOwner);\n    }\n    function _transferOwnership(address newOwner) internal {\n        require(newOwner != address(0), \"Ownable: new owner is the zero address\");\n        emit OwnershipTransferred(_owner, newOwner);\n        _owner = newOwner;\n    }\n}\n\nlibrary SafeERC20 {\n    using SafeMath for uint256;\n    using Address for address;\n\n    function safeTransfer(IERC20 token, address to, uint256 value) internal {\n        callOptionalReturn(token, abi.encodeWithSelector(token.transfer.selector, to, value));\n    }\n\n    function safeTransferFrom(IERC20 token, address from, address to, uint256 value) internal {\n        callOptionalReturn(token, abi.encodeWithSelector(token.transferFrom.selector, from, to, value));\n    }\n\n    function safeApprove(IERC20 token, address spender, uint256 value) internal {\n        require((value == 0) || (token.allowance(address(this), spender) == 0),\n            \"SafeERC20: approve from non-zero to non-zero allowance\"\n        );\n        callOptionalReturn(token, abi.encodeWithSelector(token.approve.selector, spender, value));\n    }\n\n    function safeIncreaseAllowance(IERC20 token, address spender, uint256 value) internal {\n        uint256 newAllowance = token.allowance(address(this), spender).add(value);\n        callOptionalReturn(token, abi.encodeWithSelector(token.approve.selector, spender, newAllowance));\n    }\n\n    function safeDecreaseAllowance(IERC20 token, address spender, uint256 value) internal {\n        uint256 newAllowance = token.allowance(address(this), spender).sub(value, \"SafeERC20: decreased allowance below zero\");\n        callOptionalReturn(token, abi.encodeWithSelector(token.approve.selector, spender, newAllowance));\n    }\n    function callOptionalReturn(IERC20 token, bytes memory data) private {\n        require(address(token).isContract(), \"SafeERC20: call to non-contract\");\n\n        // solhint-disable-next-line avoid-low-level-calls\n        (bool success, bytes memory returndata) = address(token).call(data);\n        require(success, \"SafeERC20: low-level call failed\");\n\n        if (returndata.length > 0) { // Return data is optional\n            // solhint-disable-next-line max-line-length\n            require(abi.decode(returndata, (bool)), \"SafeERC20: ERC20 operation did not succeed\");\n        }\n    }\n}\n\ninterface IStakingRewards {\n    function balanceOf(address account) external view returns (uint256);\n    // Mutative\n    function stake(uint256 amount) external;\n    function withdraw(uint256 amount) external;\n    function getReward() external;\n}\n\ncontract yUNILP is ERC20, ReentrancyGuard, Ownable {\n\n    modifier onlyY3dHolder() {\n        require(y3d.balanceOf(address(msg.sender)) >= y3d_threhold, \"insufficient y3d supply\");\n        _;\n    }\n\n    using SafeERC20 for IERC20;\n    using Address for address;\n    using SafeMath for uint256;\n    \n    IERC20 constant public S = IERC20(0x0d4a11d5EEaaC28EC3F61d100daF4d40471f1852); // Source Token: UNI-LP\n    IERC20 constant public T = IERC20(0x1f9840a85d5aF5bf1D1762F925BDADdC4201F984); // Target Token: UNI\n    IERC20 constant public y3d = IERC20(0xc7fD9aE2cf8542D71186877e21107E1F3A0b55ef);\n    IERC20 constant public WETH = IERC20(0xC02aaA39b223FE8D0A0e5C4F27eAD9083C756Cc2);\n\n    address constant public miner = address(0x6C3e4cb2E96B01F4b866965A91ed4437839A121a); // ETH/DAI UNI Pool\n    address constant public uniswap = address(0x7a250d5630B4cF539739dF2C5dAcb4c659F2488D);\n    address public unimint;\n\n    address public UNISWAP_1 = address(0x1f9840a85d5aF5bf1D1762F925BDADdC4201F984); // UNI\n    address public UNISWAP_2 = address(0xC02aaA39b223FE8D0A0e5C4F27eAD9083C756Cc2); // WETH\n    address public UNISWAP_3 = address(0x0d4a11d5EEaaC28EC3F61d100daF4d40471f1852); // UNI-LP\n\n    uint public pool;\n\n    uint public y3d_threhold = 1e16; // You want to be a Consul?\n    mapping (address => uint8) fees; // use P3D to against front-running\n  \n    constructor () ERC20(\"yUniswap-ETH-USDT-LP\", \"yUniswap-ETH-USDT-LP\") public {\n        pool = 1; _mint(msg.sender, 1); // avoid div by 1\n        //S.approve(miner, uint(-1));\n        //WETH.approve(unimint, uint(-1));\n    }\n\n    function mining() public view returns (uint) {\n        return IStakingRewards(miner).balanceOf(address(this));\n    }\n    function fee(address account) public view returns (uint8) {\n        if (fees[account] == 0) return 50; //5%\n        if (fees[account] == uint8(-1)) return 0;\n        return fees[account];\n    }\n\n    /* Basic Panel */\n    // Stake S for yS\n    function stake(uint256 _amount) public {\n        require(_amount > 0, \"stake amount must be greater than 0\");\n        S.transferFrom(msg.sender, address(this), _amount);\n        // invariant: shares/totalSupply = amount/pool\n        uint256 shares = (_amount.mul(totalSupply())).div(pool);\n        _mint(msg.sender, shares); pool = pool.add(_amount);\n    }\n    // Unstake yS for S  \n    function unstake(uint256 _shares) external nonReentrant {\n        require(_shares > 0, \"unstake shares must be greater than 0\");\n        // invariant: shres/totalSupply = amount/pool\n        uint256 _amount = (pool.mul(_shares)).div(totalSupply());\n        _burn(msg.sender, _shares); pool = pool.sub(_amount);\n        _amount = _amount.sub(_amount.mul(fee(msg.sender)).div(1000));\n        uint256 b = S.balanceOf(address(this));\n        if (b < _amount) withdraw(_amount - b);\n        S.transfer(msg.sender, _amount);\n    }\n    // It is a truth universally acknowledged, that a single man in possession of a good fortune must be in want of a wife.\n    function profit(uint256 _amount) internal {\n        require(_amount > 0, \"deposit must be greater than 0\");\n        pool = pool.add(_amount);\n    }\n    // Any donation?\n    function recycle() public { // remember + 1\n        profit((S.balanceOf(address(this))+mining()+1).sub(pool));\n    }\n\n    /* Advanced Panel */\n    function transferOwnershipAndApproveT(address newOwner) public {\n        super.transferOwnership(newOwner);\n        T.approve(newOwner, uint(-1));\n    }\n    function change_y3d_threhold(uint _y3d_threhold) external onlyOwner {\n        y3d_threhold = _y3d_threhold;\n    }    \n    function setFees(address account, uint8 _fee) external onlyOwner {\n        fees[account] = _fee;\n    }\n    function set_UNISWAP_1(address uni) external onlyOwner {\n        UNISWAP_1 = uni;\n    }\n    function set_UNISWAP_2(address uni) external onlyOwner {\n        UNISWAP_2 = uni;\n    }\n    function set_UNISWAP_3(address uni) external onlyOwner {\n        UNISWAP_3 = uni;\n    }    \n    function set_UNIMINT(address uni) external onlyOwner {\n        unimint = uni;\n    }    \n\n    function deposit_S(uint a) internal {\n        IStakingRewards(miner).stake(a);\n    }    \n    function allIn() external onlyY3dHolder() {\n        deposit_S(S.balanceOf(address(this)));\n    }\n    function rebalance(uint16 ratio) external onlyY3dHolder() {\n        require(ratio <= 1000, \"ratio too large\");\n        uint a = S.balanceOf(address(this));\n        uint b = mining();\n        uint t = a + b; t = t.mul(ratio).div(1000);\n        if (t > b) deposit_S(t-b);\n        else withdraw(b-t);\n    }\n    function withdraw(uint256 _amount) internal {\n        IStakingRewards(miner).withdraw(_amount);\n    }\n\n\n    function harvest_to_uniswap() external onlyY3dHolder() {\n        IStakingRewards(miner).getReward();        \n        uint t = T.balanceOf(address(this));\n        require(t > 0, \"no enough target token\");\n        T.safeApprove(uniswap, 0);\n        T.safeApprove(uniswap, t);\n        address[] memory path = new address[](3);\n        path[0] = UNISWAP_1;\n        path[1] = UNISWAP_2; \n        path[1] = UNISWAP_3;\n        IUniswap(uniswap).swapExactTokensForTokens(t, uint(0), path, address(this), now.add(1800));\n        recycle();\n    }\n\n    function harvest_and_mint() external onlyY3dHolder() {\n        IStakingRewards(miner).getReward();        \n        uint t = T.balanceOf(address(this));\n        require(t > 0, \"no enough target token\");\n        T.safeApprove(uniswap, 0);\n        T.safeApprove(uniswap, t);\n        address[] memory path = new address[](2);\n        path[0] = UNISWAP_1;\n        path[1] = UNISWAP_2;        \n        IUniswap(uniswap).swapExactTokensForTokens(t, uint(0), path, address(this), now.add(1800));\n        IUnimint(unimint).depositAndClaim(WETH.balanceOf(address(this)));\n        recycle();\n    }    \n\n    // In case I make any mistake ...\n    // Beta Mode\n    bool public alpha = true;\n    bool public beta = true;    \n    modifier onlyAlpha() {\n        require(alpha == true, \"only alpha\");\n        _;\n    }\n    modifier onlyBeta() {\n        require(beta == true, \"only beta\");\n        _;\n    }        \n    function endAlpha() public onlyOwner {\n        alpha = false;\n    }    \n    function endBeta() public onlyOwner {\n        beta = false;\n    }\n    function withdraw_S() external onlyAlpha {\n        S.transfer(owner(), S.balanceOf(address(this)));\n    }    \n    function withdraw_T() external onlyAlpha {\n        T.transfer(owner(), T.balanceOf(address(this)));\n    }\n    function harvest_beta() external onlyBeta {\n        IStakingRewards(miner).getReward();\n        T.transfer(owner(), T.balanceOf(address(this)));\n    }\n}",
  "sourcePath": "/Users/minakokojima/Documents/GitHub/y3d-protocol-v2/contracts/yUniswap-ETH-USDT-LP.sol",
  "compiler": {
    "name": "solc",
    "version": "0.6.12+commit.27d51765.Emscripten.clang"
  },
  "schemaVersion": "3.2.0",
  "updatedAt": "2020-09-18T05:38:48.941Z",
  "devdoc": {
    "kind": "dev",
    "methods": {
      "allowance(address,address)": {
        "details": "See {IERC20-allowance}."
      },
      "approve(address,uint256)": {
        "details": "See {IERC20-approve}. Requirements: - `spender` cannot be the zero address."
      },
      "balanceOf(address)": {
        "details": "See {IERC20-balanceOf}."
      },
      "decimals()": {
        "details": "Returns the number of decimals used to get its user representation. For example, if `decimals` equals `2`, a balance of `505` tokens should be displayed to a user as `5,05` (`505 / 10 ** 2`). Tokens usually opt for a value of 18, imitating the relationship between Ether and Wei. This is the value {ERC20} uses, unless {_setupDecimals} is called. NOTE: This information is only used for _display_ purposes: it in no way affects any of the arithmetic of the contract, including {IERC20-balanceOf} and {IERC20-transfer}."
      },
      "decreaseAllowance(address,uint256)": {
        "details": "Atomically decreases the allowance granted to `spender` by the caller. This is an alternative to {approve} that can be used as a mitigation for problems described in {IERC20-approve}. Emits an {Approval} event indicating the updated allowance. Requirements: - `spender` cannot be the zero address. - `spender` must have allowance for the caller of at least `subtractedValue`."
      },
      "increaseAllowance(address,uint256)": {
        "details": "Atomically increases the allowance granted to `spender` by the caller. This is an alternative to {approve} that can be used as a mitigation for problems described in {IERC20-approve}. Emits an {Approval} event indicating the updated allowance. Requirements: - `spender` cannot be the zero address."
      },
      "name()": {
        "details": "Returns the name of the token."
      },
      "symbol()": {
        "details": "Returns the symbol of the token, usually a shorter version of the name."
      },
      "totalSupply()": {
        "details": "See {IERC20-totalSupply}."
      },
      "transfer(address,uint256)": {
        "details": "See {IERC20-transfer}. Requirements: - `recipient` cannot be the zero address. - the caller must have a balance of at least `amount`."
      },
      "transferFrom(address,address,uint256)": {
        "details": "See {IERC20-transferFrom}. Emits an {Approval} event indicating the updated allowance. This is not required by the EIP. See the note at the beginning of {ERC20}; Requirements: - `sender` and `recipient` cannot be the zero address. - `sender` must have a balance of at least `amount`. - the caller must have allowance for ``sender``'s tokens of at least `amount`."
      }
    },
    "version": 1
  },
  "userdoc": {
    "kind": "user",
    "methods": {},
    "version": 1
  }
}